{
  "contractName": "DisputeHelper",
  "abi": [
    {
      "inputs": [
        {
          "internalType": "address",
          "name": "_checkPointManager",
          "type": "address"
        }
      ],
      "stateMutability": "nonpayable",
      "type": "constructor"
    },
    {
      "inputs": [
        {
          "internalType": "bytes[]",
          "name": "proof",
          "type": "bytes[]"
        },
        {
          "internalType": "bytes",
          "name": "bytesRoot",
          "type": "bytes"
        },
        {
          "internalType": "uint8[]",
          "name": "path",
          "type": "uint8[]"
        }
      ],
      "name": "checkProof",
      "outputs": [
        {
          "internalType": "bytes",
          "name": "",
          "type": "bytes"
        }
      ],
      "stateMutability": "pure",
      "type": "function"
    },
    {
      "inputs": [
        {
          "internalType": "bytes[]",
          "name": "item",
          "type": "bytes[]"
        }
      ],
      "name": "composeTx",
      "outputs": [
        {
          "internalType": "bytes",
          "name": "",
          "type": "bytes"
        }
      ],
      "stateMutability": "pure",
      "type": "function"
    },
    {
      "inputs": [
        {
          "internalType": "bytes",
          "name": "item",
          "type": "bytes"
        }
      ],
      "name": "decodeNode",
      "outputs": [
        {
          "internalType": "bytes[]",
          "name": "",
          "type": "bytes[]"
        }
      ],
      "stateMutability": "pure",
      "type": "function"
    },
    {
      "inputs": [
        {
          "internalType": "bytes[]",
          "name": "item",
          "type": "bytes[]"
        },
        {
          "internalType": "bool",
          "name": "isTxEncode",
          "type": "bool"
        }
      ],
      "name": "rlpEncode",
      "outputs": [
        {
          "internalType": "bytes",
          "name": "",
          "type": "bytes"
        }
      ],
      "stateMutability": "pure",
      "type": "function"
    },
    {
      "inputs": [
        {
          "internalType": "bytes32",
          "name": "hash",
          "type": "bytes32"
        },
        {
          "internalType": "uint8",
          "name": "v",
          "type": "uint8"
        },
        {
          "internalType": "bytes32",
          "name": "r",
          "type": "bytes32"
        },
        {
          "internalType": "bytes32",
          "name": "s",
          "type": "bytes32"
        }
      ],
      "name": "txEcrecover",
      "outputs": [
        {
          "internalType": "address",
          "name": "",
          "type": "address"
        }
      ],
      "stateMutability": "pure",
      "type": "function"
    },
    {
      "inputs": [
        {
          "internalType": "bytes32",
          "name": "_blockHash",
          "type": "bytes32"
        },
        {
          "internalType": "uint256",
          "name": "_blockNumber",
          "type": "uint256"
        }
      ],
      "name": "verifyBlockHash",
      "outputs": [
        {
          "internalType": "bool",
          "name": "",
          "type": "bool"
        }
      ],
      "stateMutability": "view",
      "type": "function"
    },
    {
      "inputs": [
        {
          "internalType": "bytes32",
          "name": "blockHash",
          "type": "bytes32"
        },
        {
          "internalType": "bytes[]",
          "name": "blockHeaderRaw",
          "type": "bytes[]"
        }
      ],
      "name": "verifyBlockHeader",
      "outputs": [
        {
          "internalType": "bool",
          "name": "",
          "type": "bool"
        }
      ],
      "stateMutability": "pure",
      "type": "function"
    },
    {
      "inputs": [
        {
          "internalType": "bytes",
          "name": "transaction",
          "type": "bytes"
        },
        {
          "internalType": "bytes[]",
          "name": "txRaw",
          "type": "bytes[]"
        }
      ],
      "name": "verifyRawTx",
      "outputs": [
        {
          "internalType": "bool",
          "name": "",
          "type": "bool"
        }
      ],
      "stateMutability": "pure",
      "type": "function"
    },
    {
      "inputs": [
        {
          "internalType": "address",
          "name": "from",
          "type": "address"
        },
        {
          "internalType": "bytes[]",
          "name": "txRaw",
          "type": "bytes[]"
        }
      ],
      "name": "verifyTxSignature",
      "outputs": [
        {
          "internalType": "bool",
          "name": "",
          "type": "bool"
        }
      ],
      "stateMutability": "pure",
      "type": "function"
    },
    {
      "inputs": [
        {
          "internalType": "bytes",
          "name": "buffer",
          "type": "bytes"
        }
      ],
      "name": "helperBufferToNibble",
      "outputs": [
        {
          "internalType": "uint8[]",
          "name": "",
          "type": "uint8[]"
        }
      ],
      "stateMutability": "pure",
      "type": "function"
    }
  ],
  "bytecode": "0x608060405234801561001057600080fd5b5060405161190638038061190683398101604081905261002f91610054565b600080546001600160a01b0319166001600160a01b0392909216919091179055610084565b60006020828403121561006657600080fd5b81516001600160a01b038116811461007d57600080fd5b9392505050565b611873806100936000396000f3fe608060405234801561001057600080fd5b506004361061009e5760003560e01c806350328bf91161006657806350328bf9146101425780638edf012a14610155578063a47615c714610168578063ca141dfe1461017b578063e1bc9328146101a657600080fd5b806325bc217b146100a35780632c576255146100cc5780633a161a46146100ef57806344accf591461010257806344ebba0d14610122575b600080fd5b6100b66100b1366004610f74565b6101b9565b6040516100c39190610fb0565b60405180910390f35b6100df6100da366004610ff7565b6101ca565b60405190151581526020016100c3565b6100df6100fd366004611064565b61024f565b610115610110366004611165565b610277565b6040516100c39190611217565b610135610130366004610f74565b610357565b6040516100c3919061122a565b6100df61015036600461128c565b6103e5565b6101156101633660046112e7565b61040d565b6100df61017636600461131b565b610461565b61018e610189366004611378565b61072b565b6040516001600160a01b0390911681526020016100c3565b6101156101b43660046113b3565b610793565b60606101c482610b46565b92915050565b60008054604051637741562f60e11b81526004810184905284916001600160a01b03169063ee82ac5e9060240160206040518083038186803b15801561020f57600080fd5b505afa158015610223573d6000803e3d6000fd5b505050506040513d601f19601f820116820180604052508101906102479190611497565b149392505050565b600061026561025e83856114b0565b6000610277565b80519060200120841490509392505050565b81516060908160005b82811015610319576008811480156102955750845b156102c157816040516020016102ab91906114bd565b6040516020818303038152906040529150610307565b816102e48783815181106102d7576102d76114e2565b6020026020010151610c8a565b6040516020016102f59291906114f8565b60405160208183030381529060405291505b806103118161153d565b915050610280565b506000610328825160c0610cfa565b9050808260405160200161033d9291906114f8565b604051602081830303815290604052935050505092915050565b60405163e5c5e9a360e01b815260609073__RLPDecoder____________________________9063e5c5e9a390610391908590600401611217565b60006040518083038186803b1580156103a957600080fd5b505af41580156103bd573d6000803e3d6000fd5b505050506040513d6000823e601f3d908101601f191682016040526101c49190810190611558565b60006103f461016383856114b0565b8051906020012084805190602001201490509392505050565b6060600061041c836001610277565b9050604051806040016040528060018152602001600160f91b8152508160405160200161044a9291906114f8565b604051602081830303815290604052915050919050565b60008061046f600384611644565b90506000816001600160401b0381111561048b5761048b610eb1565b6040519080825280602002602001820160405280156104be57816020015b60608152602001906001900390816104a95790505b50905060005b82811015610556578585828181106104de576104de6114e2565b90506020028101906104f0919061165b565b8080601f0160208091040260200160405190810160405280939291908181526020018383808284376000920191909152505084518592508491508110610538576105386114e2565b6020026020010181905250808061054e9061153d565b9150506104c4565b5060006105628261040d565b805160208201209091506000808888600a818110610582576105826114e2565b9050602002810190610594919061165b565b8080601f0160208091040260200160405190810160405280939291908181526020018383808284376000920182905250602085015196509394508392508c91508b9050600b8181106105e8576105e86114e2565b90506020028101906105fa919061165b565b8080601f0160208091040260200160405190810160405280939291908181526020018383808284376000920182905250602085015196509394507f5fe7f977e71dba2ea1a68e21057beebb9be2ac30c6410aa38d4f3fbe41dcffd292508e91508d9050600981811061066e5761066e6114e2565b9050602002810190610680919061165b565b60405161068e9291906116a1565b604051809103902014156106a45750601c6106a8565b50601b5b60408051600081526020810180835288905260ff831691810191909152606081018690526080810184905260019060a0016020604051602081039080840390855afa1580156106fb573d6000803e3d6000fd5b505050602060405103516001600160a01b03168d6001600160a01b03161499505050505050505050509392505050565b6040805160008082526020820180845287905260ff861692820192909252606081018490526080810183905260019060a0016020604051602081039080840390855afa15801561077f573d6000803e3d6000fd5b5050604051601f1901519695505050505050565b60208201518351606091908490600080858982856107b3576107b36114e2565b60200260200101518051906020012086146108075760405162461bcd60e51b815260206004820152600f60248201526e125b9d985b1a5908151e08149bdbdd608a1b60448201526064015b60405180910390fd5b60005b84811015610b385760006108368c8381518110610829576108296114e2565b6020026020010151610357565b9050811561089d57838c8381518110610851576108516114e2565b6020026020010151805190602001201461089d5760405162461bcd60e51b815260206004820152600d60248201526c24b73b30b634b210283937b7b360991b60448201526064016107fe565b80516011141561092e576108b2600187611644565b8214156108db57806010815181106108cc576108cc6114e2565b60200260200101519250610b25565b808a86815181106108ee576108ee6114e2565b602002602001015160ff1681518110610909576109096114e2565b602002602001015161091a906116b1565b9350846109268161153d565b955050610b25565b80516002141561009e57600061095d82600081518110610950576109506114e2565b6020026020010151610b46565b90506000600182600081518110610976576109766114e2565b602002602001015160ff161115610a01578160008151811061099a5761099a6114e2565b602002602001015160ff16600214156109b5575060026109df565b816000815181106109c8576109c86114e2565b602002602001015160ff16600314156109df575060015b826001815181106109f2576109f26114e2565b60200260200101519450610a80565b81600081518110610a1457610a146114e2565b602002602001015160ff1660001415610a2f57506002610a59565b81600081518110610a4257610a426114e2565b602002602001015160ff1660011415610a59575060015b82600181518110610a6c57610a6c6114e2565b6020026020010151610a7d906116b1565b95505b805b8251811015610b2157828181518110610a9d57610a9d6114e2565b602002602001015160ff168d8981518110610aba57610aba6114e2565b602002602001015160ff1614610b015760405162461bcd60e51b815260206004820152600c60248201526b092dcecc2d8d2c840a0c2e8d60a31b60448201526064016107fe565b87610b0b8161153d565b9850508080610b199061153d565b915050610a82565b5050505b5080610b308161153d565b91505061080a565b509998505050505050505050565b80516060906000610b588260026116d8565b6001600160401b03811115610b6f57610b6f610eb1565b604051908082528060200260200182016040528015610b98578160200160208202803683370190505b50905060005b8451811015610c82576000610bb48260026116d8565b90506004868381518110610bca57610bca6114e2565b602001015160f81c60f81b6001600160f81b031916901c60f81c838281518110610bf657610bf66114e2565b60ff90921660209283029190910190910152610c118161153d565b905060006004878481518110610c2957610c296114e2565b016020015185516001600160f81b031990911690911b915060fc82901c90859084908110610c5957610c596114e2565b602002602001019060ff16908160ff168152505050508080610c7a9061153d565b915050610b9e565b509392505050565b60608082516001148015610cb95750608083600081518110610cae57610cae6114e2565b016020015160f81c11155b15610cc55750816101c4565b610cd183516080610cfa565b83604051602001610ce39291906114f8565b604051602081830303815290604052905092915050565b6060806038841015610d645760408051600180825281830190925290602082018180368337019050509050610d2f83856116f7565b601f1a60f81b81600081518110610d4857610d486114e2565b60200101906001600160f81b031916908160001a905350610eaa565b600060015b610d738187611725565b15610d995781610d828161153d565b9250610d929050610100826116d8565b9050610d69565b610da48260016116f7565b6001600160401b03811115610dbb57610dbb610eb1565b6040519080825280601f01601f191660200182016040528015610de5576020820181803683370190505b509250610df285836116f7565b610dfd9060376116f7565b601f1a60f81b83600081518110610e1657610e166114e2565b60200101906001600160f81b031916908160001a905350600190505b818111610ea757610100610e468284611644565b610e529061010061181d565b610e5c9088611725565b610e669190611829565b601f1a60f81b838281518110610e7e57610e7e6114e2565b60200101906001600160f81b031916908160001a90535080610e9f8161153d565b915050610e32565b50505b9392505050565b634e487b7160e01b600052604160045260246000fd5b604051601f8201601f191681016001600160401b0381118282101715610eef57610eef610eb1565b604052919050565b60006001600160401b03821115610f1057610f10610eb1565b50601f01601f191660200190565b600082601f830112610f2f57600080fd5b8135610f42610f3d82610ef7565b610ec7565b818152846020838601011115610f5757600080fd5b816020850160208301376000918101602001919091529392505050565b600060208284031215610f8657600080fd5b81356001600160401b03811115610f9c57600080fd5b610fa884828501610f1e565b949350505050565b6020808252825182820181905260009190848201906040850190845b81811015610feb57835160ff1683529284019291840191600101610fcc565b50909695505050505050565b6000806040838503121561100a57600080fd5b50508035926020909101359150565b60008083601f84011261102b57600080fd5b5081356001600160401b0381111561104257600080fd5b6020830191508360208260051b850101111561105d57600080fd5b9250929050565b60008060006040848603121561107957600080fd5b8335925060208401356001600160401b0381111561109657600080fd5b6110a286828701611019565b9497909650939450505050565b60006001600160401b038211156110c8576110c8610eb1565b5060051b60200190565b60006110e0610f3d846110af565b8381529050602080820190600585901b8401868111156110ff57600080fd5b845b8181101561113a5780356001600160401b038111156111205760008081fd5b61112c89828901610f1e565b855250928201928201611101565b505050509392505050565b600082601f83011261115657600080fd5b610eaa838335602085016110d2565b6000806040838503121561117857600080fd5b82356001600160401b0381111561118e57600080fd5b61119a85828601611145565b925050602083013580151581146111b057600080fd5b809150509250929050565b60005b838110156111d65781810151838201526020016111be565b838111156111e5576000848401525b50505050565b600081518084526112038160208601602086016111bb565b601f01601f19169290920160200192915050565b602081526000610eaa60208301846111eb565b6000602080830181845280855180835260408601915060408160051b870101925083870160005b8281101561127f57603f1988860301845261126d8583516111eb565b94509285019290850190600101611251565b5092979650505050505050565b6000806000604084860312156112a157600080fd5b83356001600160401b03808211156112b857600080fd5b6112c487838801610f1e565b945060208601359150808211156112da57600080fd5b506110a286828701611019565b6000602082840312156112f957600080fd5b81356001600160401b0381111561130f57600080fd5b610fa884828501611145565b60008060006040848603121561133057600080fd5b83356001600160a01b038116811461134757600080fd5b925060208401356001600160401b0381111561109657600080fd5b803560ff8116811461137357600080fd5b919050565b6000806000806080858703121561138e57600080fd5b8435935061139e60208601611362565b93969395505050506040820135916060013590565b6000806000606084860312156113c857600080fd5b83356001600160401b03808211156113df57600080fd5b6113eb87838801611145565b945060209150818601358181111561140257600080fd5b61140e88828901610f1e565b94505060408601358181111561142357600080fd5b86019050601f8101871361143657600080fd5b8035611444610f3d826110af565b81815260059190911b8201830190838101908983111561146357600080fd5b928401925b828410156114885761147984611362565b82529284019290840190611468565b80955050505050509250925092565b6000602082840312156114a957600080fd5b5051919050565b6000610eaa3684846110d2565b600082516114cf8184602087016111bb565b600360fe1b920191825250600101919050565b634e487b7160e01b600052603260045260246000fd5b6000835161150a8184602088016111bb565b83519083019061151e8183602088016111bb565b01949350505050565b634e487b7160e01b600052601160045260246000fd5b600060001982141561155157611551611527565b5060010190565b6000602080838503121561156b57600080fd5b82516001600160401b038082111561158257600080fd5b818501915085601f83011261159657600080fd5b81516115a4610f3d826110af565b81815260059190911b830184019084810190888311156115c357600080fd5b8585015b83811015611637578051858111156115df5760008081fd5b8601603f81018b136115f15760008081fd5b878101516040611603610f3d83610ef7565b8281528d828486010111156116185760008081fd5b611627838c83018487016111bb565b86525050509186019186016115c7565b5098975050505050505050565b60008282101561165657611656611527565b500390565b6000808335601e1984360301811261167257600080fd5b8301803591506001600160401b0382111561168c57600080fd5b60200191503681900382131561105d57600080fd5b8183823760009101908152919050565b805160208083015191908110156116d2576000198160200360031b1b821691505b50919050565b60008160001904831182151516156116f2576116f2611527565b500290565b6000821982111561170a5761170a611527565b500190565b634e487b7160e01b600052601260045260246000fd5b6000826117345761173461170f565b500490565b600181815b8085111561177457816000190482111561175a5761175a611527565b8085161561176757918102915b93841c939080029061173e565b509250929050565b60008261178b575060016101c4565b81611798575060006101c4565b81600181146117ae57600281146117b8576117d4565b60019150506101c4565b60ff8411156117c9576117c9611527565b50506001821b6101c4565b5060208310610133831016604e8410600b84101617156117f7575081810a6101c4565b6118018383611739565b806000190482111561181557611815611527565b029392505050565b6000610eaa838361177c565b6000826118385761183861170f565b50069056fea2646970667358221220f495c873ee778edc49a30bb1d9376a852a8a20f7ae107a28f69aac093395f0a164736f6c63430008090033",
  "immutableReferences": {},
  "source": "// SPDX-License-Identifier: MIT\npragma solidity >=0.4.22 <0.9.0;\nimport \"./PheasantNetworkDisputeManager.sol\";\n\ncontract DisputeHelper is PheasantNetworkDisputeManager{\n  constructor(address _checkPointManager) PheasantNetworkDisputeManager(_checkPointManager) {\n  }\n\n  function helperBufferToNibble(bytes memory buffer) public pure returns(uint8[] memory){\n      return super.bufferToNibble(buffer);\n  }\n\n\n}\n",
  "sourcePath": "/Users/yukitanaka/Documents/dev/solidity/pheasant-network/v1-contracts/contracts/DisputeHelper.sol",
  "compiler": {
    "name": "solc",
    "version": "0.8.9+commit.e5eed63a.Emscripten.clang"
  },
  "schemaVersion": "3.4.3",
  "updatedAt": "2022-05-02T09:29:04.132Z",
  "networkType": "ethereum",
  "devdoc": {
    "kind": "dev",
    "methods": {},
    "version": 1
  },
  "userdoc": {
    "kind": "user",
    "methods": {},
    "version": 1
  }
}