{
  "contractName": "Helper",
  "abi": [
    {
      "inputs": [
        {
          "internalType": "address[]",
          "name": "_tokenAddressList",
          "type": "address[]"
        },
        {
          "internalType": "uint256",
          "name": "_userDepositThreshold",
          "type": "uint256"
        },
        {
          "internalType": "address",
          "name": "_disputeManager",
          "type": "address"
        }
      ],
      "stateMutability": "nonpayable",
      "type": "constructor"
    },
    {
      "anonymous": false,
      "inputs": [
        {
          "indexed": true,
          "internalType": "address",
          "name": "relayer",
          "type": "address"
        },
        {
          "indexed": true,
          "internalType": "address",
          "name": "userAddress",
          "type": "address"
        },
        {
          "indexed": false,
          "internalType": "uint256",
          "name": "index",
          "type": "uint256"
        }
      ],
      "name": "Bid",
      "type": "event"
    },
    {
      "anonymous": false,
      "inputs": [
        {
          "indexed": true,
          "internalType": "address",
          "name": "userAddress",
          "type": "address"
        },
        {
          "indexed": false,
          "internalType": "uint256",
          "name": "index",
          "type": "uint256"
        }
      ],
      "name": "Dispute",
      "type": "event"
    },
    {
      "anonymous": false,
      "inputs": [
        {
          "indexed": true,
          "internalType": "address",
          "name": "userAddress",
          "type": "address"
        },
        {
          "indexed": false,
          "internalType": "uint8",
          "name": "tokenTypeIndex",
          "type": "uint8"
        },
        {
          "indexed": false,
          "internalType": "uint256",
          "name": "amount",
          "type": "uint256"
        }
      ],
      "name": "NewTrade",
      "type": "event"
    },
    {
      "anonymous": false,
      "inputs": [
        {
          "indexed": true,
          "internalType": "address",
          "name": "previousOwner",
          "type": "address"
        },
        {
          "indexed": true,
          "internalType": "address",
          "name": "newOwner",
          "type": "address"
        }
      ],
      "name": "OwnershipTransferred",
      "type": "event"
    },
    {
      "anonymous": false,
      "inputs": [
        {
          "indexed": true,
          "internalType": "address",
          "name": "userAddress",
          "type": "address"
        },
        {
          "indexed": false,
          "internalType": "uint256",
          "name": "index",
          "type": "uint256"
        },
        {
          "indexed": true,
          "internalType": "address",
          "name": "relayer",
          "type": "address"
        }
      ],
      "name": "Slash",
      "type": "event"
    },
    {
      "anonymous": false,
      "inputs": [
        {
          "indexed": true,
          "internalType": "address",
          "name": "relayer",
          "type": "address"
        },
        {
          "indexed": true,
          "internalType": "address",
          "name": "userAddress",
          "type": "address"
        },
        {
          "indexed": false,
          "internalType": "uint256",
          "name": "index",
          "type": "uint256"
        }
      ],
      "name": "Submit",
      "type": "event"
    },
    {
      "anonymous": false,
      "inputs": [
        {
          "indexed": true,
          "internalType": "address",
          "name": "relayer",
          "type": "address"
        },
        {
          "indexed": true,
          "internalType": "address",
          "name": "userAddress",
          "type": "address"
        },
        {
          "indexed": false,
          "internalType": "uint256",
          "name": "index",
          "type": "uint256"
        }
      ],
      "name": "Withdraw",
      "type": "event"
    },
    {
      "inputs": [
        {
          "components": [
            {
              "internalType": "address",
              "name": "userAddress",
              "type": "address"
            },
            {
              "internalType": "uint256",
              "name": "index",
              "type": "uint256"
            }
          ],
          "internalType": "struct PheasantNetworkBridgeChild.UserTrade[]",
          "name": "userTrades",
          "type": "tuple[]"
        }
      ],
      "name": "bulkBid",
      "outputs": [],
      "stateMutability": "nonpayable",
      "type": "function"
    },
    {
      "inputs": [
        {
          "components": [
            {
              "internalType": "address",
              "name": "userAddress",
              "type": "address"
            },
            {
              "internalType": "uint256",
              "name": "index",
              "type": "uint256"
            }
          ],
          "internalType": "struct PheasantNetworkBridgeChild.UserTrade[]",
          "name": "_userTrades",
          "type": "tuple[]"
        },
        {
          "components": [
            {
              "internalType": "bytes",
              "name": "blockNumber",
              "type": "bytes"
            },
            {
              "internalType": "bytes32",
              "name": "blockHash",
              "type": "bytes32"
            },
            {
              "internalType": "bytes[]",
              "name": "txReceiptProof",
              "type": "bytes[]"
            },
            {
              "internalType": "bytes[]",
              "name": "txProof",
              "type": "bytes[]"
            },
            {
              "internalType": "bytes",
              "name": "transaction",
              "type": "bytes"
            },
            {
              "internalType": "uint8[]",
              "name": "txDataSpot",
              "type": "uint8[]"
            },
            {
              "internalType": "uint8[]",
              "name": "path",
              "type": "uint8[]"
            },
            {
              "internalType": "bytes",
              "name": "txReceipt",
              "type": "bytes"
            },
            {
              "internalType": "bytes[]",
              "name": "rawTx",
              "type": "bytes[]"
            },
            {
              "internalType": "bytes[]",
              "name": "rawBlockHeader",
              "type": "bytes[]"
            }
          ],
          "internalType": "struct PheasantNetworkBridgeChild.Evidence[]",
          "name": "_evidences",
          "type": "tuple[]"
        }
      ],
      "name": "bulkWithdraw",
      "outputs": [],
      "stateMutability": "nonpayable",
      "type": "function"
    },
    {
      "inputs": [
        {
          "internalType": "uint256",
          "name": "index",
          "type": "uint256"
        }
      ],
      "name": "cancelTrade",
      "outputs": [],
      "stateMutability": "nonpayable",
      "type": "function"
    },
    {
      "inputs": [
        {
          "internalType": "bytes",
          "name": "item",
          "type": "bytes"
        }
      ],
      "name": "decodeNode",
      "outputs": [
        {
          "internalType": "bytes[]",
          "name": "",
          "type": "bytes[]"
        }
      ],
      "stateMutability": "pure",
      "type": "function"
    },
    {
      "inputs": [
        {
          "internalType": "uint256",
          "name": "amount",
          "type": "uint256"
        }
      ],
      "name": "depositBond",
      "outputs": [],
      "stateMutability": "nonpayable",
      "type": "function"
    },
    {
      "inputs": [
        {
          "internalType": "uint256",
          "name": "index",
          "type": "uint256"
        }
      ],
      "name": "dispute",
      "outputs": [],
      "stateMutability": "nonpayable",
      "type": "function"
    },
    {
      "inputs": [],
      "name": "getDisputeList",
      "outputs": [
        {
          "components": [
            {
              "internalType": "address",
              "name": "userAddress",
              "type": "address"
            },
            {
              "internalType": "uint256",
              "name": "index",
              "type": "uint256"
            }
          ],
          "internalType": "struct PheasantNetworkBridgeChild.UserTrade[]",
          "name": "",
          "type": "tuple[]"
        }
      ],
      "stateMutability": "view",
      "type": "function"
    },
    {
      "inputs": [
        {
          "internalType": "address",
          "name": "user",
          "type": "address"
        },
        {
          "internalType": "uint256",
          "name": "index",
          "type": "uint256"
        }
      ],
      "name": "getEvidence",
      "outputs": [
        {
          "components": [
            {
              "internalType": "bytes",
              "name": "blockNumber",
              "type": "bytes"
            },
            {
              "internalType": "bytes32",
              "name": "blockHash",
              "type": "bytes32"
            },
            {
              "internalType": "bytes[]",
              "name": "txReceiptProof",
              "type": "bytes[]"
            },
            {
              "internalType": "bytes[]",
              "name": "txProof",
              "type": "bytes[]"
            },
            {
              "internalType": "bytes",
              "name": "transaction",
              "type": "bytes"
            },
            {
              "internalType": "uint8[]",
              "name": "txDataSpot",
              "type": "uint8[]"
            },
            {
              "internalType": "uint8[]",
              "name": "path",
              "type": "uint8[]"
            },
            {
              "internalType": "bytes",
              "name": "txReceipt",
              "type": "bytes"
            },
            {
              "internalType": "bytes[]",
              "name": "rawTx",
              "type": "bytes[]"
            },
            {
              "internalType": "bytes[]",
              "name": "rawBlockHeader",
              "type": "bytes[]"
            }
          ],
          "internalType": "struct PheasantNetworkBridgeChild.Evidence",
          "name": "",
          "type": "tuple"
        }
      ],
      "stateMutability": "view",
      "type": "function"
    },
    {
      "inputs": [
        {
          "internalType": "address",
          "name": "account",
          "type": "address"
        }
      ],
      "name": "getRelayerBondBalance",
      "outputs": [
        {
          "internalType": "uint256",
          "name": "",
          "type": "uint256"
        }
      ],
      "stateMutability": "view",
      "type": "function"
    },
    {
      "inputs": [
        {
          "internalType": "uint8",
          "name": "tokenTypeIndex",
          "type": "uint8"
        },
        {
          "internalType": "bool",
          "name": "isL2",
          "type": "bool"
        }
      ],
      "name": "getTokenAddress",
      "outputs": [
        {
          "internalType": "address",
          "name": "",
          "type": "address"
        }
      ],
      "stateMutability": "view",
      "type": "function"
    },
    {
      "inputs": [
        {
          "internalType": "address",
          "name": "user",
          "type": "address"
        },
        {
          "internalType": "uint256",
          "name": "index",
          "type": "uint256"
        }
      ],
      "name": "getTrade",
      "outputs": [
        {
          "components": [
            {
              "internalType": "uint256",
              "name": "index",
              "type": "uint256"
            },
            {
              "internalType": "address",
              "name": "user",
              "type": "address"
            },
            {
              "internalType": "uint8",
              "name": "tokenTypeIndex",
              "type": "uint8"
            },
            {
              "internalType": "uint256",
              "name": "amount",
              "type": "uint256"
            },
            {
              "internalType": "uint256",
              "name": "timestamp",
              "type": "uint256"
            },
            {
              "internalType": "address",
              "name": "to",
              "type": "address"
            },
            {
              "internalType": "address",
              "name": "relayer",
              "type": "address"
            },
            {
              "internalType": "uint8",
              "name": "status",
              "type": "uint8"
            },
            {
              "internalType": "uint256",
              "name": "fee",
              "type": "uint256"
            },
            {
              "internalType": "uint256",
              "name": "disputeTimestamp",
              "type": "uint256"
            }
          ],
          "internalType": "struct PheasantNetworkBridgeChild.Trade",
          "name": "",
          "type": "tuple"
        }
      ],
      "stateMutability": "view",
      "type": "function"
    },
    {
      "inputs": [],
      "name": "getTradeList",
      "outputs": [
        {
          "components": [
            {
              "internalType": "uint256",
              "name": "index",
              "type": "uint256"
            },
            {
              "internalType": "address",
              "name": "user",
              "type": "address"
            },
            {
              "internalType": "uint8",
              "name": "tokenTypeIndex",
              "type": "uint8"
            },
            {
              "internalType": "uint256",
              "name": "amount",
              "type": "uint256"
            },
            {
              "internalType": "uint256",
              "name": "timestamp",
              "type": "uint256"
            },
            {
              "internalType": "address",
              "name": "to",
              "type": "address"
            },
            {
              "internalType": "address",
              "name": "relayer",
              "type": "address"
            },
            {
              "internalType": "uint8",
              "name": "status",
              "type": "uint8"
            },
            {
              "internalType": "uint256",
              "name": "fee",
              "type": "uint256"
            },
            {
              "internalType": "uint256",
              "name": "disputeTimestamp",
              "type": "uint256"
            }
          ],
          "internalType": "struct PheasantNetworkBridgeChild.Trade[]",
          "name": "",
          "type": "tuple[]"
        }
      ],
      "stateMutability": "view",
      "type": "function"
    },
    {
      "inputs": [
        {
          "components": [
            {
              "internalType": "address",
              "name": "userAddress",
              "type": "address"
            },
            {
              "internalType": "uint256",
              "name": "index",
              "type": "uint256"
            }
          ],
          "internalType": "struct PheasantNetworkBridgeChild.UserTrade[]",
          "name": "userTrades",
          "type": "tuple[]"
        }
      ],
      "name": "getTrades",
      "outputs": [
        {
          "components": [
            {
              "internalType": "uint256",
              "name": "index",
              "type": "uint256"
            },
            {
              "internalType": "address",
              "name": "user",
              "type": "address"
            },
            {
              "internalType": "uint8",
              "name": "tokenTypeIndex",
              "type": "uint8"
            },
            {
              "internalType": "uint256",
              "name": "amount",
              "type": "uint256"
            },
            {
              "internalType": "uint256",
              "name": "timestamp",
              "type": "uint256"
            },
            {
              "internalType": "address",
              "name": "to",
              "type": "address"
            },
            {
              "internalType": "address",
              "name": "relayer",
              "type": "address"
            },
            {
              "internalType": "uint8",
              "name": "status",
              "type": "uint8"
            },
            {
              "internalType": "uint256",
              "name": "fee",
              "type": "uint256"
            },
            {
              "internalType": "uint256",
              "name": "disputeTimestamp",
              "type": "uint256"
            }
          ],
          "internalType": "struct PheasantNetworkBridgeChild.Trade[]",
          "name": "",
          "type": "tuple[]"
        }
      ],
      "stateMutability": "view",
      "type": "function"
    },
    {
      "inputs": [
        {
          "internalType": "address",
          "name": "account",
          "type": "address"
        }
      ],
      "name": "getUserDepositBalance",
      "outputs": [
        {
          "internalType": "uint256",
          "name": "",
          "type": "uint256"
        }
      ],
      "stateMutability": "view",
      "type": "function"
    },
    {
      "inputs": [],
      "name": "getUserTradeList",
      "outputs": [
        {
          "components": [
            {
              "internalType": "address",
              "name": "userAddress",
              "type": "address"
            },
            {
              "internalType": "uint256",
              "name": "index",
              "type": "uint256"
            }
          ],
          "internalType": "struct PheasantNetworkBridgeChild.UserTrade[]",
          "name": "",
          "type": "tuple[]"
        }
      ],
      "stateMutability": "view",
      "type": "function"
    },
    {
      "inputs": [
        {
          "internalType": "uint256",
          "name": "_index",
          "type": "uint256"
        }
      ],
      "name": "getUserTradeListByIndex",
      "outputs": [
        {
          "components": [
            {
              "internalType": "address",
              "name": "userAddress",
              "type": "address"
            },
            {
              "internalType": "uint256",
              "name": "index",
              "type": "uint256"
            }
          ],
          "internalType": "struct PheasantNetworkBridgeChild.UserTrade[]",
          "name": "",
          "type": "tuple[]"
        }
      ],
      "stateMutability": "view",
      "type": "function"
    },
    {
      "inputs": [
        {
          "internalType": "uint256",
          "name": "amount",
          "type": "uint256"
        },
        {
          "internalType": "address",
          "name": "to",
          "type": "address"
        },
        {
          "internalType": "uint256",
          "name": "fee",
          "type": "uint256"
        },
        {
          "internalType": "uint8",
          "name": "tokenTypeIndex",
          "type": "uint8"
        }
      ],
      "name": "newTrade",
      "outputs": [],
      "stateMutability": "nonpayable",
      "type": "function"
    },
    {
      "inputs": [],
      "name": "owner",
      "outputs": [
        {
          "internalType": "address",
          "name": "",
          "type": "address"
        }
      ],
      "stateMutability": "view",
      "type": "function"
    },
    {
      "inputs": [
        {
          "components": [
            {
              "internalType": "address",
              "name": "userAddress",
              "type": "address"
            },
            {
              "internalType": "uint256",
              "name": "index",
              "type": "uint256"
            }
          ],
          "internalType": "struct PheasantNetworkBridgeChild.UserTrade[]",
          "name": "userTrades",
          "type": "tuple[]"
        }
      ],
      "name": "refund",
      "outputs": [],
      "stateMutability": "nonpayable",
      "type": "function"
    },
    {
      "inputs": [],
      "name": "renounceOwnership",
      "outputs": [],
      "stateMutability": "nonpayable",
      "type": "function"
    },
    {
      "inputs": [
        {
          "internalType": "uint256",
          "name": "threshold",
          "type": "uint256"
        }
      ],
      "name": "setUserDepositThreshold",
      "outputs": [],
      "stateMutability": "nonpayable",
      "type": "function"
    },
    {
      "inputs": [
        {
          "internalType": "uint256",
          "name": "index",
          "type": "uint256"
        }
      ],
      "name": "slash",
      "outputs": [],
      "stateMutability": "nonpayable",
      "type": "function"
    },
    {
      "inputs": [
        {
          "internalType": "address",
          "name": "user",
          "type": "address"
        },
        {
          "internalType": "uint256",
          "name": "index",
          "type": "uint256"
        },
        {
          "components": [
            {
              "internalType": "bytes",
              "name": "blockNumber",
              "type": "bytes"
            },
            {
              "internalType": "bytes32",
              "name": "blockHash",
              "type": "bytes32"
            },
            {
              "internalType": "bytes[]",
              "name": "txReceiptProof",
              "type": "bytes[]"
            },
            {
              "internalType": "bytes[]",
              "name": "txProof",
              "type": "bytes[]"
            },
            {
              "internalType": "bytes",
              "name": "transaction",
              "type": "bytes"
            },
            {
              "internalType": "uint8[]",
              "name": "txDataSpot",
              "type": "uint8[]"
            },
            {
              "internalType": "uint8[]",
              "name": "path",
              "type": "uint8[]"
            },
            {
              "internalType": "bytes",
              "name": "txReceipt",
              "type": "bytes"
            },
            {
              "internalType": "bytes[]",
              "name": "rawTx",
              "type": "bytes[]"
            },
            {
              "internalType": "bytes[]",
              "name": "rawBlockHeader",
              "type": "bytes[]"
            }
          ],
          "internalType": "struct PheasantNetworkBridgeChild.Evidence",
          "name": "evidence",
          "type": "tuple"
        }
      ],
      "name": "submitEvidence",
      "outputs": [],
      "stateMutability": "nonpayable",
      "type": "function"
    },
    {
      "inputs": [
        {
          "internalType": "address",
          "name": "newOwner",
          "type": "address"
        }
      ],
      "name": "transferOwnership",
      "outputs": [],
      "stateMutability": "nonpayable",
      "type": "function"
    },
    {
      "inputs": [],
      "name": "withdrawBond",
      "outputs": [],
      "stateMutability": "nonpayable",
      "type": "function"
    },
    {
      "inputs": [
        {
          "internalType": "address",
          "name": "user",
          "type": "address"
        },
        {
          "internalType": "uint256",
          "name": "index",
          "type": "uint256"
        }
      ],
      "name": "helperBid",
      "outputs": [],
      "stateMutability": "nonpayable",
      "type": "function"
    },
    {
      "inputs": [
        {
          "internalType": "address",
          "name": "sender",
          "type": "address"
        },
        {
          "internalType": "uint256",
          "name": "index",
          "type": "uint256"
        },
        {
          "internalType": "address",
          "name": "user",
          "type": "address"
        },
        {
          "internalType": "uint8",
          "name": "tokenTypeIndex",
          "type": "uint8"
        },
        {
          "internalType": "uint256",
          "name": "amount",
          "type": "uint256"
        },
        {
          "internalType": "uint256",
          "name": "timestamp",
          "type": "uint256"
        },
        {
          "internalType": "address",
          "name": "to",
          "type": "address"
        },
        {
          "internalType": "address",
          "name": "relayer",
          "type": "address"
        },
        {
          "internalType": "uint8",
          "name": "status",
          "type": "uint8"
        },
        {
          "internalType": "uint256",
          "name": "fee",
          "type": "uint256"
        },
        {
          "internalType": "uint256",
          "name": "disputeTimestamp",
          "type": "uint256"
        },
        {
          "internalType": "bool",
          "name": "isDeposit",
          "type": "bool"
        }
      ],
      "name": "setUpTrade",
      "outputs": [],
      "stateMutability": "nonpayable",
      "type": "function"
    },
    {
      "inputs": [
        {
          "internalType": "address",
          "name": "user",
          "type": "address"
        },
        {
          "internalType": "uint256",
          "name": "index",
          "type": "uint256"
        },
        {
          "components": [
            {
              "internalType": "bytes",
              "name": "blockNumber",
              "type": "bytes"
            },
            {
              "internalType": "bytes32",
              "name": "blockHash",
              "type": "bytes32"
            },
            {
              "internalType": "bytes[]",
              "name": "txReceiptProof",
              "type": "bytes[]"
            },
            {
              "internalType": "bytes[]",
              "name": "txProof",
              "type": "bytes[]"
            },
            {
              "internalType": "bytes",
              "name": "transaction",
              "type": "bytes"
            },
            {
              "internalType": "uint8[]",
              "name": "txDataSpot",
              "type": "uint8[]"
            },
            {
              "internalType": "uint8[]",
              "name": "path",
              "type": "uint8[]"
            },
            {
              "internalType": "bytes",
              "name": "txReceipt",
              "type": "bytes"
            },
            {
              "internalType": "bytes[]",
              "name": "rawTx",
              "type": "bytes[]"
            },
            {
              "internalType": "bytes[]",
              "name": "rawBlockHeader",
              "type": "bytes[]"
            }
          ],
          "internalType": "struct PheasantNetworkBridgeChild.Evidence",
          "name": "evidence",
          "type": "tuple"
        }
      ],
      "name": "setUpEvidence",
      "outputs": [],
      "stateMutability": "nonpayable",
      "type": "function"
    },
    {
      "inputs": [
        {
          "internalType": "bytes",
          "name": "transaction",
          "type": "bytes"
        },
        {
          "internalType": "address",
          "name": "recipient",
          "type": "address"
        },
        {
          "internalType": "uint256",
          "name": "amount",
          "type": "uint256"
        }
      ],
      "name": "helperCheckTransferTx",
      "outputs": [
        {
          "internalType": "bool",
          "name": "",
          "type": "bool"
        }
      ],
      "stateMutability": "pure",
      "type": "function"
    },
    {
      "inputs": [
        {
          "internalType": "address",
          "name": "user",
          "type": "address"
        },
        {
          "internalType": "uint256",
          "name": "index",
          "type": "uint256"
        },
        {
          "components": [
            {
              "internalType": "bytes",
              "name": "blockNumber",
              "type": "bytes"
            },
            {
              "internalType": "bytes32",
              "name": "blockHash",
              "type": "bytes32"
            },
            {
              "internalType": "bytes[]",
              "name": "txReceiptProof",
              "type": "bytes[]"
            },
            {
              "internalType": "bytes[]",
              "name": "txProof",
              "type": "bytes[]"
            },
            {
              "internalType": "bytes",
              "name": "transaction",
              "type": "bytes"
            },
            {
              "internalType": "uint8[]",
              "name": "txDataSpot",
              "type": "uint8[]"
            },
            {
              "internalType": "uint8[]",
              "name": "path",
              "type": "uint8[]"
            },
            {
              "internalType": "bytes",
              "name": "txReceipt",
              "type": "bytes"
            },
            {
              "internalType": "bytes[]",
              "name": "rawTx",
              "type": "bytes[]"
            },
            {
              "internalType": "bytes[]",
              "name": "rawBlockHeader",
              "type": "bytes[]"
            }
          ],
          "internalType": "struct PheasantNetworkBridgeChild.Evidence",
          "name": "evidence",
          "type": "tuple"
        }
      ],
      "name": "helperWithdraw",
      "outputs": [],
      "stateMutability": "nonpayable",
      "type": "function"
    }
  ],
  "bytecode": "0x60806040523480156200001157600080fd5b5060405162004a0b38038062004a0b83398101604081905262000034916200014e565b8282826200004233620000cb565b82600060ff16815181106200005b576200005b6200023e565b6020908102919091018101516000805260039091527f3617319a054d772f909f7c479a2cebe5066e836a939412e32403c99029b92eff80546001600160a01b03199081166001600160a01b0393841617909155600493909355600180549093169116179055506200025492505050565b600080546001600160a01b038381166001600160a01b0319831681178455604051919092169283917f8be0079c531659141344cd1fd0a4f28419497f9722a3daafe3b4186f6b6457e09190a35050565b634e487b7160e01b600052604160045260246000fd5b80516001600160a01b03811681146200014957600080fd5b919050565b6000806000606084860312156200016457600080fd5b83516001600160401b03808211156200017c57600080fd5b818601915086601f8301126200019157600080fd5b8151602082821115620001a857620001a86200011b565b8160051b604051601f19603f83011681018181108682111715620001d057620001d06200011b565b60405292835281830193508481018201928a841115620001ef57600080fd5b948201945b838610156200021857620002088662000131565b85529482019493820193620001f4565b809850505080880151955050505050620002356040850162000131565b90509250925092565b634e487b7160e01b600052603260045260246000fd5b6147a780620002646000396000f3fe608060405234801561001057600080fd5b50600436106101d95760003560e01c8063715018a611610104578063b01a5b67116100a2578063e290454611610071578063e290454614610432578063ecccd0781461045b578063f2fde38b14610463578063feeab6aa1461047657600080fd5b8063b01a5b67146103ca578063b254ee4a146103dd578063ca142f75146103fd578063d62606231461041d57600080fd5b80639b8799e0116100de5780639b8799e01461037c5780639f07d68c1461038f578063a411aea6146103a4578063a805437f146103b757600080fd5b8063715018a61461035057806386d6282c146103585780638da5cb5b1461036b57600080fd5b806345bc4d101161017c5780635a6caffc1161014b5780635a6caffc1461030f5780635b498ee714610322578063651057741461033557806366eb9cec1461034857600080fd5b806345bc4d10146102ab5780634dcb05f9146102be57806356932ce8146102d157806358dc94de146102e457600080fd5b80632ebdd8c1116101b85780632ebdd8c1146102195780633c525e8d1461022c5780633e14390f1461026857806344ebba0d1461028b57600080fd5b80625a4111146101de5780630844f49a146101f357806309ec6cc714610206575b600080fd5b6101f16101ec366004613430565b610489565b005b6101f1610201366004613465565b6104c1565b6101f1610214366004613430565b6104f7565b6101f1610227366004613465565b610702565b61025561023a3660046134c3565b6001600160a01b031660009081526008602052604090205490565b6040519081526020015b60405180910390f35b61027b6102763660046134de565b610f59565b604051901515815260200161025f565b61029e6102993660046135fb565b610f70565b60405161025f91906136d6565b6101f16102b9366004613430565b611004565b6101f16102cc366004613430565b611276565b6101f16102df366004613783565b611360565b6102f76102f2366004613839565b611417565b6040516001600160a01b03909116815260200161025f565b6101f161031d366004613872565b611461565b6101f16103303660046138d6565b6114f4565b6101f1610343366004613992565b611665565b6101f161166f565b6101f16116d8565b6101f1610366366004613430565b61170e565b6000546001600160a01b03166102f7565b6101f161038a3660046139bc565b611a91565b610397611da4565b60405161025f9190613b27565b6101f16103b2366004613b76565b611e86565b6103976103c53660046138d6565b6121cc565b6101f16103d8366004613465565b61229d565b6103f06103eb366004613992565b6122a8565b60405161025f9190613c51565b61041061040b366004613992565b6129e3565b60405161025f9190613d70565b610425612b1f565b60405161025f9190613d7f565b6102556104403660046134c3565b6001600160a01b031660009081526007602052604090205490565b610425612b8b565b6101f16104713660046134c3565b612bff565b610425610484366004613430565b612c97565b6000546001600160a01b031633146104bc5760405162461bcd60e51b81526004016104b390613dca565b60405180910390fd5b600455565b6001600160a01b0383166000908152600660209081526040808320858452909152902081906104f082826141bd565b5050505050565b600061050333836129e3565b60e081015190915060ff161561055b5760405162461bcd60e51b815260206004820152601a60248201527f43616e27742063616e63656c2061667465722062696464696e6700000000000060448201526064016104b3565b606360e0820152336000908152600560205260409020805482919084908110610586576105866142c6565b600091825260208083208451600893909302019182558381015160018301805460408088015160ff908116600160a01b9081026001600160a81b03199485166001600160a01b0397881617179094556060808a0151600289015560808a01516003808a019190915560a08b01516004808b018054928a166001600160a01b03199093169290921790915560c08c015160058b01805460e08f015187169099029890971690891617969096179094556101008a0151600689015561012090990151600790970196909655888101519095168652909252928290205493850151915163a9059cbb60e01b815233918101919091526024810191909152911690819063a9059cbb906044015b602060405180830381600087803b1580156106a957600080fd5b505af11580156106bd573d6000803e3d6000fd5b505050506040513d601f19601f820116820180604052508101906106e191906142dc565b6106fd5760405162461bcd60e51b81526004016104b3906142f9565b505050565b600061070e84846129e3565b60e081015190915060ff166003146107595760405162461bcd60e51b815260206004820152600e60248201526d496e76616c69642053746174757360901b60448201526064016104b3565b60c08101516001600160a01b031633146107bf5760405162461bcd60e51b815260206004820152602160248201527f4f6e6c792052656c617965722063616e207375626d69742045766964656e63656044820152607360f81b60648201526084016104b3565b6107ee6107cf6080840184613dff565b8360a0015184610100015185606001516107e99190614320565b612d9b565b61082c5760405162461bcd60e51b815260206004820152600f60248201526e496e76616c6964205478204461746160881b60448201526064016104b3565b6001546001600160a01b0316633a161a466020840135610850610120860186613f8d565b6040518463ffffffff1660e01b815260040161086e939291906143e3565b60206040518083038186803b15801561088657600080fd5b505afa15801561089a573d6000803e3d6000fd5b505050506040513d601f19601f820116820180604052508101906108be91906142dc565b6109005760405162461bcd60e51b815260206004820152601360248201527224b73b30b634b210213637b1b5a432b0b232b960691b60448201526064016104b3565b6001546001600160a01b0316638c6ffffe61091e6080850185613dff565b60405161092c9291906143fd565b6040519081900390206109426060860186613f8d565b610950610120880188613f8d565b6004818110610961576109616142c6565b90506020028101906109739190613dff565b61098060c08a018a613f8d565b6040518863ffffffff1660e01b81526004016109a2979695949392919061440d565b60206040518083038186803b1580156109ba57600080fd5b505afa1580156109ce573d6000803e3d6000fd5b505050506040513d601f19601f820116820180604052508101906109f291906142dc565b610a315760405162461bcd60e51b815260206004820152601060248201526f24b73b30b634b2102a3c10283937b7b360811b60448201526064016104b3565b6001546001600160a01b03166350328bf9610a4f6080850185613dff565b610a5d610100870187613f8d565b6040518563ffffffff1660e01b8152600401610a7c9493929190614486565b60206040518083038186803b158015610a9457600080fd5b505afa158015610aa8573d6000803e3d6000fd5b505050506040513d601f19601f82011682018060405250810190610acc91906142dc565b610b0e5760405162461bcd60e51b8152602060048201526013602482015272496e76616c696420547820656c656d656e747360681b60448201526064016104b3565b60015460c08201516001600160a01b039091169063a47615c790610b36610100860186613f8d565b6040518463ffffffff1660e01b8152600401610b54939291906144ad565b60206040518083038186803b158015610b6c57600080fd5b505afa158015610b80573d6000803e3d6000fd5b505050506040513d601f19601f82011682018060405250810190610ba491906142dc565b610be65760405162461bcd60e51b8152602060048201526013602482015272496e76616c696420547820656c656d656e747360681b60448201526064016104b3565b600073__RLPDecoder____________________________63414928da610c0c8580613dff565b60006040518463ffffffff1660e01b8152600401610c2c939291906144d2565b60206040518083038186803b158015610c4457600080fd5b505af4158015610c58573d6000803e3d6000fd5b505050506040513d601f19601f82011682018060405250810190610c7c91906144f6565b600154604051632c57625560e01b815260208601356004820152602481018390529192506001600160a01b031690632c5762559060440160206040518083038186803b158015610ccb57600080fd5b505afa158015610cdf573d6000803e3d6000fd5b505050506040513d601f19601f82011682018060405250810190610d0391906142dc565b610d435760405162461bcd60e51b8152602060048201526011602482015270092dcecc2d8d2c840c4d8dec6d690c2e6d607b1b60448201526064016104b3565b600560e083018190526001600160a01b038616600090815260209190915260409020805483919086908110610d7a57610d7a6142c6565b6000918252602080832084516008938402909101908155848201516001820180546040808901516001600160a01b039485166001600160a81b031993841617600160a01b60ff92831681029190911790945560608a0151600287015560808a015160038088019190915560a08b0151600480890180546001600160a01b0319169289169290921790915560c08c015160058901805460e08f0151928a1697169690961793169095029190911790925561010089015160068601556101209098015160079094019390935585805291835260008051602061475283398151915254888401805183168752949093528585205493518116855285852094909455935163a9059cbb60e01b815233948101949094526024840182905290911691829063a9059cbb90604401602060405180830381600087803b158015610ebc57600080fd5b505af1158015610ed0573d6000803e3d6000fd5b505050506040513d601f19601f82011682018060405250810190610ef491906142dc565b610f105760405162461bcd60e51b81526004016104b3906142f9565b6040518681526001600160a01b0388169033907fd6b68229c4e9a8dc853d9f22e366175f8f212c20f9aa87308b383ef4ea294b109060200160405180910390a350505050505050565b6000610f6785858585612d9b565b95945050505050565b60405163e5c5e9a360e01b815260609073__RLPDecoder____________________________9063e5c5e9a390610faa90859060040161450f565b60006040518083038186803b158015610fc257600080fd5b505af4158015610fd6573d6000803e3d6000fd5b505050506040513d6000823e601f3d908101601f19168201604052610ffe9190810190614522565b92915050565b600061101033836129e3565b60e081015190915060ff1660031461102757600080fd5b610120810151429061103b90610e10612edf565b1061104557600080fd5b33600081815260086020908152604080832080549084905560c0860180516001600160a01b03908116865260078552838620549151168552828520859055600460e088015294845260059092529091208054919291849190869081106110ad576110ad6142c6565b6000918252602091829020835160089290920201908155828201516001820180546040808701516001600160a01b039485166001600160a81b031993841617600160a01b60ff928316810291909117909455606088015160028701556080880151600387015560a08801516004870180546001600160a01b03191691871691909117905560c08089015160058801805460e08c015192891696169590951792169094021790915561010086015160068501556101209095015160079093019290925590860151925187815292169133917f41e6a64fa7aa5d67783457215f3577addb2b6ffe5476a8939954fa617f6b785f910160405180910390a3600080526003602052600080516020614752833981519152546001600160a01b03168063a9059cbb336111db8686612edf565b6040516001600160e01b031960e085901b1681526001600160a01b03909216600483015260248201526044015b602060405180830381600087803b15801561122257600080fd5b505af1158015611236573d6000803e3d6000fd5b505050506040513d601f19601f8201168201806040525081019061125a91906142dc565b6104f05760405162461bcd60e51b81526004016104b3906142f9565b336000908152600760205260409020546112909082612edf565b33600081815260076020908152604080832094909455908052600390526000805160206147528339815191525491516323b872dd60e01b81526001600160a01b039092169182916323b872dd916112ee91903090879060040161460e565b602060405180830381600087803b15801561130857600080fd5b505af115801561131c573d6000803e3d6000fd5b505050506040513d601f19601f8201168201806040525081019061134091906142dc565b61135c5760405162461bcd60e51b81526004016104b3906142f9565b5050565b6000546001600160a01b0316331461138a5760405162461bcd60e51b81526004016104b390613dca565b60005b838110156104f0576114058585838181106113aa576113aa6142c6565b6113c092602060409092020190810191506134c3565b8686848181106113d2576113d26142c6565b905060400201602001358585858181106113ee576113ee6142c6565b90506020028101906114009190614632565b612ef2565b8061140f81614653565b91505061138d565b60008115611441575060ff82166000908152600360205260409020546001600160a01b0316610ffe565b505060ff166000908152600260205260409020546001600160a01b031690565b6000546001600160a01b0316331461148b5760405162461bcd60e51b81526004016104b390613dca565b60005b818110156106fd576114e28383838181106114ab576114ab6142c6565b6114c192602060409092020190810191506134c3565b8484848181106114d3576114d36142c6565b90506040020160200135613150565b806114ec81614653565b91505061148e565b6000546001600160a01b0316331461151e5760405162461bcd60e51b81526004016104b390613dca565b805160005b818110156106fd576000611571848381518110611542576115426142c6565b602002602001015160000151858481518110611560576115606142c6565b6020026020010151602001516129e3565b60e081015190915060ff1660021480611591575060e081015160ff166063145b1561159c5750611650565b60408181015160ff166000908152600360209081529082902054908301516060840151925163a9059cbb60e01b81526001600160a01b03918216600482015260248101939093521690819063a9059cbb90604401602060405180830381600087803b15801561160a57600080fd5b505af115801561161e573d6000803e3d6000fd5b505050506040513d601f19601f8201168201806040525081019061164291906142dc565b61164d575050505050565b50505b8061165a81614653565b915050611523565b50565b61135c8282613150565b336000818152600760209081526040808320805490849055928052600390915260008051602061475283398151915254905163a9059cbb60e01b815260048101939093526024830182905290916001600160a01b0390911690819063a9059cbb906044016112ee565b6000546001600160a01b031633146117025760405162461bcd60e51b81526004016104b390613dca565b61170c60006132a9565b565b600061171a33836129e3565b60e081015190915060ff166002146117745760405162461bcd60e51b815260206004820152601d60248201527f43616e27742064697370757465206265666f726520776974686472617700000060448201526064016104b3565b6080810151429061178790610e10612edf565b116117ec5760405162461bcd60e51b815260206004820152602f60248201527f4469737075746573206d7573742072756e2077697468696e206f6e6520686f7560448201526e1c881bd9881dda5d1a191c985dd85b608a1b60648201526084016104b3565b6004543360009081526008602052604090205461180891612edf565b33600081815260086020908152604080832094909455600360e08601524261012086015291815260059091522080548291908490811061184a5761184a6142c6565b90600052602060002090600802016000820151816000015560208201518160010160006101000a8154816001600160a01b0302191690836001600160a01b0316021790555060408201518160010160146101000a81548160ff021916908360ff160217905550606082015181600201556080820151816003015560a08201518160040160006101000a8154816001600160a01b0302191690836001600160a01b0316021790555060c08201518160050160006101000a8154816001600160a01b0302191690836001600160a01b0316021790555060e08201518160050160146101000a81548160ff021916908360ff16021790555061010082015181600601556101208201518160070155905050600a60008260c001516001600160a01b03166001600160a01b031681526020019081526020016000206040518060400160405280336001600160a01b0316815260200184815250908060018154018082558091505060019003906000526020600020906002020160009091909190915060008201518160000160006101000a8154816001600160a01b0302191690836001600160a01b03160217905550602082015181600101555050336001600160a01b03167fa565b03b51c363a9b16ed01ba14aa3dc13e7edece0764e7ebbd640edc9836c7083604051611a3c91815260200190565b60405180910390a260008052600360205260008051602061475283398151915254600480546040516323b872dd60e01b81526001600160a01b039093169283926323b872dd9261068f9233923092910161460e565b600560008d6001600160a01b03166001600160a01b031681526020019081526020016000206040518061014001604052808d81526020018c6001600160a01b031681526020018b60ff1681526020018a8152602001898152602001886001600160a01b03168152602001876001600160a01b031681526020018660ff1681526020018581526020018481525090806001815401808255809150506001900390600052602060002090600802016000909190919091506000820151816000015560208201518160010160006101000a8154816001600160a01b0302191690836001600160a01b0316021790555060408201518160010160146101000a81548160ff021916908360ff160217905550606082015181600201556080820151816003015560a08201518160040160006101000a8154816001600160a01b0302191690836001600160a01b0316021790555060c08201518160050160006101000a8154816001600160a01b0302191690836001600160a01b0316021790555060e08201518160050160146101000a81548160ff021916908360ff16021790555061010082015181600601556101208201518160070155505060096040518060400160405280336001600160a01b03168152602001600160056000336001600160a01b03166001600160a01b0316815260200190815260200160002080549050611c969190614320565b90528154600180820184556000938452602093849020835160029093020180546001600160a01b0319166001600160a01b0390931692909217825591909201519101558015611d965760ff8916600090815260036020526040908190205490516323b872dd60e01b81526001600160a01b039091169081906323b872dd90611d2690339030908e9060040161460e565b602060405180830381600087803b158015611d4057600080fd5b505af1158015611d54573d6000803e3d6000fd5b505050506040513d601f19601f82011682018060405250810190611d7891906142dc565b611d945760405162461bcd60e51b81526004016104b3906142f9565b505b505050505050505050505050565b336000908152600560209081526040808320805482518185028101850190935280835260609492939192909184015b82821015611e7d576000848152602090819020604080516101408101825260088602909201805483526001808201546001600160a01b038082168688015260ff600160a01b9283900481169587019590955260028401546060870152600384015460808701526004840154811660a0870152600584015490811660c08701520490921660e08401526006810154610100840152600701546101208301529083529092019101611dd3565b50505050905090565b60ff811615611ed75760405162461bcd60e51b815260206004820152601860248201527f4f6e6c792045544820537570706f727420666f72206e6f77000000000000000060448201526064016104b3565b60056000336001600160a01b03166001600160a01b0316815260200190815260200160002060405180610140016040528060056000336001600160a01b03166001600160a01b03168152602001908152602001600020805490508152602001336001600160a01b031681526020018360ff168152602001868152602001428152602001856001600160a01b0316815260200160006001600160a01b03168152602001600060ff1681526020018481526020014281525090806001815401808255809150506001900390600052602060002090600802016000909190919091506000820151816000015560208201518160010160006101000a8154816001600160a01b0302191690836001600160a01b0316021790555060408201518160010160146101000a81548160ff021916908360ff160217905550606082015181600201556080820151816003015560a08201518160040160006101000a8154816001600160a01b0302191690836001600160a01b0316021790555060c08201518160050160006101000a8154816001600160a01b0302191690836001600160a01b0316021790555060e08201518160050160146101000a81548160ff021916908360ff16021790555061010082015181600601556101208201518160070155505060096040518060400160405280336001600160a01b03168152602001600160056000336001600160a01b03166001600160a01b03168152602001908152602001600020805490506121069190614320565b90528154600180820184556000938452602093849020835160029093020180546001600160a01b0319166001600160a01b03909316929092178255918301519101556040805160ff8416815291820186905233917fe84a95d88691b7f08c7acf6f6e2bc286b991a1a089f6a4717728af31ee5b4b6e910160405180910390a260ff8116600090815260036020526040908190205490516323b872dd60e01b81526001600160a01b039091169081906323b872dd9061120890339030908a9060040161460e565b80516060906000816001600160401b038111156121eb576121eb613566565b60405190808252806020026020018201604052801561222457816020015b6122116133bc565b8152602001906001900390816122095790505b50905060005b8281101561229557612265858281518110612247576122476142c6565b602002602001015160000151868381518110611560576115606142c6565b828281518110612277576122776142c6565b6020026020010181905250808061228d90614653565b91505061222a565b509392505050565b6106fd838383612ef2565b612301604051806101400160405280606081526020016000801916815260200160608152602001606081526020016060815260200160608152602001606081526020016060815260200160608152602001606081525090565b60408051602080820183526000918290526001600160a01b038616825260068152828220858352905281902090517fc5d2460186f7233c927e7db2dcc703c0e500b653ca82273b7bfad8045d85a4709161235a9161466e565b6040518091039020141561239e5760405162461bcd60e51b815260206004820152600b60248201526a4e6f2045766964656e636560a81b60448201526064016104b3565b6001600160a01b038316600090815260066020908152604080832085845290915290819020815161014081019092528054829082906123dc90613e45565b80601f016020809104026020016040519081016040528092919081815260200182805461240890613e45565b80156124555780601f1061242a57610100808354040283529160200191612455565b820191906000526020600020905b81548152906001019060200180831161243857829003601f168201915b505050505081526020016001820154815260200160028201805480602002602001604051908101604052809291908181526020016000905b828210156125395783829060005260206000200180546124ac90613e45565b80601f01602080910402602001604051908101604052809291908181526020018280546124d890613e45565b80156125255780601f106124fa57610100808354040283529160200191612525565b820191906000526020600020905b81548152906001019060200180831161250857829003601f168201915b50505050508152602001906001019061248d565b50505050815260200160038201805480602002602001604051908101604052809291908181526020016000905b8282101561261257838290600052602060002001805461258590613e45565b80601f01602080910402602001604051908101604052809291908181526020018280546125b190613e45565b80156125fe5780601f106125d3576101008083540402835291602001916125fe565b820191906000526020600020905b8154815290600101906020018083116125e157829003601f168201915b505050505081526020019060010190612566565b50505050815260200160048201805461262a90613e45565b80601f016020809104026020016040519081016040528092919081815260200182805461265690613e45565b80156126a35780601f10612678576101008083540402835291602001916126a3565b820191906000526020600020905b81548152906001019060200180831161268657829003601f168201915b505050505081526020016005820180548060200260200160405190810160405280929190818152602001828054801561271957602002820191906000526020600020906000905b825461010083900a900460ff168152602060019283018181049485019490930390920291018084116126ea5790505b505050505081526020016006820180548060200260200160405190810160405280929190818152602001828054801561278f57602002820191906000526020600020906000905b825461010083900a900460ff168152602060019283018181049485019490930390920291018084116127605790505b505050505081526020016007820180546127a890613e45565b80601f01602080910402602001604051908101604052809291908181526020018280546127d490613e45565b80156128215780601f106127f657610100808354040283529160200191612821565b820191906000526020600020905b81548152906001019060200180831161280457829003601f168201915b5050505050815260200160088201805480602002602001604051908101604052809291908181526020016000905b828210156128fb57838290600052602060002001805461286e90613e45565b80601f016020809104026020016040519081016040528092919081815260200182805461289a90613e45565b80156128e75780601f106128bc576101008083540402835291602001916128e7565b820191906000526020600020905b8154815290600101906020018083116128ca57829003601f168201915b50505050508152602001906001019061284f565b50505050815260200160098201805480602002602001604051908101604052809291908181526020016000905b828210156129d457838290600052602060002001805461294790613e45565b80601f016020809104026020016040519081016040528092919081815260200182805461297390613e45565b80156129c05780601f10612995576101008083540402835291602001916129c0565b820191906000526020600020905b8154815290600101906020018083116129a357829003601f168201915b505050505081526020019060010190612928565b50505091525090949350505050565b6129eb6133bc565b82826129f88160016146e0565b6001600160a01b0383166000908152600560205260409020541015612a515760405162461bcd60e51b815260206004820152600f60248201526e4e6f2054726164652045786973747360881b60448201526064016104b3565b6001600160a01b0385166000908152600560205260409020805485908110612a7b57612a7b6142c6565b6000918252602091829020604080516101408101825260089093029091018054835260018101546001600160a01b038082169585019590955260ff600160a01b9182900481169385019390935260028201546060850152600382015460808501526004820154851660a0850152600582015494851660c08501529093041660e082015260068201546101008201526007909101546101208201529250505092915050565b60606009805480602002602001604051908101604052809291908181526020016000905b82821015611e7d576000848152602090819020604080518082019091526002850290910180546001600160a01b03168252600190810154828401529083529092019101612b43565b336000908152600a60209081526040808320805482518185028101850190935280835260609492939192909184018215611e7d576000848152602090819020604080518082019091526002850290910180546001600160a01b03168252600190810154828401529083529092019101612b43565b6000546001600160a01b03163314612c295760405162461bcd60e51b81526004016104b390613dca565b6001600160a01b038116612c8e5760405162461bcd60e51b815260206004820152602660248201527f4f776e61626c653a206e6577206f776e657220697320746865207a65726f206160448201526564647265737360d01b60648201526084016104b3565b611662816132a9565b600954606090600090612cab908490614320565b90506000816001600160401b03811115612cc757612cc7613566565b604051908082528060200260200182016040528015612d0c57816020015b6040805180820190915260008082526020820152815260200190600190039081612ce55790505b50905060005b82811015612295576009612d2682876146e0565b81548110612d3657612d366142c6565b60009182526020918290206040805180820190915260029092020180546001600160a01b0316825260010154918101919091528251839083908110612d7d57612d7d6142c6565b60200260200101819052508080612d9390614653565b915050612d12565b600080612de8612dae866001818a6146f8565b8080601f016020809104026020016040519081016040528093929190818152602001838380828437600092019190915250610f7092505050565b9050600081600681518110612dff57612dff6142c6565b60200260200101519050600082600581518110612e1e57612e1e6142c6565b60200260200101519050600082516020612e389190614320565b6001600160401b03811115612e4f57612e4f613566565b6040519080825280601f01601f191660200182016040528015612e79576020820181803683370190505b509050866001600160a01b0316612e918360006132f9565b6001600160a01b0316148015612ed2575085612ecf8285604051602001612eb9929190614722565b604051602081830303815290604052600061335e565b10155b9998505050505050505050565b6000612eeb82846146e0565b9392505050565b6000612efe84846129e3565b60e081015190915060ff16600114612f165750505050565b60c08101516001600160a01b03163314612f305750505050565b612f406107cf6080840184613dff565b612f4a5750505050565b600260e08201526001600160a01b038416600090815260066020908152604080832086845290915290208290612f8082826141bd565b50506001600160a01b0384166000908152600560205260409020805482919085908110612faf57612faf6142c6565b6000918252602091829020835160089290920201908155828201516001820180546040808701516001600160a01b039485166001600160a81b031993841617600160a01b60ff928316810291909117909455606088015160028701556080880151600387015560a08801516004870180546001600160a01b03191691871691909117905560c088015160058701805460e08b0151928816951694909417911690930292909217905561010085015160068401556101209094015160079092019190915591518581529186169133917f9b1bfa7fa9ee420a16e124f794c35ac9f90472acc99140eb2f6447c714cad8eb910160405180910390a360408181015160ff1660009081526003602052819020546060830151915163a9059cbb60e01b815233600482015260248101929092526001600160a01b031690819063a9059cbb90604401602060405180830381600087803b15801561310d57600080fd5b505af1158015613121573d6000803e3d6000fd5b505050506040513d601f19601f8201168201806040525081019061314591906142dc565b6104f0575050505050565b600061315c83836129e3565b60e081015190915060ff161561317157505050565b3360c0820152600160e08201526001600160a01b03831660009081526005602052604090208054829190849081106131ab576131ab6142c6565b6000918252602091829020835160089290920201908155828201516001820180546040808701516001600160a01b039485166001600160a81b031993841617600160a01b60ff928316810291909117909455606088015160028701556080880151600387015560a08801516004870180546001600160a01b03191691871691909117905560c088015160058701805460e08b0151928816951694909417911690930292909217905561010085015160068401556101209094015160079092019190915591518481529185169133917f842e4ae7da4b79045ffc21a8cb68d8abad9705bff11e838c1623bb83f243c626910160405180910390a3505050565b600080546001600160a01b038381166001600160a01b0319831681178455604051919092169283917f8be0079c531659141344cd1fd0a4f28419497f9722a3daafe3b4186f6b6457e09190a35050565b60006133068260146146e0565b8351101561334e5760405162461bcd60e51b8152602060048201526015602482015274746f416464726573735f6f75744f66426f756e647360581b60448201526064016104b3565b500160200151600160601b900490565b600061336b8260206146e0565b835110156133b35760405162461bcd60e51b8152602060048201526015602482015274746f55696e743235365f6f75744f66426f756e647360581b60448201526064016104b3565b50016020015190565b6040518061014001604052806000815260200160006001600160a01b03168152602001600060ff168152602001600081526020016000815260200160006001600160a01b0316815260200160006001600160a01b03168152602001600060ff16815260200160008152602001600081525090565b60006020828403121561344257600080fd5b5035919050565b80356001600160a01b038116811461346057600080fd5b919050565b60008060006060848603121561347a57600080fd5b61348384613449565b92506020840135915060408401356001600160401b038111156134a557600080fd5b840161014081870312156134b857600080fd5b809150509250925092565b6000602082840312156134d557600080fd5b612eeb82613449565b600080600080606085870312156134f457600080fd5b84356001600160401b038082111561350b57600080fd5b818701915087601f83011261351f57600080fd5b81358181111561352e57600080fd5b88602082850101111561354057600080fd5b6020928301965094506135569187019050613449565b9396929550929360400135925050565b634e487b7160e01b600052604160045260246000fd5b604080519081016001600160401b038111828210171561359e5761359e613566565b60405290565b604051601f8201601f191681016001600160401b03811182821017156135cc576135cc613566565b604052919050565b60006001600160401b038211156135ed576135ed613566565b50601f01601f191660200190565b60006020828403121561360d57600080fd5b81356001600160401b0381111561362357600080fd5b8201601f8101841361363457600080fd5b8035613647613642826135d4565b6135a4565b81815285602083850101111561365c57600080fd5b81602084016020830137600091810160200191909152949350505050565b60005b8381101561369557818101518382015260200161367d565b838111156136a4576000848401525b50505050565b600081518084526136c281602086016020860161367a565b601f01601f19169290920160200192915050565b6000602080830181845280855180835260408601915060408160051b870101925083870160005b8281101561372b57603f198886030184526137198583516136aa565b945092850192908501906001016136fd565b5092979650505050505050565b60008083601f84011261374a57600080fd5b5081356001600160401b0381111561376157600080fd5b6020830191508360208260061b850101111561377c57600080fd5b9250929050565b6000806000806040858703121561379957600080fd5b84356001600160401b03808211156137b057600080fd5b6137bc88838901613738565b909650945060208701359150808211156137d557600080fd5b818701915087601f8301126137e957600080fd5b8135818111156137f857600080fd5b8860208260051b850101111561380d57600080fd5b95989497505060200194505050565b60ff8116811461166257600080fd5b801515811461166257600080fd5b6000806040838503121561384c57600080fd5b82356138578161381c565b915060208301356138678161382b565b809150509250929050565b6000806020838503121561388557600080fd5b82356001600160401b0381111561389b57600080fd5b6138a785828601613738565b90969095509350505050565b60006001600160401b038211156138cc576138cc613566565b5060051b60200190565b600060208083850312156138e957600080fd5b82356001600160401b038111156138ff57600080fd5b8301601f8101851361391057600080fd5b803561391e613642826138b3565b81815260069190911b8201830190838101908783111561393d57600080fd5b928401925b82841015613987576040848903121561395b5760008081fd5b61396361357c565b61396c85613449565b81528486013586820152825260409093019290840190613942565b979650505050505050565b600080604083850312156139a557600080fd5b6139ae83613449565b946020939093013593505050565b6000806000806000806000806000806000806101808d8f0312156139df57600080fd5b6139e88d613449565b9b5060208d01359a506139fd60408e01613449565b995060608d0135613a0d8161381c565b985060808d0135975060a08d01359650613a2960c08e01613449565b9550613a3760e08e01613449565b94506101008d0135613a488161381c565b93506101208d013592506101408d013591506101608d0135613a698161382b565b809150509295989b509295989b509295989b565b805182526020810151613a9b60208401826001600160a01b03169052565b506040810151613ab0604084018260ff169052565b50606081015160608301526080810151608083015260a0810151613adf60a08401826001600160a01b03169052565b5060c0810151613afa60c08401826001600160a01b03169052565b5060e0810151613b0f60e084018260ff169052565b50610100818101519083015261012090810151910152565b6020808252825182820181905260009190848201906040850190845b81811015613b6a57613b56838551613a7d565b928401926101409290920191600101613b43565b50909695505050505050565b60008060008060808587031215613b8c57600080fd5b84359350613b9c60208601613449565b9250604085013591506060850135613bb38161381c565b939692955090935050565b600081518084526020808501808196508360051b8101915082860160005b85811015613c06578284038952613bf48483516136aa565b98850198935090840190600101613bdc565b5091979650505050505050565b600081518084526020808501945080840160005b83811015613c4657815160ff1687529582019590820190600101613c27565b509495945050505050565b6020815260008251610140806020850152613c706101608501836136aa565b9150602085015160408501526040850151601f1980868503016060870152613c988483613bbe565b93506060870151915080868503016080870152613cb58483613bbe565b935060808701519150808685030160a0870152613cd284836136aa565b935060a08701519150808685030160c0870152613cef8483613c13565b935060c08701519150808685030160e0870152613d0c8483613c13565b935060e08701519150610100818786030181880152613d2b85846136aa565b945080880151925050610120818786030181880152613d4a8584613bbe565b908801518782039092018488015293509050613d668382613bbe565b9695505050505050565b6101408101610ffe8284613a7d565b602080825282518282018190526000919060409081850190868401855b82811015613c0657815180516001600160a01b03168552860151868501529284019290850190600101613d9c565b6020808252818101527f4f776e61626c653a2063616c6c6572206973206e6f7420746865206f776e6572604082015260600190565b6000808335601e19843603018112613e1657600080fd5b8301803591506001600160401b03821115613e3057600080fd5b60200191503681900382131561377c57600080fd5b600181811c90821680613e5957607f821691505b60208210811415613e7a57634e487b7160e01b600052602260045260246000fd5b50919050565b5b8181101561135c5760008155600101613e81565b601f8211156106fd57806000526020600020601f840160051c81016020851015613ebc5750805b6104f0601f850160051c830182613e80565b6001600160401b03831115613ee557613ee5613566565b613ef983613ef38354613e45565b83613e95565b6000601f841160018114613f2d5760008515613f155750838201355b600019600387901b1c1916600186901b1783556104f0565b600083815260209020601f19861690835b82811015613f5e5786850135825560209485019460019092019101613f3e565b5086821015613f7b5760001960f88860031b161c19848701351681555b505060018560011b0183555050505050565b6000808335601e19843603018112613fa457600080fd5b8301803591506001600160401b03821115613fbe57600080fd5b6020019150600581901b360382131561377c57600080fd5b634e487b7160e01b600052601160045260246000fd5b600160401b83111561400057614000613566565b805483825580841015614089576000828152602081208581019083015b808210156140855761402f8254613e45565b801561407957601f8082116001811461404a57858555614076565b60008581526020902061406783850160051c820160018301613e80565b50600085815260208120818755555b50505b5060018201915061401d565b5050505b5060008181526020812083915b858110156140c8576140a88386613dff565b6140b3818386613ece565b50506020929092019160019182019101614096565b505050505050565b60008135610ffe8161381c565b600160401b8311156140f1576140f1613566565b80548382558084101561414d57816000526020600020601f850160051c8101601f861680156141375761413781600019840180546000198360200360031b1c1681555050565b5061414a601f840160051c830182613e80565b50505b506000818152602081208391805b868110156141b45761418c61416f856140d0565b845460ff600386901b81811b801990931693909116901b16178455565b60208401935060018083019250601f8311156141ab5792830192600092505b5060010161415b565b50505050505050565b6141c78283613dff565b6141d2818385613ece565b5050602082013560018201556141eb6040830183613f8d565b6141f9818360028601613fec565b50506142086060830183613f8d565b614216818360038601613fec565b50506142256080830183613dff565b614233818360048601613ece565b505061424260a0830183613f8d565b6142508183600586016140dd565b505061425f60c0830183613f8d565b61426d8183600686016140dd565b505061427c60e0830183613dff565b61428a818360078601613ece565b505061429a610100830183613f8d565b6142a8818360088601613fec565b50506142b8610120830183613f8d565b6136a4818360098601613fec565b634e487b7160e01b600052603260045260246000fd5b6000602082840312156142ee57600080fd5b8151612eeb8161382b565b6020808252600d908201526c151c985b9cd9995c8811985a5b609a1b604082015260600190565b60008282101561433257614332613fd6565b500390565b81835281816020850137506000828201602090810191909152601f909101601f19169091010190565b81835260006020808501808196508560051b810191508460005b87811015613c065782840389528135601e1988360301811261439b57600080fd5b870180356001600160401b038111156143b357600080fd5b8036038913156143c257600080fd5b6143cf8682898501614337565b9a87019a955050509084019060010161437a565b838152604060208201526000610f67604083018486614360565b8183823760009101908152919050565b8781526000602060808184015261442860808401898b614360565b838103604085015261443b81888a614337565b8481036060860152858152869150820160005b868110156144765782356144618161381c565b60ff168252918301919083019060010161444e565b509b9a5050505050505050505050565b60408152600061449a604083018688614337565b8281036020840152613987818587614360565b6001600160a01b0384168152604060208201819052600090610f679083018486614360565b6040815260006144e6604083018587614337565b9050826020830152949350505050565b60006020828403121561450857600080fd5b5051919050565b602081526000612eeb60208301846136aa565b6000602080838503121561453557600080fd5b82516001600160401b038082111561454c57600080fd5b818501915085601f83011261456057600080fd5b815161456e613642826138b3565b81815260059190911b8301840190848101908883111561458d57600080fd5b8585015b83811015614601578051858111156145a95760008081fd5b8601603f81018b136145bb5760008081fd5b8781015160406145cd613642836135d4565b8281528d828486010111156145e25760008081fd5b6145f1838c830184870161367a565b8652505050918601918601614591565b5098975050505050505050565b6001600160a01b039384168152919092166020820152604081019190915260600190565b6000823561013e1983360301811261464957600080fd5b9190910192915050565b600060001982141561466757614667613fd6565b5060010190565b600080835461467c81613e45565b6001828116801561469457600181146146a5576146d4565b60ff198416875282870194506146d4565b8760005260208060002060005b858110156146cb5781548a8201529084019082016146b2565b50505082870194505b50929695505050505050565b600082198211156146f3576146f3613fd6565b500190565b6000808585111561470857600080fd5b8386111561471557600080fd5b5050820193919092039150565b6000835161473481846020880161367a565b83519083019061474881836020880161367a565b0194935050505056fe3617319a054d772f909f7c479a2cebe5066e836a939412e32403c99029b92effa264697066735822122048356d9835ecaa813c38ed7f36244c7e8a071b2af11b8efe13fdbe7e5391e6c864736f6c63430008090033",
  "immutableReferences": {},
  "source": "// SPDX-License-Identifier: MIT\npragma solidity >=0.4.22 <0.9.0;\nimport \"./PheasantNetworkBridgeChild.sol\";\n\ncontract Helper is PheasantNetworkBridgeChild {\n    constructor(\n        address[] memory _tokenAddressList,\n        uint256 _userDepositThreshold,\n        address _disputeManager\n    ) PheasantNetworkBridgeChild(_tokenAddressList, _userDepositThreshold, _disputeManager) {}\n\n    function helperBid(address user, uint256 index) public {\n        super.bid(user, index);\n    }\n\n    function setUpTrade(\n        address sender,\n        uint256 index,\n        address user,\n        uint8 tokenTypeIndex,\n        uint256 amount,\n        uint256 timestamp,\n        address to,\n        address relayer,\n        uint8 status,\n        uint256 fee,\n        uint256 disputeTimestamp,\n        bool isDeposit\n    ) public {\n        trades[sender].push(\n            Trade(\n                index,\n                user,\n                tokenTypeIndex,\n                amount,\n                timestamp,\n                to,\n                relayer,\n                status,\n                fee,\n                disputeTimestamp\n            )\n        );\n        \n        userTradeList.push(UserTrade(msg.sender, trades[msg.sender].length - 1));\n\n        if(isDeposit) {\n            IERC20 token = IERC20(tokenAddressL2[tokenTypeIndex]);\n            require(token.transferFrom(msg.sender, address(this), amount), \"Transfer Fail\");\n        }\n    }\n\n    function setUpEvidence(\n        address user,\n        uint256 index,\n        Evidence calldata evidence\n    ) public {\n        evidences[user][index] = evidence;\n    }\n\n    function helperCheckTransferTx(\n        bytes calldata transaction,\n        address recipient,\n        uint256 amount\n    ) public pure returns (bool) {\n        return super.checkTransferTx(transaction, recipient, amount);\n    }\n\n    function helperWithdraw(\n        address user,\n        uint256 index,\n        Evidence calldata evidence\n    ) public {\n        super.withdraw(user, index, evidence);\n    }\n}\n",
  "sourcePath": "/Users/yukitanaka/Documents/dev/solidity/pheasant-network/v1-contracts/contracts/Helper.sol",
  "compiler": {
    "name": "solc",
    "version": "0.8.9+commit.e5eed63a.Emscripten.clang"
  },
  "schemaVersion": "3.4.3",
  "updatedAt": "2022-05-12T12:28:58.431Z",
  "devdoc": {
    "kind": "dev",
    "methods": {
      "owner()": {
        "details": "Returns the address of the current owner."
      },
      "renounceOwnership()": {
        "details": "Leaves the contract without owner. It will not be possible to call `onlyOwner` functions anymore. Can only be called by the current owner. NOTE: Renouncing ownership will leave the contract without an owner, thereby removing any functionality that is only available to the owner."
      },
      "transferOwnership(address)": {
        "details": "Transfers ownership of the contract to a new account (`newOwner`). Can only be called by the current owner."
      }
    },
    "version": 1
  },
  "userdoc": {
    "kind": "user",
    "methods": {},
    "version": 1
  }
}