{
  "contractName": "ICheckpointManager",
  "abi": [
    {
      "inputs": [
        {
          "internalType": "uint256",
          "name": "",
          "type": "uint256"
        }
      ],
      "name": "headerBlocks",
      "outputs": [
        {
          "internalType": "bytes32",
          "name": "root",
          "type": "bytes32"
        },
        {
          "internalType": "uint256",
          "name": "start",
          "type": "uint256"
        },
        {
          "internalType": "uint256",
          "name": "end",
          "type": "uint256"
        },
        {
          "internalType": "uint256",
          "name": "createdAt",
          "type": "uint256"
        },
        {
          "internalType": "address",
          "name": "proposer",
          "type": "address"
        }
      ],
      "stateMutability": "view",
      "type": "function"
    }
  ],
  "bytecode": "0x608060405234801561001057600080fd5b5060f38061001f6000396000f3fe6080604052348015600f57600080fd5b506004361060285760003560e01c806341539d4a14602d575b600080fd5b6070603836600460a5565b60006020819052908152604090208054600182015460028301546003840154600490940154929391929091906001600160a01b031685565b6040805195865260208601949094529284019190915260608301526001600160a01b0316608082015260a00160405180910390f35b60006020828403121560b657600080fd5b503591905056fea2646970667358221220490ee738893fee8c15a2dfe763c8e30a2488739acc195406235eff4f93b5dc6664736f6c63430008090033",
  "immutableReferences": {},
  "source": "// SPDX-License-Identifier: MIT\npragma solidity ^0.8.0;\n\nimport {RLPReader} from \"../lib/RLPReader.sol\";\nimport {MerklePatriciaProof} from \"../lib/MerklePatriciaProof.sol\";\nimport {Merkle} from \"../lib/Merkle.sol\";\nimport \"../lib/ExitPayloadReader.sol\";\n\ninterface IFxStateSender {\n    function sendMessageToChild(address _receiver, bytes calldata _data) external;\n}\n\ncontract ICheckpointManager {\n    struct HeaderBlock {\n        bytes32 root;\n        uint256 start;\n        uint256 end;\n        uint256 createdAt;\n        address proposer;\n    }\n\n    /**\n     * @notice mapping of checkpoint header numbers to block details\n     * @dev These checkpoints are submited by plasma contracts\n     */\n    mapping(uint256 => HeaderBlock) public headerBlocks;\n}\n\nabstract contract FxBaseRootTunnel {\n    using RLPReader for RLPReader.RLPItem;\n    using Merkle for bytes32;\n    using ExitPayloadReader for bytes;\n    using ExitPayloadReader for ExitPayloadReader.ExitPayload;\n    using ExitPayloadReader for ExitPayloadReader.Log;\n    using ExitPayloadReader for ExitPayloadReader.LogTopics;\n    using ExitPayloadReader for ExitPayloadReader.Receipt;\n\n    // keccak256(MessageSent(bytes))\n    bytes32 public constant SEND_MESSAGE_EVENT_SIG = 0x8c5261668696ce22758910d05bab8f186d6eb247ceac2af2e82c7dc17669b036;\n\n    // state sender contract\n    IFxStateSender public fxRoot;\n    // root chain manager\n    ICheckpointManager public checkpointManager;\n    // child tunnel contract which receives and sends messages\n    address public fxChildTunnel;\n\n    // storage to avoid duplicate exits\n    mapping(bytes32 => bool) public processedExits;\n\n    constructor(address _checkpointManager, address _fxRoot) {\n        checkpointManager = ICheckpointManager(_checkpointManager);\n        fxRoot = IFxStateSender(_fxRoot);\n    }\n\n    // set fxChildTunnel if not set already\n    function setFxChildTunnel(address _fxChildTunnel) public {\n        require(fxChildTunnel == address(0x0), \"FxBaseRootTunnel: CHILD_TUNNEL_ALREADY_SET\");\n        fxChildTunnel = _fxChildTunnel;\n    }\n\n    /**\n     * @notice Send bytes message to Child Tunnel\n     * @param message bytes message that will be sent to Child Tunnel\n     * some message examples -\n     *   abi.encode(tokenId);\n     *   abi.encode(tokenId, tokenMetadata);\n     *   abi.encode(messageType, messageData);\n     */\n    function _sendMessageToChild(bytes memory message) internal {\n        fxRoot.sendMessageToChild(fxChildTunnel, message);\n    }\n\n    function _validateAndExtractMessage(bytes memory inputData) internal returns (bytes memory) {\n        ExitPayloadReader.ExitPayload memory payload = inputData.toExitPayload();\n\n        bytes memory branchMaskBytes = payload.getBranchMaskAsBytes();\n        uint256 blockNumber = payload.getBlockNumber();\n        // checking if exit has already been processed\n        // unique exit is identified using hash of (blockNumber, branchMask, receiptLogIndex)\n        bytes32 exitHash = keccak256(\n            abi.encodePacked(\n                blockNumber,\n                // first 2 nibbles are dropped while generating nibble array\n                // this allows branch masks that are valid but bypass exitHash check (changing first 2 nibbles only)\n                // so converting to nibble array and then hashing it\n                MerklePatriciaProof._getNibbleArray(branchMaskBytes),\n                payload.getReceiptLogIndex()\n            )\n        );\n        require(processedExits[exitHash] == false, \"FxRootTunnel: EXIT_ALREADY_PROCESSED\");\n        processedExits[exitHash] = true;\n\n        ExitPayloadReader.Receipt memory receipt = payload.getReceipt();\n        ExitPayloadReader.Log memory log = receipt.getLog();\n\n        // check child tunnel\n        require(fxChildTunnel == log.getEmitter(), \"FxRootTunnel: INVALID_FX_CHILD_TUNNEL\");\n\n        bytes32 receiptRoot = payload.getReceiptRoot();\n        // verify receipt inclusion\n        require(\n            MerklePatriciaProof.verify(receipt.toBytes(), branchMaskBytes, payload.getReceiptProof(), receiptRoot),\n            \"FxRootTunnel: INVALID_RECEIPT_PROOF\"\n        );\n\n        // verify checkpoint inclusion\n        _checkBlockMembershipInCheckpoint(\n            blockNumber,\n            payload.getBlockTime(),\n            payload.getTxRoot(),\n            receiptRoot,\n            payload.getHeaderNumber(),\n            payload.getBlockProof()\n        );\n\n        ExitPayloadReader.LogTopics memory topics = log.getTopics();\n\n        require(\n            bytes32(topics.getField(0).toUint()) == SEND_MESSAGE_EVENT_SIG, // topic0 is event sig\n            \"FxRootTunnel: INVALID_SIGNATURE\"\n        );\n\n        // received message data\n        bytes memory message = abi.decode(log.getData(), (bytes)); // event decodes params again, so decoding bytes to get message\n        return message;\n    }\n\n    function _checkBlockMembershipInCheckpoint(\n        uint256 blockNumber,\n        uint256 blockTime,\n        bytes32 txRoot,\n        bytes32 receiptRoot,\n        uint256 headerNumber,\n        bytes memory blockProof\n    ) private view returns (uint256) {\n        (bytes32 headerRoot, uint256 startBlock, , uint256 createdAt, ) = checkpointManager.headerBlocks(headerNumber);\n\n        require(\n            keccak256(abi.encodePacked(blockNumber, blockTime, txRoot, receiptRoot)).checkMembership(\n                blockNumber - startBlock,\n                headerRoot,\n                blockProof\n            ),\n            \"FxRootTunnel: INVALID_HEADER\"\n        );\n        return createdAt;\n    }\n\n    /**\n     * @notice receive message from  L2 to L1, validated by proof\n     * @dev This function verifies if the transaction actually happened on child chain\n     *\n     * @param inputData RLP encoded data of the reference tx containing following list of fields\n     *  0 - headerNumber - Checkpoint header block number containing the reference tx\n     *  1 - blockProof - Proof that the block header (in the child chain) is a leaf in the submitted merkle root\n     *  2 - blockNumber - Block number containing the reference tx on child chain\n     *  3 - blockTime - Reference tx block time\n     *  4 - txRoot - Transactions root of block\n     *  5 - receiptRoot - Receipts root of block\n     *  6 - receipt - Receipt of the reference transaction\n     *  7 - receiptProof - Merkle proof of the reference receipt\n     *  8 - branchMask - 32 bits denoting the path of receipt in merkle tree\n     *  9 - receiptLogIndex - Log Index to read from the receipt\n     */\n    function receiveMessage(bytes memory inputData) public virtual {\n        bytes memory message = _validateAndExtractMessage(inputData);\n        _processMessageFromChild(message);\n    }\n\n    /**\n     * @notice Process message received from Child Tunnel\n     * @dev function needs to be implemented to handle message as per requirement\n     * This is called by onStateReceive function.\n     * Since it is called via a system call, any event will not be emitted during its execution.\n     * @param message bytes message that was sent from Child Tunnel\n     */\n    function _processMessageFromChild(bytes memory message) internal virtual;\n}\n",
  "sourcePath": "/Users/yukitanaka/Documents/dev/solidity/pheasant-network/v1-contracts/fx-portal/contracts/tunnel/FxBaseRootTunnel.sol",
  "compiler": {
    "name": "solc",
    "version": "0.8.9+commit.e5eed63a.Emscripten.clang"
  },
  "schemaVersion": "3.4.3",
  "updatedAt": "2022-05-02T10:49:50.350Z",
  "devdoc": {
    "kind": "dev",
    "methods": {},
    "stateVariables": {
      "headerBlocks": {
        "details": "These checkpoints are submited by plasma contracts"
      }
    },
    "version": 1
  },
  "userdoc": {
    "kind": "user",
    "methods": {
      "headerBlocks(uint256)": {
        "notice": "mapping of checkpoint header numbers to block details"
      }
    },
    "version": 1
  }
}