{
  "contractName": "PheasantNetworkDisputeManager",
  "abi": [
    {
      "inputs": [
        {
          "internalType": "address",
          "name": "_checkPointManager",
          "type": "address"
        }
      ],
      "stateMutability": "nonpayable",
      "type": "constructor"
    },
    {
      "inputs": [
        {
          "internalType": "bytes32",
          "name": "blockHash",
          "type": "bytes32"
        },
        {
          "internalType": "bytes[]",
          "name": "blockHeaderRaw",
          "type": "bytes[]"
        }
      ],
      "name": "verifyBlockHeader",
      "outputs": [
        {
          "internalType": "bool",
          "name": "",
          "type": "bool"
        }
      ],
      "stateMutability": "pure",
      "type": "function"
    },
    {
      "inputs": [
        {
          "internalType": "bytes[]",
          "name": "item",
          "type": "bytes[]"
        }
      ],
      "name": "composeTx",
      "outputs": [
        {
          "internalType": "bytes",
          "name": "",
          "type": "bytes"
        }
      ],
      "stateMutability": "pure",
      "type": "function"
    },
    {
      "inputs": [
        {
          "internalType": "bytes",
          "name": "transaction",
          "type": "bytes"
        },
        {
          "internalType": "bytes[]",
          "name": "txRaw",
          "type": "bytes[]"
        }
      ],
      "name": "verifyRawTx",
      "outputs": [
        {
          "internalType": "bool",
          "name": "",
          "type": "bool"
        }
      ],
      "stateMutability": "pure",
      "type": "function"
    },
    {
      "inputs": [
        {
          "internalType": "bytes32",
          "name": "_blockHash",
          "type": "bytes32"
        },
        {
          "internalType": "uint256",
          "name": "_blockNumber",
          "type": "uint256"
        }
      ],
      "name": "verifyBlockHash",
      "outputs": [
        {
          "internalType": "bool",
          "name": "",
          "type": "bool"
        }
      ],
      "stateMutability": "view",
      "type": "function"
    },
    {
      "inputs": [
        {
          "internalType": "address",
          "name": "from",
          "type": "address"
        },
        {
          "internalType": "bytes[]",
          "name": "txRaw",
          "type": "bytes[]"
        }
      ],
      "name": "verifyTxSignature",
      "outputs": [
        {
          "internalType": "bool",
          "name": "",
          "type": "bool"
        }
      ],
      "stateMutability": "pure",
      "type": "function"
    },
    {
      "inputs": [
        {
          "internalType": "bytes[]",
          "name": "item",
          "type": "bytes[]"
        },
        {
          "internalType": "bool",
          "name": "isTxEncode",
          "type": "bool"
        }
      ],
      "name": "rlpEncode",
      "outputs": [
        {
          "internalType": "bytes",
          "name": "",
          "type": "bytes"
        }
      ],
      "stateMutability": "pure",
      "type": "function"
    },
    {
      "inputs": [
        {
          "internalType": "bytes[]",
          "name": "proof",
          "type": "bytes[]"
        },
        {
          "internalType": "bytes",
          "name": "bytesRoot",
          "type": "bytes"
        },
        {
          "internalType": "uint8[]",
          "name": "path",
          "type": "uint8[]"
        }
      ],
      "name": "checkProof",
      "outputs": [
        {
          "internalType": "bytes",
          "name": "",
          "type": "bytes"
        }
      ],
      "stateMutability": "pure",
      "type": "function"
    },
    {
      "inputs": [
        {
          "internalType": "bytes",
          "name": "item",
          "type": "bytes"
        }
      ],
      "name": "decodeNode",
      "outputs": [
        {
          "internalType": "bytes[]",
          "name": "",
          "type": "bytes[]"
        }
      ],
      "stateMutability": "pure",
      "type": "function"
    },
    {
      "inputs": [
        {
          "internalType": "bytes32",
          "name": "hash",
          "type": "bytes32"
        },
        {
          "internalType": "uint8",
          "name": "v",
          "type": "uint8"
        },
        {
          "internalType": "bytes32",
          "name": "r",
          "type": "bytes32"
        },
        {
          "internalType": "bytes32",
          "name": "s",
          "type": "bytes32"
        }
      ],
      "name": "txEcrecover",
      "outputs": [
        {
          "internalType": "address",
          "name": "",
          "type": "address"
        }
      ],
      "stateMutability": "pure",
      "type": "function"
    }
  ],
  "bytecode": "0x608060405234801561001057600080fd5b5060405161188138038061188183398101604081905261002f91610054565b600080546001600160a01b0319166001600160a01b0392909216919091179055610084565b60006020828403121561006657600080fd5b81516001600160a01b038116811461007d57600080fd5b9392505050565b6117ee806100936000396000f3fe608060405234801561001057600080fd5b50600436106100935760003560e01c806350328bf91161006657806350328bf9146101135780638edf012a14610126578063a47615c714610139578063ca141dfe1461014c578063e1bc93281461017757600080fd5b80632c576255146100985780633a161a46146100c057806344accf59146100d357806344ebba0d146100f3575b600080fd5b6100ab6100a6366004610e73565b61018a565b60405190151581526020015b60405180910390f35b6100ab6100ce366004610ee0565b610211565b6100e66100e13660046110a4565b610239565b6040516100b79190611156565b610106610101366004611169565b610319565b6040516100b791906111a5565b6100ab610121366004611207565b6103a7565b6100e6610134366004611262565b6103cf565b6100ab610147366004611296565b610423565b61015f61015a3660046112f3565b6106ed565b6040516001600160a01b0390911681526020016100b7565b6100e661018536600461132e565b610755565b60008054604051637741562f60e11b81526004810184905284916001600160a01b03169063ee82ac5e9060240160206040518083038186803b1580156101cf57600080fd5b505afa1580156101e3573d6000803e3d6000fd5b505050506040513d601f19601f820116820180604052508101906102079190611412565b1490505b92915050565b6000610227610220838561142b565b6000610239565b80519060200120841490509392505050565b81516060908160005b828110156102db576008811480156102575750845b15610283578160405160200161026d9190611438565b60405160208183030381529060405291506102c9565b816102a68783815181106102995761029961145d565b6020026020010151610b08565b6040516020016102b7929190611473565b60405160208183030381529060405291505b806102d3816114b8565b915050610242565b5060006102ea825160c0610b78565b905080826040516020016102ff929190611473565b604051602081830303815290604052935050505092915050565b60405163e5c5e9a360e01b815260609073__RLPDecoder____________________________9063e5c5e9a390610353908590600401611156565b60006040518083038186803b15801561036b57600080fd5b505af415801561037f573d6000803e3d6000fd5b505050506040513d6000823e601f3d908101601f1916820160405261020b91908101906114d3565b60006103b6610134838561142b565b8051906020012084805190602001201490509392505050565b606060006103de836001610239565b9050604051806040016040528060018152602001600160f91b8152508160405160200161040c929190611473565b604051602081830303815290604052915050919050565b6000806104316003846115bf565b90506000816001600160401b0381111561044d5761044d610f2b565b60405190808252806020026020018201604052801561048057816020015b606081526020019060019003908161046b5790505b50905060005b82811015610518578585828181106104a0576104a061145d565b90506020028101906104b291906115d6565b8080601f01602080910402602001604051908101604052809392919081815260200183838082843760009201919091525050845185925084915081106104fa576104fa61145d565b60200260200101819052508080610510906114b8565b915050610486565b506000610524826103cf565b805160208201209091506000808888600a8181106105445761054461145d565b905060200281019061055691906115d6565b8080601f0160208091040260200160405190810160405280939291908181526020018383808284376000920182905250602085015196509394508392508c91508b9050600b8181106105aa576105aa61145d565b90506020028101906105bc91906115d6565b8080601f0160208091040260200160405190810160405280939291908181526020018383808284376000920182905250602085015196509394507f5fe7f977e71dba2ea1a68e21057beebb9be2ac30c6410aa38d4f3fbe41dcffd292508e91508d905060098181106106305761063061145d565b905060200281019061064291906115d6565b60405161065092919061161c565b604051809103902014156106665750601c61066a565b50601b5b60408051600081526020810180835288905260ff831691810191909152606081018690526080810184905260019060a0016020604051602081039080840390855afa1580156106bd573d6000803e3d6000fd5b505050602060405103516001600160a01b03168d6001600160a01b03161499505050505050505050509392505050565b6040805160008082526020820180845287905260ff861692820192909252606081018490526080810183905260019060a0016020604051602081039080840390855afa158015610741573d6000803e3d6000fd5b5050604051601f1901519695505050505050565b60208201518351606091908490600080858982856107755761077561145d565b60200260200101518051906020012086146107c95760405162461bcd60e51b815260206004820152600f60248201526e125b9d985b1a5908151e08149bdbdd608a1b60448201526064015b60405180910390fd5b60005b84811015610afa5760006107f88c83815181106107eb576107eb61145d565b6020026020010151610319565b9050811561085f57838c83815181106108135761081361145d565b6020026020010151805190602001201461085f5760405162461bcd60e51b815260206004820152600d60248201526c24b73b30b634b210283937b7b360991b60448201526064016107c0565b8051601114156108f0576108746001876115bf565b82141561089d578060108151811061088e5761088e61145d565b60200260200101519250610ae7565b808a86815181106108b0576108b061145d565b602002602001015160ff16815181106108cb576108cb61145d565b60200260200101516108dc9061162c565b9350846108e8816114b8565b955050610ae7565b80516002141561009357600061091f826000815181106109125761091261145d565b6020026020010151610d2f565b905060006001826000815181106109385761093861145d565b602002602001015160ff1611156109c3578160008151811061095c5761095c61145d565b602002602001015160ff1660021415610977575060026109a1565b8160008151811061098a5761098a61145d565b602002602001015160ff16600314156109a1575060015b826001815181106109b4576109b461145d565b60200260200101519450610a42565b816000815181106109d6576109d661145d565b602002602001015160ff16600014156109f157506002610a1b565b81600081518110610a0457610a0461145d565b602002602001015160ff1660011415610a1b575060015b82600181518110610a2e57610a2e61145d565b6020026020010151610a3f9061162c565b95505b805b8251811015610ae357828181518110610a5f57610a5f61145d565b602002602001015160ff168d8981518110610a7c57610a7c61145d565b602002602001015160ff1614610ac35760405162461bcd60e51b815260206004820152600c60248201526b092dcecc2d8d2c840a0c2e8d60a31b60448201526064016107c0565b87610acd816114b8565b9850508080610adb906114b8565b915050610a44565b5050505b5080610af2816114b8565b9150506107cc565b509998505050505050505050565b60608082516001148015610b375750608083600081518110610b2c57610b2c61145d565b016020015160f81c11155b15610b4357508161020b565b610b4f83516080610b78565b83604051602001610b61929190611473565b604051602081830303815290604052905092915050565b6060806038841015610be25760408051600180825281830190925290602082018180368337019050509050610bad8385611653565b601f1a60f81b81600081518110610bc657610bc661145d565b60200101906001600160f81b031916908160001a905350610d28565b600060015b610bf18187611681565b15610c175781610c00816114b8565b9250610c10905061010082611695565b9050610be7565b610c22826001611653565b6001600160401b03811115610c3957610c39610f2b565b6040519080825280601f01601f191660200182016040528015610c63576020820181803683370190505b509250610c708583611653565b610c7b906037611653565b601f1a60f81b83600081518110610c9457610c9461145d565b60200101906001600160f81b031916908160001a905350600190505b818111610d2557610100610cc482846115bf565b610cd090610100611798565b610cda9088611681565b610ce491906117a4565b601f1a60f81b838281518110610cfc57610cfc61145d565b60200101906001600160f81b031916908160001a90535080610d1d816114b8565b915050610cb0565b50505b9392505050565b80516060906000610d41826002611695565b6001600160401b03811115610d5857610d58610f2b565b604051908082528060200260200182016040528015610d81578160200160208202803683370190505b50905060005b8451811015610e6b576000610d9d826002611695565b90506004868381518110610db357610db361145d565b602001015160f81c60f81b6001600160f81b031916901c60f81c838281518110610ddf57610ddf61145d565b60ff90921660209283029190910190910152610dfa816114b8565b905060006004878481518110610e1257610e1261145d565b016020015185516001600160f81b031990911690911b915060fc82901c90859084908110610e4257610e4261145d565b602002602001019060ff16908160ff168152505050508080610e63906114b8565b915050610d87565b509392505050565b60008060408385031215610e8657600080fd5b50508035926020909101359150565b60008083601f840112610ea757600080fd5b5081356001600160401b03811115610ebe57600080fd5b6020830191508360208260051b8501011115610ed957600080fd5b9250929050565b600080600060408486031215610ef557600080fd5b8335925060208401356001600160401b03811115610f1257600080fd5b610f1e86828701610e95565b9497909650939450505050565b634e487b7160e01b600052604160045260246000fd5b604051601f8201601f191681016001600160401b0381118282101715610f6957610f69610f2b565b604052919050565b60006001600160401b03821115610f8a57610f8a610f2b565b5060051b60200190565b60006001600160401b03821115610fad57610fad610f2b565b50601f01601f191660200190565b600082601f830112610fcc57600080fd5b8135610fdf610fda82610f94565b610f41565b818152846020838601011115610ff457600080fd5b816020850160208301376000918101602001919091529392505050565b600061101f610fda84610f71565b8381529050602080820190600585901b84018681111561103e57600080fd5b845b818110156110795780356001600160401b0381111561105f5760008081fd5b61106b89828901610fbb565b855250928201928201611040565b505050509392505050565b600082601f83011261109557600080fd5b610d2883833560208501611011565b600080604083850312156110b757600080fd5b82356001600160401b038111156110cd57600080fd5b6110d985828601611084565b925050602083013580151581146110ef57600080fd5b809150509250929050565b60005b838110156111155781810151838201526020016110fd565b83811115611124576000848401525b50505050565b600081518084526111428160208601602086016110fa565b601f01601f19169290920160200192915050565b602081526000610d28602083018461112a565b60006020828403121561117b57600080fd5b81356001600160401b0381111561119157600080fd5b61119d84828501610fbb565b949350505050565b6000602080830181845280855180835260408601915060408160051b870101925083870160005b828110156111fa57603f198886030184526111e885835161112a565b945092850192908501906001016111cc565b5092979650505050505050565b60008060006040848603121561121c57600080fd5b83356001600160401b038082111561123357600080fd5b61123f87838801610fbb565b9450602086013591508082111561125557600080fd5b50610f1e86828701610e95565b60006020828403121561127457600080fd5b81356001600160401b0381111561128a57600080fd5b61119d84828501611084565b6000806000604084860312156112ab57600080fd5b83356001600160a01b03811681146112c257600080fd5b925060208401356001600160401b03811115610f1257600080fd5b803560ff811681146112ee57600080fd5b919050565b6000806000806080858703121561130957600080fd5b84359350611319602086016112dd565b93969395505050506040820135916060013590565b60008060006060848603121561134357600080fd5b83356001600160401b038082111561135a57600080fd5b61136687838801611084565b945060209150818601358181111561137d57600080fd5b61138988828901610fbb565b94505060408601358181111561139e57600080fd5b86019050601f810187136113b157600080fd5b80356113bf610fda82610f71565b81815260059190911b820183019083810190898311156113de57600080fd5b928401925b82841015611403576113f4846112dd565b825292840192908401906113e3565b80955050505050509250925092565b60006020828403121561142457600080fd5b5051919050565b6000610d28368484611011565b6000825161144a8184602087016110fa565b600360fe1b920191825250600101919050565b634e487b7160e01b600052603260045260246000fd5b600083516114858184602088016110fa565b8351908301906114998183602088016110fa565b01949350505050565b634e487b7160e01b600052601160045260246000fd5b60006000198214156114cc576114cc6114a2565b5060010190565b600060208083850312156114e657600080fd5b82516001600160401b03808211156114fd57600080fd5b818501915085601f83011261151157600080fd5b815161151f610fda82610f71565b81815260059190911b8301840190848101908883111561153e57600080fd5b8585015b838110156115b25780518581111561155a5760008081fd5b8601603f81018b1361156c5760008081fd5b87810151604061157e610fda83610f94565b8281528d828486010111156115935760008081fd5b6115a2838c83018487016110fa565b8652505050918601918601611542565b5098975050505050505050565b6000828210156115d1576115d16114a2565b500390565b6000808335601e198436030181126115ed57600080fd5b8301803591506001600160401b0382111561160757600080fd5b602001915036819003821315610ed957600080fd5b8183823760009101908152919050565b8051602080830151919081101561164d576000198160200360031b1b821691505b50919050565b60008219821115611666576116666114a2565b500190565b634e487b7160e01b600052601260045260246000fd5b6000826116905761169061166b565b500490565b60008160001904831182151516156116af576116af6114a2565b500290565b600181815b808511156116ef5781600019048211156116d5576116d56114a2565b808516156116e257918102915b93841c93908002906116b9565b509250929050565b6000826117065750600161020b565b816117135750600061020b565b816001811461172957600281146117335761174f565b600191505061020b565b60ff841115611744576117446114a2565b50506001821b61020b565b5060208310610133831016604e8410600b8410161715611772575081810a61020b565b61177c83836116b4565b8060001904821115611790576117906114a2565b029392505050565b6000610d2883836116f7565b6000826117b3576117b361166b565b50069056fea2646970667358221220c865c826e472e0aea412ee72d1e5718fa1a682c6970e01d33ec705b81c6d01a964736f6c63430008090033",
  "immutableReferences": {},
  "source": "// SPDX-License-Identifier: MIT\npragma solidity 0.8.9;\nimport {RLPDecoder} from \"./RLPDecoder.sol\";\n\ninterface PolygonChildCheckPointManagerInterface{\n  function getBlockHash(uint _blockNumber) external view returns(bytes32);\n}\n\ncontract PheasantNetworkDisputeManager {\n  constructor(address _checkPointManager) {\n      checkPointManager = PolygonChildCheckPointManagerInterface(_checkPointManager);\n  }\n\n  PolygonChildCheckPointManagerInterface internal checkPointManager;\n  bytes constant TX_TYPE2 = hex\"02\";\n  uint constant ACCESSLIST = 8;\n\n  function verifyBlockHeader(bytes32  blockHash, bytes[] calldata blockHeaderRaw) public pure returns (bool){\n      return blockHash == keccak256(rlpEncode(blockHeaderRaw, false));\n  }\n\n   function composeTx(bytes[] memory item) public pure returns(bytes memory){\n       bytes memory encodedTx = rlpEncode(item, true);\n       return bytes.concat(TX_TYPE2, encodedTx);\n   }\n\n   function verifyRawTx(bytes memory transaction, bytes[] calldata txRaw) public pure returns(bool){\n       return keccak256(transaction) == keccak256(composeTx(txRaw));\n   }\n\n\n  function encodeBytes(bytes memory self) internal pure returns (bytes memory) {\n      bytes memory encoded;\n      if (self.length == 1 && uint8(self[0]) <= 128) {\n          encoded = self;\n      } else {\n          encoded = bytes.concat(encodeLength(self.length, 128), self);\n      }\n      return encoded;\n  }\n\n\n  function encodeLength(uint len, uint offset) internal pure returns (bytes memory) {\n      bytes memory encoded;\n      if (len < 56) {\n          encoded = new bytes(1);\n          encoded[0] = bytes32(len + offset)[31];\n      } else {\n          uint lenLen;\n          uint i = 1;\n          while (len / i != 0) {\n              lenLen++;\n              i *= 256;\n          }\n\n          encoded = new bytes(lenLen + 1);\n          encoded[0] = bytes32(lenLen + offset + 55)[31];\n          for(i = 1; i <= lenLen; i++) {\n              encoded[i] = bytes32((len / (256**(lenLen-i))) % 256)[31];\n          }\n      }\n      return encoded;\n  }\n\n   function verifyBlockHash(bytes32  _blockHash, uint _blockNumber) public view returns (bool){\n      return checkPointManager.getBlockHash(_blockNumber) == _blockHash;\n   }\n\n   function verifyTxSignature(address from, bytes[] calldata txRaw) public pure returns(bool){\n      uint length = txRaw.length - 3;\n       bytes[] memory unsignedRawTx = new bytes[](length); \n       for(uint i = 0; i < length; i++) {\n           unsignedRawTx[i] = txRaw[i];\n       }\n       bytes memory composedUnsignedTx = composeTx(unsignedRawTx);\n       bytes32 message = keccak256(composedUnsignedTx);\n\n       bytes32 r;\n       bytes memory tmpR = txRaw[10];\n       assembly {\n         r := mload(add(tmpR, 32))\n       }\n\n       bytes32 s;\n       bytes memory tmpS = txRaw[11];\n       assembly {\n         s := mload(add(tmpS, 32))\n       }\n\n       uint8 v = 0;\n       if(keccak256(txRaw[9]) == keccak256(hex\"01\")) {\n           v = 28;\n       } else {\n           v = 27;\n       }\n\n       return from == ecrecover(message, v, r, s);\n   }\n\n   function rlpEncode(bytes[] memory item, bool isTxEncode) public pure returns(bytes memory){\n      uint length = item.length;\n      bytes memory result;\n      for(uint i = 0; i < length ;i++) {\n          if(i == ACCESSLIST && isTxEncode) {\n              result = bytes.concat(result, hex\"c0\"); //empty accessList\n          } else {\n              result = bytes.concat(result, encodeBytes(item[i]));\n          }\n      }\n      bytes memory prefix = encodeLength(result.length, 192);\n      return bytes.concat(prefix, result);\n  }\n\n  function checkProof(bytes[] memory proof, bytes memory bytesRoot, uint8[] memory path) public pure returns (bytes memory){\n      bytes32 root;\n      bytes memory tmpRoot = bytesRoot;\n      assembly {\n        root := mload(add(tmpRoot, 32))\n      }\n\n      uint length = proof.length; \n      uint pathIndex = 0;\n      bytes32 next;\n      bytes memory encodedResult;\n      require(root == keccak256(proof[0]), \"Invalid Tx Root\");\n      for(uint i = 0; i < length; i++) {\n          bytes[] memory result = decodeNode(proof[i]);\n          if(i != 0) {\n              require(keccak256(proof[i]) == next, \"Invalid Proof\");\n          }\n          if(result.length == 17) {\n              if(i == length - 1) {\n                  encodedResult = result[16];\n              } else {\n                  next = bytes32(result[path[pathIndex]]);\n                  pathIndex++;\n              }\n          }else if(result.length == 2) {\n              uint8[] memory nibble = bufferToNibble(result[0]);\n              uint offset = 0;\n              if (nibble[0] > 1) {\n                  if(nibble[0] == 2) {\n                      offset = 2;\n                  }else if(nibble[0] == 3) {\n                      offset = 1;\n                  }\n                  encodedResult = result[1];\n              } else {\n                  if(nibble[0] == 0) {\n                      offset = 2;\n                  }else if(nibble[0] == 1) {\n                      offset = 1;\n                  }\n                  next = bytes32(result[1]);\n              }\n              for(uint j = offset; j < nibble.length; j++) {\n                  require(path[pathIndex] == nibble[j], \"Invalid Path\");\n                  pathIndex++;\n              }\n          } else {\n              revert();\n          }\n      }\n      return encodedResult;\n  }\n\n  function bufferToNibble(bytes memory buffer) internal pure returns(uint8[] memory){\n      uint size = buffer.length;\n      uint8[] memory nibbles = new uint8[](size * 2);\n      for(uint i = 0;  i < buffer.length; i++ ){\n          uint q = i * 2;\n          nibbles[q] = uint8(buffer[i] >> 4);\n          ++q;\n          bytes1 tmp = buffer[i] << 4;\n          nibbles[q] = uint8(tmp >> 4);\n      }\n      return nibbles;\n  }\n\n  function decodeNode(bytes memory item) public pure returns (bytes[] memory ){\n      return RLPDecoder.decode(item);\n  }\n\n  function txEcrecover(bytes32 hash, uint8 v, bytes32 r, bytes32 s) public pure returns (address){\n      return ecrecover(hash, v, r, s);\n  }\n\n\n\n}\n",
  "sourcePath": "/Users/yukitanaka/Documents/dev/solidity/pheasant-network/v1-contracts/contracts/PheasantNetworkDisputeManager.sol",
  "compiler": {
    "name": "solc",
    "version": "0.8.9+commit.e5eed63a.Emscripten.clang"
  },
  "schemaVersion": "3.4.3",
  "updatedAt": "2022-05-02T09:29:04.093Z",
  "networkType": "ethereum",
  "devdoc": {
    "kind": "dev",
    "methods": {},
    "version": 1
  },
  "userdoc": {
    "kind": "user",
    "methods": {},
    "version": 1
  }
}