{
  "contractName": "PheasantNetworkBridgeChild",
  "abi": [
    {
      "inputs": [
        {
          "internalType": "address[]",
          "name": "_tokenAddressList",
          "type": "address[]"
        },
        {
          "internalType": "uint256",
          "name": "_userDepositThreshold",
          "type": "uint256"
        },
        {
          "internalType": "address",
          "name": "_disputeManager",
          "type": "address"
        }
      ],
      "stateMutability": "nonpayable",
      "type": "constructor"
    },
    {
      "anonymous": false,
      "inputs": [
        {
          "indexed": true,
          "internalType": "address",
          "name": "relayer",
          "type": "address"
        },
        {
          "indexed": true,
          "internalType": "address",
          "name": "userAddress",
          "type": "address"
        },
        {
          "indexed": false,
          "internalType": "uint256",
          "name": "index",
          "type": "uint256"
        }
      ],
      "name": "Bid",
      "type": "event"
    },
    {
      "anonymous": false,
      "inputs": [
        {
          "indexed": true,
          "internalType": "address",
          "name": "userAddress",
          "type": "address"
        },
        {
          "indexed": false,
          "internalType": "uint256",
          "name": "index",
          "type": "uint256"
        }
      ],
      "name": "Dispute",
      "type": "event"
    },
    {
      "anonymous": false,
      "inputs": [
        {
          "indexed": true,
          "internalType": "address",
          "name": "userAddress",
          "type": "address"
        },
        {
          "indexed": false,
          "internalType": "uint8",
          "name": "tokenTypeIndex",
          "type": "uint8"
        },
        {
          "indexed": false,
          "internalType": "uint256",
          "name": "amount",
          "type": "uint256"
        }
      ],
      "name": "NewTrade",
      "type": "event"
    },
    {
      "anonymous": false,
      "inputs": [
        {
          "indexed": true,
          "internalType": "address",
          "name": "previousOwner",
          "type": "address"
        },
        {
          "indexed": true,
          "internalType": "address",
          "name": "newOwner",
          "type": "address"
        }
      ],
      "name": "OwnershipTransferred",
      "type": "event"
    },
    {
      "anonymous": false,
      "inputs": [
        {
          "indexed": true,
          "internalType": "address",
          "name": "userAddress",
          "type": "address"
        },
        {
          "indexed": false,
          "internalType": "uint256",
          "name": "index",
          "type": "uint256"
        },
        {
          "indexed": true,
          "internalType": "address",
          "name": "relayer",
          "type": "address"
        }
      ],
      "name": "Slash",
      "type": "event"
    },
    {
      "anonymous": false,
      "inputs": [
        {
          "indexed": true,
          "internalType": "address",
          "name": "relayer",
          "type": "address"
        },
        {
          "indexed": true,
          "internalType": "address",
          "name": "userAddress",
          "type": "address"
        },
        {
          "indexed": false,
          "internalType": "uint256",
          "name": "index",
          "type": "uint256"
        }
      ],
      "name": "Submit",
      "type": "event"
    },
    {
      "anonymous": false,
      "inputs": [
        {
          "indexed": true,
          "internalType": "address",
          "name": "relayer",
          "type": "address"
        },
        {
          "indexed": true,
          "internalType": "address",
          "name": "userAddress",
          "type": "address"
        },
        {
          "indexed": false,
          "internalType": "uint256",
          "name": "index",
          "type": "uint256"
        }
      ],
      "name": "Withdraw",
      "type": "event"
    },
    {
      "inputs": [],
      "name": "owner",
      "outputs": [
        {
          "internalType": "address",
          "name": "",
          "type": "address"
        }
      ],
      "stateMutability": "view",
      "type": "function"
    },
    {
      "inputs": [],
      "name": "renounceOwnership",
      "outputs": [],
      "stateMutability": "nonpayable",
      "type": "function"
    },
    {
      "inputs": [
        {
          "internalType": "address",
          "name": "newOwner",
          "type": "address"
        }
      ],
      "name": "transferOwnership",
      "outputs": [],
      "stateMutability": "nonpayable",
      "type": "function"
    },
    {
      "inputs": [
        {
          "internalType": "uint256",
          "name": "amount",
          "type": "uint256"
        },
        {
          "internalType": "address",
          "name": "to",
          "type": "address"
        },
        {
          "internalType": "uint256",
          "name": "fee",
          "type": "uint256"
        },
        {
          "internalType": "uint8",
          "name": "tokenTypeIndex",
          "type": "uint8"
        }
      ],
      "name": "newTrade",
      "outputs": [],
      "stateMutability": "nonpayable",
      "type": "function"
    },
    {
      "inputs": [
        {
          "internalType": "uint256",
          "name": "threshold",
          "type": "uint256"
        }
      ],
      "name": "setUserDepositThreshold",
      "outputs": [],
      "stateMutability": "nonpayable",
      "type": "function"
    },
    {
      "inputs": [
        {
          "internalType": "uint8",
          "name": "tokenTypeIndex",
          "type": "uint8"
        },
        {
          "internalType": "bool",
          "name": "isL2",
          "type": "bool"
        }
      ],
      "name": "getTokenAddress",
      "outputs": [
        {
          "internalType": "address",
          "name": "",
          "type": "address"
        }
      ],
      "stateMutability": "view",
      "type": "function"
    },
    {
      "inputs": [
        {
          "internalType": "uint256",
          "name": "index",
          "type": "uint256"
        }
      ],
      "name": "cancelTrade",
      "outputs": [],
      "stateMutability": "nonpayable",
      "type": "function"
    },
    {
      "inputs": [
        {
          "internalType": "uint256",
          "name": "index",
          "type": "uint256"
        }
      ],
      "name": "dispute",
      "outputs": [],
      "stateMutability": "nonpayable",
      "type": "function"
    },
    {
      "inputs": [
        {
          "internalType": "uint256",
          "name": "index",
          "type": "uint256"
        }
      ],
      "name": "slash",
      "outputs": [],
      "stateMutability": "nonpayable",
      "type": "function"
    },
    {
      "inputs": [
        {
          "internalType": "address",
          "name": "user",
          "type": "address"
        },
        {
          "internalType": "uint256",
          "name": "index",
          "type": "uint256"
        },
        {
          "components": [
            {
              "internalType": "bytes",
              "name": "blockNumber",
              "type": "bytes"
            },
            {
              "internalType": "bytes32",
              "name": "blockHash",
              "type": "bytes32"
            },
            {
              "internalType": "bytes[]",
              "name": "txReceiptProof",
              "type": "bytes[]"
            },
            {
              "internalType": "bytes[]",
              "name": "txProof",
              "type": "bytes[]"
            },
            {
              "internalType": "bytes",
              "name": "transaction",
              "type": "bytes"
            },
            {
              "internalType": "uint8[]",
              "name": "txDataSpot",
              "type": "uint8[]"
            },
            {
              "internalType": "uint8[]",
              "name": "path",
              "type": "uint8[]"
            },
            {
              "internalType": "bytes",
              "name": "txReceipt",
              "type": "bytes"
            },
            {
              "internalType": "bytes[]",
              "name": "rawTx",
              "type": "bytes[]"
            },
            {
              "internalType": "bytes[]",
              "name": "rawBlockHeader",
              "type": "bytes[]"
            }
          ],
          "internalType": "struct PheasantNetworkBridgeChild.Evidence",
          "name": "evidence",
          "type": "tuple"
        }
      ],
      "name": "submitEvidence",
      "outputs": [],
      "stateMutability": "nonpayable",
      "type": "function"
    },
    {
      "inputs": [],
      "name": "getDisputeList",
      "outputs": [
        {
          "components": [
            {
              "internalType": "address",
              "name": "userAddress",
              "type": "address"
            },
            {
              "internalType": "uint256",
              "name": "index",
              "type": "uint256"
            }
          ],
          "internalType": "struct PheasantNetworkBridgeChild.UserTrade[]",
          "name": "",
          "type": "tuple[]"
        }
      ],
      "stateMutability": "view",
      "type": "function"
    },
    {
      "inputs": [
        {
          "internalType": "address",
          "name": "user",
          "type": "address"
        },
        {
          "internalType": "uint256",
          "name": "index",
          "type": "uint256"
        }
      ],
      "name": "getTrade",
      "outputs": [
        {
          "components": [
            {
              "internalType": "uint256",
              "name": "index",
              "type": "uint256"
            },
            {
              "internalType": "address",
              "name": "user",
              "type": "address"
            },
            {
              "internalType": "uint8",
              "name": "tokenTypeIndex",
              "type": "uint8"
            },
            {
              "internalType": "uint256",
              "name": "amount",
              "type": "uint256"
            },
            {
              "internalType": "uint256",
              "name": "timestamp",
              "type": "uint256"
            },
            {
              "internalType": "address",
              "name": "to",
              "type": "address"
            },
            {
              "internalType": "address",
              "name": "relayer",
              "type": "address"
            },
            {
              "internalType": "uint8",
              "name": "status",
              "type": "uint8"
            },
            {
              "internalType": "uint256",
              "name": "fee",
              "type": "uint256"
            },
            {
              "internalType": "uint256",
              "name": "disputeTimestamp",
              "type": "uint256"
            }
          ],
          "internalType": "struct PheasantNetworkBridgeChild.Trade",
          "name": "",
          "type": "tuple"
        }
      ],
      "stateMutability": "view",
      "type": "function"
    },
    {
      "inputs": [],
      "name": "getUserTradeList",
      "outputs": [
        {
          "components": [
            {
              "internalType": "address",
              "name": "userAddress",
              "type": "address"
            },
            {
              "internalType": "uint256",
              "name": "index",
              "type": "uint256"
            }
          ],
          "internalType": "struct PheasantNetworkBridgeChild.UserTrade[]",
          "name": "",
          "type": "tuple[]"
        }
      ],
      "stateMutability": "view",
      "type": "function"
    },
    {
      "inputs": [
        {
          "internalType": "uint256",
          "name": "_index",
          "type": "uint256"
        }
      ],
      "name": "getUserTradeListByIndex",
      "outputs": [
        {
          "components": [
            {
              "internalType": "address",
              "name": "userAddress",
              "type": "address"
            },
            {
              "internalType": "uint256",
              "name": "index",
              "type": "uint256"
            }
          ],
          "internalType": "struct PheasantNetworkBridgeChild.UserTrade[]",
          "name": "",
          "type": "tuple[]"
        }
      ],
      "stateMutability": "view",
      "type": "function"
    },
    {
      "inputs": [
        {
          "components": [
            {
              "internalType": "address",
              "name": "userAddress",
              "type": "address"
            },
            {
              "internalType": "uint256",
              "name": "index",
              "type": "uint256"
            }
          ],
          "internalType": "struct PheasantNetworkBridgeChild.UserTrade[]",
          "name": "userTrades",
          "type": "tuple[]"
        }
      ],
      "name": "getTrades",
      "outputs": [
        {
          "components": [
            {
              "internalType": "uint256",
              "name": "index",
              "type": "uint256"
            },
            {
              "internalType": "address",
              "name": "user",
              "type": "address"
            },
            {
              "internalType": "uint8",
              "name": "tokenTypeIndex",
              "type": "uint8"
            },
            {
              "internalType": "uint256",
              "name": "amount",
              "type": "uint256"
            },
            {
              "internalType": "uint256",
              "name": "timestamp",
              "type": "uint256"
            },
            {
              "internalType": "address",
              "name": "to",
              "type": "address"
            },
            {
              "internalType": "address",
              "name": "relayer",
              "type": "address"
            },
            {
              "internalType": "uint8",
              "name": "status",
              "type": "uint8"
            },
            {
              "internalType": "uint256",
              "name": "fee",
              "type": "uint256"
            },
            {
              "internalType": "uint256",
              "name": "disputeTimestamp",
              "type": "uint256"
            }
          ],
          "internalType": "struct PheasantNetworkBridgeChild.Trade[]",
          "name": "",
          "type": "tuple[]"
        }
      ],
      "stateMutability": "view",
      "type": "function"
    },
    {
      "inputs": [],
      "name": "getTradeList",
      "outputs": [
        {
          "components": [
            {
              "internalType": "uint256",
              "name": "index",
              "type": "uint256"
            },
            {
              "internalType": "address",
              "name": "user",
              "type": "address"
            },
            {
              "internalType": "uint8",
              "name": "tokenTypeIndex",
              "type": "uint8"
            },
            {
              "internalType": "uint256",
              "name": "amount",
              "type": "uint256"
            },
            {
              "internalType": "uint256",
              "name": "timestamp",
              "type": "uint256"
            },
            {
              "internalType": "address",
              "name": "to",
              "type": "address"
            },
            {
              "internalType": "address",
              "name": "relayer",
              "type": "address"
            },
            {
              "internalType": "uint8",
              "name": "status",
              "type": "uint8"
            },
            {
              "internalType": "uint256",
              "name": "fee",
              "type": "uint256"
            },
            {
              "internalType": "uint256",
              "name": "disputeTimestamp",
              "type": "uint256"
            }
          ],
          "internalType": "struct PheasantNetworkBridgeChild.Trade[]",
          "name": "",
          "type": "tuple[]"
        }
      ],
      "stateMutability": "view",
      "type": "function"
    },
    {
      "inputs": [
        {
          "internalType": "address",
          "name": "account",
          "type": "address"
        }
      ],
      "name": "getRelayerBondBalance",
      "outputs": [
        {
          "internalType": "uint256",
          "name": "",
          "type": "uint256"
        }
      ],
      "stateMutability": "view",
      "type": "function"
    },
    {
      "inputs": [
        {
          "internalType": "address",
          "name": "account",
          "type": "address"
        }
      ],
      "name": "getUserDepositBalance",
      "outputs": [
        {
          "internalType": "uint256",
          "name": "",
          "type": "uint256"
        }
      ],
      "stateMutability": "view",
      "type": "function"
    },
    {
      "inputs": [
        {
          "internalType": "uint256",
          "name": "amount",
          "type": "uint256"
        }
      ],
      "name": "depositBond",
      "outputs": [],
      "stateMutability": "nonpayable",
      "type": "function"
    },
    {
      "inputs": [],
      "name": "withdrawBond",
      "outputs": [],
      "stateMutability": "nonpayable",
      "type": "function"
    },
    {
      "inputs": [
        {
          "components": [
            {
              "internalType": "address",
              "name": "userAddress",
              "type": "address"
            },
            {
              "internalType": "uint256",
              "name": "index",
              "type": "uint256"
            }
          ],
          "internalType": "struct PheasantNetworkBridgeChild.UserTrade[]",
          "name": "userTrades",
          "type": "tuple[]"
        }
      ],
      "name": "refund",
      "outputs": [],
      "stateMutability": "nonpayable",
      "type": "function"
    },
    {
      "inputs": [
        {
          "components": [
            {
              "internalType": "address",
              "name": "userAddress",
              "type": "address"
            },
            {
              "internalType": "uint256",
              "name": "index",
              "type": "uint256"
            }
          ],
          "internalType": "struct PheasantNetworkBridgeChild.UserTrade[]",
          "name": "userTrades",
          "type": "tuple[]"
        }
      ],
      "name": "bulkBid",
      "outputs": [],
      "stateMutability": "nonpayable",
      "type": "function"
    },
    {
      "inputs": [
        {
          "components": [
            {
              "internalType": "address",
              "name": "userAddress",
              "type": "address"
            },
            {
              "internalType": "uint256",
              "name": "index",
              "type": "uint256"
            }
          ],
          "internalType": "struct PheasantNetworkBridgeChild.UserTrade[]",
          "name": "_userTrades",
          "type": "tuple[]"
        },
        {
          "components": [
            {
              "internalType": "bytes",
              "name": "blockNumber",
              "type": "bytes"
            },
            {
              "internalType": "bytes32",
              "name": "blockHash",
              "type": "bytes32"
            },
            {
              "internalType": "bytes[]",
              "name": "txReceiptProof",
              "type": "bytes[]"
            },
            {
              "internalType": "bytes[]",
              "name": "txProof",
              "type": "bytes[]"
            },
            {
              "internalType": "bytes",
              "name": "transaction",
              "type": "bytes"
            },
            {
              "internalType": "uint8[]",
              "name": "txDataSpot",
              "type": "uint8[]"
            },
            {
              "internalType": "uint8[]",
              "name": "path",
              "type": "uint8[]"
            },
            {
              "internalType": "bytes",
              "name": "txReceipt",
              "type": "bytes"
            },
            {
              "internalType": "bytes[]",
              "name": "rawTx",
              "type": "bytes[]"
            },
            {
              "internalType": "bytes[]",
              "name": "rawBlockHeader",
              "type": "bytes[]"
            }
          ],
          "internalType": "struct PheasantNetworkBridgeChild.Evidence[]",
          "name": "_evidences",
          "type": "tuple[]"
        }
      ],
      "name": "bulkWithdraw",
      "outputs": [],
      "stateMutability": "nonpayable",
      "type": "function"
    },
    {
      "inputs": [
        {
          "internalType": "bytes",
          "name": "item",
          "type": "bytes"
        }
      ],
      "name": "decodeNode",
      "outputs": [
        {
          "internalType": "bytes[]",
          "name": "",
          "type": "bytes[]"
        }
      ],
      "stateMutability": "pure",
      "type": "function"
    },
    {
      "inputs": [
        {
          "internalType": "address",
          "name": "user",
          "type": "address"
        },
        {
          "internalType": "uint256",
          "name": "index",
          "type": "uint256"
        }
      ],
      "name": "getEvidence",
      "outputs": [
        {
          "components": [
            {
              "internalType": "bytes",
              "name": "blockNumber",
              "type": "bytes"
            },
            {
              "internalType": "bytes32",
              "name": "blockHash",
              "type": "bytes32"
            },
            {
              "internalType": "bytes[]",
              "name": "txReceiptProof",
              "type": "bytes[]"
            },
            {
              "internalType": "bytes[]",
              "name": "txProof",
              "type": "bytes[]"
            },
            {
              "internalType": "bytes",
              "name": "transaction",
              "type": "bytes"
            },
            {
              "internalType": "uint8[]",
              "name": "txDataSpot",
              "type": "uint8[]"
            },
            {
              "internalType": "uint8[]",
              "name": "path",
              "type": "uint8[]"
            },
            {
              "internalType": "bytes",
              "name": "txReceipt",
              "type": "bytes"
            },
            {
              "internalType": "bytes[]",
              "name": "rawTx",
              "type": "bytes[]"
            },
            {
              "internalType": "bytes[]",
              "name": "rawBlockHeader",
              "type": "bytes[]"
            }
          ],
          "internalType": "struct PheasantNetworkBridgeChild.Evidence",
          "name": "",
          "type": "tuple"
        }
      ],
      "stateMutability": "view",
      "type": "function"
    }
  ],
  "bytecode": "0x60806040523480156200001157600080fd5b506040516200447938038062004479833981016040819052620000349162000147565b6200003f33620000c4565b82600060ff168151811062000058576200005862000237565b6020908102919091018101516000805260039091527f3617319a054d772f909f7c479a2cebe5066e836a939412e32403c99029b92eff80546001600160a01b03199081166001600160a01b0393841617909155600493909355600180549093169116179055506200024d565b600080546001600160a01b038381166001600160a01b0319831681178455604051919092169283917f8be0079c531659141344cd1fd0a4f28419497f9722a3daafe3b4186f6b6457e09190a35050565b634e487b7160e01b600052604160045260246000fd5b80516001600160a01b03811681146200014257600080fd5b919050565b6000806000606084860312156200015d57600080fd5b83516001600160401b03808211156200017557600080fd5b818601915086601f8301126200018a57600080fd5b8151602082821115620001a157620001a162000114565b8160051b604051601f19603f83011681018181108682111715620001c957620001c962000114565b60405292835281830193508481018201928a841115620001e857600080fd5b948201945b83861015620002115762000201866200012a565b85529482019493820193620001ed565b8098505050808801519550505050506200022e604085016200012a565b90509250925092565b634e487b7160e01b600052603260045260246000fd5b61421c806200025d6000396000f3fe608060405234801561001057600080fd5b50600436106101725760003560e01c8063715018a6116100de578063b254ee4a11610097578063e290454611610071578063e29045461461035c578063ecccd07814610385578063f2fde38b1461038d578063feeab6aa146103a057600080fd5b8063b254ee4a14610307578063ca142f7514610327578063d62606231461034757600080fd5b8063715018a6146102a057806386d6282c146102a85780638da5cb5b146102bb5780639f07d68c146102cc578063a411aea6146102e1578063a805437f146102f457600080fd5b80634dcb05f9116101305780634dcb05f91461022157806356932ce81461023457806358dc94de146102475780635a6caffc146102725780635b498ee71461028557806366eb9cec1461029857600080fd5b80625a41111461017757806309ec6cc71461018c5780632ebdd8c11461019f5780633c525e8d146101b257806344ebba0d146101ee57806345bc4d101461020e575b600080fd5b61018a610185366004613009565b6103b3565b005b61018a61019a366004613009565b6103eb565b61018a6101ad36600461303e565b6105f6565b6101db6101c036600461309c565b6001600160a01b031660009081526008602052604090205490565b6040519081526020015b60405180910390f35b6102016101fc36600461314c565b610e4d565b6040516101e59190613227565b61018a61021c366004613009565b610ee1565b61018a61022f366004613009565b61115a565b61018a6102423660046132d4565b61124c565b61025a61025536600461338a565b611303565b6040516001600160a01b0390911681526020016101e5565b61018a6102803660046133c3565b61134d565b61018a610293366004613427565b6113e0565b61018a611551565b61018a6115ba565b61018a6102b6366004613009565b6115f0565b6000546001600160a01b031661025a565b6102d461197f565b6040516101e5919061358d565b61018a6102ef3660046135dc565b611a61565b6102d4610302366004613427565b611db0565b61031a610315366004613624565b611e81565b6040516101e591906136e1565b61033a610335366004613624565b6125bc565b6040516101e59190613800565b61034f6126f8565b6040516101e5919061380f565b6101db61036a36600461309c565b6001600160a01b031660009081526007602052604090205490565b61034f612764565b61018a61039b36600461309c565b6127d8565b61034f6103ae366004613009565b612870565b6000546001600160a01b031633146103e65760405162461bcd60e51b81526004016103dd9061385a565b60405180910390fd5b600455565b60006103f733836125bc565b60e081015190915060ff161561044f5760405162461bcd60e51b815260206004820152601a60248201527f43616e27742063616e63656c2061667465722062696464696e6700000000000060448201526064016103dd565b606360e082015233600090815260056020526040902080548291908490811061047a5761047a61388f565b600091825260208083208451600893909302019182558381015160018301805460408088015160ff908116600160a01b9081026001600160a81b03199485166001600160a01b0397881617179094556060808a0151600289015560808a01516003808a019190915560a08b01516004808b018054928a166001600160a01b03199093169290921790915560c08c015160058b01805460e08f015187169099029890971690891617969096179094556101008a0151600689015561012090990151600790970196909655888101519095168652909252928290205493850151915163a9059cbb60e01b815233918101919091526024810191909152911690819063a9059cbb906044015b602060405180830381600087803b15801561059d57600080fd5b505af11580156105b1573d6000803e3d6000fd5b505050506040513d601f19601f820116820180604052508101906105d591906138a5565b6105f15760405162461bcd60e51b81526004016103dd906138c2565b505050565b600061060284846125bc565b60e081015190915060ff1660031461064d5760405162461bcd60e51b815260206004820152600e60248201526d496e76616c69642053746174757360901b60448201526064016103dd565b60c08101516001600160a01b031633146106b35760405162461bcd60e51b815260206004820152602160248201527f4f6e6c792052656c617965722063616e207375626d69742045766964656e63656044820152607360f81b60648201526084016103dd565b6106e26106c360808401846138e9565b8360a0015184610100015185606001516106dd9190613945565b612974565b6107205760405162461bcd60e51b815260206004820152600f60248201526e496e76616c6964205478204461746160881b60448201526064016103dd565b6001546001600160a01b0316633a161a46602084013561074461012086018661395c565b6040518463ffffffff1660e01b815260040161076293929190613a51565b60206040518083038186803b15801561077a57600080fd5b505afa15801561078e573d6000803e3d6000fd5b505050506040513d601f19601f820116820180604052508101906107b291906138a5565b6107f45760405162461bcd60e51b815260206004820152601360248201527224b73b30b634b210213637b1b5a432b0b232b960691b60448201526064016103dd565b6001546001600160a01b0316638c6ffffe61081260808501856138e9565b604051610820929190613a74565b604051908190039020610836606086018661395c565b61084461012088018861395c565b60048181106108555761085561388f565b905060200281019061086791906138e9565b61087460c08a018a61395c565b6040518863ffffffff1660e01b81526004016108969796959493929190613a84565b60206040518083038186803b1580156108ae57600080fd5b505afa1580156108c2573d6000803e3d6000fd5b505050506040513d601f19601f820116820180604052508101906108e691906138a5565b6109255760405162461bcd60e51b815260206004820152601060248201526f24b73b30b634b2102a3c10283937b7b360811b60448201526064016103dd565b6001546001600160a01b03166350328bf961094360808501856138e9565b61095161010087018761395c565b6040518563ffffffff1660e01b81526004016109709493929190613afd565b60206040518083038186803b15801561098857600080fd5b505afa15801561099c573d6000803e3d6000fd5b505050506040513d601f19601f820116820180604052508101906109c091906138a5565b610a025760405162461bcd60e51b8152602060048201526013602482015272496e76616c696420547820656c656d656e747360681b60448201526064016103dd565b60015460c08201516001600160a01b039091169063a47615c790610a2a61010086018661395c565b6040518463ffffffff1660e01b8152600401610a4893929190613b24565b60206040518083038186803b158015610a6057600080fd5b505afa158015610a74573d6000803e3d6000fd5b505050506040513d601f19601f82011682018060405250810190610a9891906138a5565b610ada5760405162461bcd60e51b8152602060048201526013602482015272496e76616c696420547820656c656d656e747360681b60448201526064016103dd565b600073__RLPDecoder____________________________63414928da610b0085806138e9565b60006040518463ffffffff1660e01b8152600401610b2093929190613b49565b60206040518083038186803b158015610b3857600080fd5b505af4158015610b4c573d6000803e3d6000fd5b505050506040513d601f19601f82011682018060405250810190610b709190613b6d565b600154604051632c57625560e01b815260208601356004820152602481018390529192506001600160a01b031690632c5762559060440160206040518083038186803b158015610bbf57600080fd5b505afa158015610bd3573d6000803e3d6000fd5b505050506040513d601f19601f82011682018060405250810190610bf791906138a5565b610c375760405162461bcd60e51b8152602060048201526011602482015270092dcecc2d8d2c840c4d8dec6d690c2e6d607b1b60448201526064016103dd565b600560e083018190526001600160a01b038616600090815260209190915260409020805483919086908110610c6e57610c6e61388f565b6000918252602080832084516008938402909101908155848201516001820180546040808901516001600160a01b039485166001600160a81b031993841617600160a01b60ff92831681029190911790945560608a0151600287015560808a015160038088019190915560a08b0151600480890180546001600160a01b0319169289169290921790915560c08c015160058901805460e08f0151928a169716969096179316909502919091179092556101008901516006860155610120909801516007909401939093558580529183526000805160206141c783398151915254888401805183168752949093528585205493518116855285852094909455935163a9059cbb60e01b815233948101949094526024840182905290911691829063a9059cbb90604401602060405180830381600087803b158015610db057600080fd5b505af1158015610dc4573d6000803e3d6000fd5b505050506040513d601f19601f82011682018060405250810190610de891906138a5565b610e045760405162461bcd60e51b81526004016103dd906138c2565b6040518681526001600160a01b0388169033907fd6b68229c4e9a8dc853d9f22e366175f8f212c20f9aa87308b383ef4ea294b109060200160405180910390a350505050505050565b60405163e5c5e9a360e01b815260609073__RLPDecoder____________________________9063e5c5e9a390610e87908590600401613b86565b60006040518083038186803b158015610e9f57600080fd5b505af4158015610eb3573d6000803e3d6000fd5b505050506040513d6000823e601f3d908101601f19168201604052610edb9190810190613b99565b92915050565b6000610eed33836125bc565b60e081015190915060ff16600314610f0457600080fd5b6101208101514290610f1890610e10612ab8565b10610f2257600080fd5b33600081815260086020908152604080832080549084905560c0860180516001600160a01b03908116865260078552838620549151168552828520859055600460e08801529484526005909252909120805491929184919086908110610f8a57610f8a61388f565b6000918252602091829020835160089290920201908155828201516001820180546040808701516001600160a01b039485166001600160a81b031993841617600160a01b60ff928316810291909117909455606088015160028701556080880151600387015560a08801516004870180546001600160a01b03191691871691909117905560c08089015160058801805460e08c015192891696169590951792169094021790915561010086015160068501556101209095015160079093019290925590860151925187815292169133917f41e6a64fa7aa5d67783457215f3577addb2b6ffe5476a8939954fa617f6b785f910160405180910390a36000805260036020526000805160206141c7833981519152546001600160a01b03168063a9059cbb336110b88686612ab8565b6040516001600160e01b031960e085901b1681526001600160a01b03909216600483015260248201526044015b602060405180830381600087803b1580156110ff57600080fd5b505af1158015611113573d6000803e3d6000fd5b505050506040513d601f19601f8201168201806040525081019061113791906138a5565b6111535760405162461bcd60e51b81526004016103dd906138c2565b5050505050565b336000908152600760205260409020546111749082612ab8565b33600081815260076020908152604080832094909455908052600390526000805160206141c78339815191525491516323b872dd60e01b81526004810191909152306024820152604481018390526001600160a01b039091169081906323b872dd906064015b602060405180830381600087803b1580156111f457600080fd5b505af1158015611208573d6000803e3d6000fd5b505050506040513d601f19601f8201168201806040525081019061122c91906138a5565b6112485760405162461bcd60e51b81526004016103dd906138c2565b5050565b6000546001600160a01b031633146112765760405162461bcd60e51b81526004016103dd9061385a565b60005b83811015611153576112f18585838181106112965761129661388f565b6112ac926020604090920201908101915061309c565b8686848181106112be576112be61388f565b905060400201602001358585858181106112da576112da61388f565b90506020028101906112ec9190613c85565b612acb565b806112fb81613ca6565b915050611279565b6000811561132d575060ff82166000908152600360205260409020546001600160a01b0316610edb565b505060ff166000908152600260205260409020546001600160a01b031690565b6000546001600160a01b031633146113775760405162461bcd60e51b81526004016103dd9061385a565b60005b818110156105f1576113ce8383838181106113975761139761388f565b6113ad926020604090920201908101915061309c565b8484848181106113bf576113bf61388f565b90506040020160200135612d29565b806113d881613ca6565b91505061137a565b6000546001600160a01b0316331461140a5760405162461bcd60e51b81526004016103dd9061385a565b805160005b818110156105f157600061145d84838151811061142e5761142e61388f565b60200260200101516000015185848151811061144c5761144c61388f565b6020026020010151602001516125bc565b60e081015190915060ff166002148061147d575060e081015160ff166063145b15611488575061153c565b60408181015160ff166000908152600360209081529082902054908301516060840151925163a9059cbb60e01b81526001600160a01b03918216600482015260248101939093521690819063a9059cbb90604401602060405180830381600087803b1580156114f657600080fd5b505af115801561150a573d6000803e3d6000fd5b505050506040513d601f19601f8201168201806040525081019061152e91906138a5565b611539575050505050565b50505b8061154681613ca6565b91505061140f565b50565b33600081815260076020908152604080832080549084905592805260039091526000805160206141c783398151915254905163a9059cbb60e01b815260048101939093526024830182905290916001600160a01b0390911690819063a9059cbb906044016111da565b6000546001600160a01b031633146115e45760405162461bcd60e51b81526004016103dd9061385a565b6115ee6000612e82565b565b60006115fc33836125bc565b60e081015190915060ff166002146116565760405162461bcd60e51b815260206004820152601d60248201527f43616e27742064697370757465206265666f726520776974686472617700000060448201526064016103dd565b6080810151429061166990610e10612ab8565b116116ce5760405162461bcd60e51b815260206004820152602f60248201527f4469737075746573206d7573742072756e2077697468696e206f6e6520686f7560448201526e1c881bd9881dda5d1a191c985dd85b608a1b60648201526084016103dd565b600454336000908152600860205260409020546116ea91612ab8565b33600081815260086020908152604080832094909455600360e08601524261012086015291815260059091522080548291908490811061172c5761172c61388f565b90600052602060002090600802016000820151816000015560208201518160010160006101000a8154816001600160a01b0302191690836001600160a01b0316021790555060408201518160010160146101000a81548160ff021916908360ff160217905550606082015181600201556080820151816003015560a08201518160040160006101000a8154816001600160a01b0302191690836001600160a01b0316021790555060c08201518160050160006101000a8154816001600160a01b0302191690836001600160a01b0316021790555060e08201518160050160146101000a81548160ff021916908360ff16021790555061010082015181600601556101208201518160070155905050600a60008260c001516001600160a01b03166001600160a01b031681526020019081526020016000206040518060400160405280336001600160a01b0316815260200184815250908060018154018082558091505060019003906000526020600020906002020160009091909190915060008201518160000160006101000a8154816001600160a01b0302191690836001600160a01b03160217905550602082015181600101555050336001600160a01b03167fa565b03b51c363a9b16ed01ba14aa3dc13e7edece0764e7ebbd640edc9836c708360405161191e91815260200190565b60405180910390a26000805260036020526000805160206141c783398151915254600480546040516323b872dd60e01b8152339281019290925230602483015260448201526001600160a01b039091169081906323b872dd90606401610583565b336000908152600560209081526040808320805482518185028101850190935280835260609492939192909184015b82821015611a58576000848152602090819020604080516101408101825260088602909201805483526001808201546001600160a01b038082168688015260ff600160a01b9283900481169587019590955260028401546060870152600384015460808701526004840154811660a0870152600584015490811660c08701520490921660e084015260068101546101008401526007015461012083015290835290920191016119ae565b50505050905090565b60ff811615611ab25760405162461bcd60e51b815260206004820152601860248201527f4f6e6c792045544820537570706f727420666f72206e6f77000000000000000060448201526064016103dd565b60056000336001600160a01b03166001600160a01b0316815260200190815260200160002060405180610140016040528060056000336001600160a01b03166001600160a01b03168152602001908152602001600020805490508152602001336001600160a01b031681526020018360ff168152602001868152602001428152602001856001600160a01b0316815260200160006001600160a01b03168152602001600060ff1681526020018481526020014281525090806001815401808255809150506001900390600052602060002090600802016000909190919091506000820151816000015560208201518160010160006101000a8154816001600160a01b0302191690836001600160a01b0316021790555060408201518160010160146101000a81548160ff021916908360ff160217905550606082015181600201556080820151816003015560a08201518160040160006101000a8154816001600160a01b0302191690836001600160a01b0316021790555060c08201518160050160006101000a8154816001600160a01b0302191690836001600160a01b0316021790555060e08201518160050160146101000a81548160ff021916908360ff16021790555061010082015181600601556101208201518160070155505060096040518060400160405280336001600160a01b03168152602001600160056000336001600160a01b03166001600160a01b0316815260200190815260200160002080549050611ce19190613945565b90528154600180820184556000938452602093849020835160029093020180546001600160a01b0319166001600160a01b03909316929092178255918301519101556040805160ff8416815291820186905233917fe84a95d88691b7f08c7acf6f6e2bc286b991a1a089f6a4717728af31ee5b4b6e910160405180910390a260ff8116600090815260036020526040908190205490516323b872dd60e01b8152336004820152306024820152604481018690526001600160a01b039091169081906323b872dd906064016110e5565b80516060906000816001600160401b03811115611dcf57611dcf6130b7565b604051908082528060200260200182016040528015611e0857816020015b611df5612f95565b815260200190600190039081611ded5790505b50905060005b82811015611e7957611e49858281518110611e2b57611e2b61388f565b60200260200101516000015186838151811061144c5761144c61388f565b828281518110611e5b57611e5b61388f565b60200260200101819052508080611e7190613ca6565b915050611e0e565b509392505050565b611eda604051806101400160405280606081526020016000801916815260200160608152602001606081526020016060815260200160608152602001606081526020016060815260200160608152602001606081525090565b60408051602080820183526000918290526001600160a01b038616825260068152828220858352905281902090517fc5d2460186f7233c927e7db2dcc703c0e500b653ca82273b7bfad8045d85a47091611f3391613cfc565b60405180910390201415611f775760405162461bcd60e51b815260206004820152600b60248201526a4e6f2045766964656e636560a81b60448201526064016103dd565b6001600160a01b03831660009081526006602090815260408083208584529091529081902081516101408101909252805482908290611fb590613cc1565b80601f0160208091040260200160405190810160405280929190818152602001828054611fe190613cc1565b801561202e5780601f106120035761010080835404028352916020019161202e565b820191906000526020600020905b81548152906001019060200180831161201157829003601f168201915b505050505081526020016001820154815260200160028201805480602002602001604051908101604052809291908181526020016000905b8282101561211257838290600052602060002001805461208590613cc1565b80601f01602080910402602001604051908101604052809291908181526020018280546120b190613cc1565b80156120fe5780601f106120d3576101008083540402835291602001916120fe565b820191906000526020600020905b8154815290600101906020018083116120e157829003601f168201915b505050505081526020019060010190612066565b50505050815260200160038201805480602002602001604051908101604052809291908181526020016000905b828210156121eb57838290600052602060002001805461215e90613cc1565b80601f016020809104026020016040519081016040528092919081815260200182805461218a90613cc1565b80156121d75780601f106121ac576101008083540402835291602001916121d7565b820191906000526020600020905b8154815290600101906020018083116121ba57829003601f168201915b50505050508152602001906001019061213f565b50505050815260200160048201805461220390613cc1565b80601f016020809104026020016040519081016040528092919081815260200182805461222f90613cc1565b801561227c5780601f106122515761010080835404028352916020019161227c565b820191906000526020600020905b81548152906001019060200180831161225f57829003601f168201915b50505050508152602001600582018054806020026020016040519081016040528092919081815260200182805480156122f257602002820191906000526020600020906000905b825461010083900a900460ff168152602060019283018181049485019490930390920291018084116122c35790505b505050505081526020016006820180548060200260200160405190810160405280929190818152602001828054801561236857602002820191906000526020600020906000905b825461010083900a900460ff168152602060019283018181049485019490930390920291018084116123395790505b5050505050815260200160078201805461238190613cc1565b80601f01602080910402602001604051908101604052809291908181526020018280546123ad90613cc1565b80156123fa5780601f106123cf576101008083540402835291602001916123fa565b820191906000526020600020905b8154815290600101906020018083116123dd57829003601f168201915b5050505050815260200160088201805480602002602001604051908101604052809291908181526020016000905b828210156124d457838290600052602060002001805461244790613cc1565b80601f016020809104026020016040519081016040528092919081815260200182805461247390613cc1565b80156124c05780601f10612495576101008083540402835291602001916124c0565b820191906000526020600020905b8154815290600101906020018083116124a357829003601f168201915b505050505081526020019060010190612428565b50505050815260200160098201805480602002602001604051908101604052809291908181526020016000905b828210156125ad57838290600052602060002001805461252090613cc1565b80601f016020809104026020016040519081016040528092919081815260200182805461254c90613cc1565b80156125995780601f1061256e57610100808354040283529160200191612599565b820191906000526020600020905b81548152906001019060200180831161257c57829003601f168201915b505050505081526020019060010190612501565b50505091525090949350505050565b6125c4612f95565b82826125d1816001613d6e565b6001600160a01b038316600090815260056020526040902054101561262a5760405162461bcd60e51b815260206004820152600f60248201526e4e6f2054726164652045786973747360881b60448201526064016103dd565b6001600160a01b03851660009081526005602052604090208054859081106126545761265461388f565b6000918252602091829020604080516101408101825260089093029091018054835260018101546001600160a01b038082169585019590955260ff600160a01b9182900481169385019390935260028201546060850152600382015460808501526004820154851660a0850152600582015494851660c08501529093041660e082015260068201546101008201526007909101546101208201529250505092915050565b60606009805480602002602001604051908101604052809291908181526020016000905b82821015611a58576000848152602090819020604080518082019091526002850290910180546001600160a01b0316825260019081015482840152908352909201910161271c565b336000908152600a60209081526040808320805482518185028101850190935280835260609492939192909184018215611a58576000848152602090819020604080518082019091526002850290910180546001600160a01b0316825260019081015482840152908352909201910161271c565b6000546001600160a01b031633146128025760405162461bcd60e51b81526004016103dd9061385a565b6001600160a01b0381166128675760405162461bcd60e51b815260206004820152602660248201527f4f776e61626c653a206e6577206f776e657220697320746865207a65726f206160448201526564647265737360d01b60648201526084016103dd565b61154e81612e82565b600954606090600090612884908490613945565b90506000816001600160401b038111156128a0576128a06130b7565b6040519080825280602002602001820160405280156128e557816020015b60408051808201909152600080825260208201528152602001906001900390816128be5790505b50905060005b82811015611e795760096128ff8287613d6e565b8154811061290f5761290f61388f565b60009182526020918290206040805180820190915260029092020180546001600160a01b03168252600101549181019190915282518390839081106129565761295661388f565b6020026020010181905250808061296c90613ca6565b9150506128eb565b6000806129c1612987866001818a613d86565b8080601f016020809104026020016040519081016040528093929190818152602001838380828437600092019190915250610e4d92505050565b90506000816006815181106129d8576129d861388f565b602002602001015190506000826005815181106129f7576129f761388f565b60200260200101519050600082516020612a119190613945565b6001600160401b03811115612a2857612a286130b7565b6040519080825280601f01601f191660200182016040528015612a52576020820181803683370190505b509050866001600160a01b0316612a6a836000612ed2565b6001600160a01b0316148015612aab575085612aa88285604051602001612a92929190613db0565b6040516020818303038152906040526000612f37565b10155b9998505050505050505050565b6000612ac48284613d6e565b9392505050565b6000612ad784846125bc565b60e081015190915060ff16600114612aef5750505050565b60c08101516001600160a01b03163314612b095750505050565b612b196106c360808401846138e9565b612b235750505050565b600260e08201526001600160a01b038416600090815260066020908152604080832086845290915290208290612b5982826140bd565b50506001600160a01b0384166000908152600560205260409020805482919085908110612b8857612b8861388f565b6000918252602091829020835160089290920201908155828201516001820180546040808701516001600160a01b039485166001600160a81b031993841617600160a01b60ff928316810291909117909455606088015160028701556080880151600387015560a08801516004870180546001600160a01b03191691871691909117905560c088015160058701805460e08b0151928816951694909417911690930292909217905561010085015160068401556101209094015160079092019190915591518581529186169133917f9b1bfa7fa9ee420a16e124f794c35ac9f90472acc99140eb2f6447c714cad8eb910160405180910390a360408181015160ff1660009081526003602052819020546060830151915163a9059cbb60e01b815233600482015260248101929092526001600160a01b031690819063a9059cbb90604401602060405180830381600087803b158015612ce657600080fd5b505af1158015612cfa573d6000803e3d6000fd5b505050506040513d601f19601f82011682018060405250810190612d1e91906138a5565b611153575050505050565b6000612d3583836125bc565b60e081015190915060ff1615612d4a57505050565b3360c0820152600160e08201526001600160a01b0383166000908152600560205260409020805482919084908110612d8457612d8461388f565b6000918252602091829020835160089290920201908155828201516001820180546040808701516001600160a01b039485166001600160a81b031993841617600160a01b60ff928316810291909117909455606088015160028701556080880151600387015560a08801516004870180546001600160a01b03191691871691909117905560c088015160058701805460e08b0151928816951694909417911690930292909217905561010085015160068401556101209094015160079092019190915591518481529185169133917f842e4ae7da4b79045ffc21a8cb68d8abad9705bff11e838c1623bb83f243c626910160405180910390a3505050565b600080546001600160a01b038381166001600160a01b0319831681178455604051919092169283917f8be0079c531659141344cd1fd0a4f28419497f9722a3daafe3b4186f6b6457e09190a35050565b6000612edf826014613d6e565b83511015612f275760405162461bcd60e51b8152602060048201526015602482015274746f416464726573735f6f75744f66426f756e647360581b60448201526064016103dd565b500160200151600160601b900490565b6000612f44826020613d6e565b83511015612f8c5760405162461bcd60e51b8152602060048201526015602482015274746f55696e743235365f6f75744f66426f756e647360581b60448201526064016103dd565b50016020015190565b6040518061014001604052806000815260200160006001600160a01b03168152602001600060ff168152602001600081526020016000815260200160006001600160a01b0316815260200160006001600160a01b03168152602001600060ff16815260200160008152602001600081525090565b60006020828403121561301b57600080fd5b5035919050565b80356001600160a01b038116811461303957600080fd5b919050565b60008060006060848603121561305357600080fd5b61305c84613022565b92506020840135915060408401356001600160401b0381111561307e57600080fd5b8401610140818703121561309157600080fd5b809150509250925092565b6000602082840312156130ae57600080fd5b612ac482613022565b634e487b7160e01b600052604160045260246000fd5b604080519081016001600160401b03811182821017156130ef576130ef6130b7565b60405290565b604051601f8201601f191681016001600160401b038111828210171561311d5761311d6130b7565b604052919050565b60006001600160401b0382111561313e5761313e6130b7565b50601f01601f191660200190565b60006020828403121561315e57600080fd5b81356001600160401b0381111561317457600080fd5b8201601f8101841361318557600080fd5b803561319861319382613125565b6130f5565b8181528560208385010111156131ad57600080fd5b81602084016020830137600091810160200191909152949350505050565b60005b838110156131e65781810151838201526020016131ce565b838111156131f5576000848401525b50505050565b600081518084526132138160208601602086016131cb565b601f01601f19169290920160200192915050565b6000602080830181845280855180835260408601915060408160051b870101925083870160005b8281101561327c57603f1988860301845261326a8583516131fb565b9450928501929085019060010161324e565b5092979650505050505050565b60008083601f84011261329b57600080fd5b5081356001600160401b038111156132b257600080fd5b6020830191508360208260061b85010111156132cd57600080fd5b9250929050565b600080600080604085870312156132ea57600080fd5b84356001600160401b038082111561330157600080fd5b61330d88838901613289565b9096509450602087013591508082111561332657600080fd5b818701915087601f83011261333a57600080fd5b81358181111561334957600080fd5b8860208260051b850101111561335e57600080fd5b95989497505060200194505050565b60ff8116811461154e57600080fd5b801515811461154e57600080fd5b6000806040838503121561339d57600080fd5b82356133a88161336d565b915060208301356133b88161337c565b809150509250929050565b600080602083850312156133d657600080fd5b82356001600160401b038111156133ec57600080fd5b6133f885828601613289565b90969095509350505050565b60006001600160401b0382111561341d5761341d6130b7565b5060051b60200190565b6000602080838503121561343a57600080fd5b82356001600160401b0381111561345057600080fd5b8301601f8101851361346157600080fd5b803561346f61319382613404565b81815260069190911b8201830190838101908783111561348e57600080fd5b928401925b828410156134d857604084890312156134ac5760008081fd5b6134b46130cd565b6134bd85613022565b81528486013586820152825260409093019290840190613493565b979650505050505050565b80518252602081015161350160208401826001600160a01b03169052565b506040810151613516604084018260ff169052565b50606081015160608301526080810151608083015260a081015161354560a08401826001600160a01b03169052565b5060c081015161356060c08401826001600160a01b03169052565b5060e081015161357560e084018260ff169052565b50610100818101519083015261012090810151910152565b6020808252825182820181905260009190848201906040850190845b818110156135d0576135bc8385516134e3565b9284019261014092909201916001016135a9565b50909695505050505050565b600080600080608085870312156135f257600080fd5b8435935061360260208601613022565b92506040850135915060608501356136198161336d565b939692955090935050565b6000806040838503121561363757600080fd5b61364083613022565b946020939093013593505050565b600081518084526020808501808196508360051b8101915082860160005b858110156136965782840389526136848483516131fb565b9885019893509084019060010161366c565b5091979650505050505050565b600081518084526020808501945080840160005b838110156136d657815160ff16875295820195908201906001016136b7565b509495945050505050565b60208152600082516101408060208501526137006101608501836131fb565b9150602085015160408501526040850151601f1980868503016060870152613728848361364e565b93506060870151915080868503016080870152613745848361364e565b935060808701519150808685030160a087015261376284836131fb565b935060a08701519150808685030160c087015261377f84836136a3565b935060c08701519150808685030160e087015261379c84836136a3565b935060e087015191506101008187860301818801526137bb85846131fb565b9450808801519250506101208187860301818801526137da858461364e565b9088015187820390920184880152935090506137f6838261364e565b9695505050505050565b6101408101610edb82846134e3565b602080825282518282018190526000919060409081850190868401855b8281101561369657815180516001600160a01b0316855286015186850152928401929085019060010161382c565b6020808252818101527f4f776e61626c653a2063616c6c6572206973206e6f7420746865206f776e6572604082015260600190565b634e487b7160e01b600052603260045260246000fd5b6000602082840312156138b757600080fd5b8151612ac48161337c565b6020808252600d908201526c151c985b9cd9995c8811985a5b609a1b604082015260600190565b6000808335601e1984360301811261390057600080fd5b8301803591506001600160401b0382111561391a57600080fd5b6020019150368190038213156132cd57600080fd5b634e487b7160e01b600052601160045260246000fd5b6000828210156139575761395761392f565b500390565b6000808335601e1984360301811261397357600080fd5b8301803591506001600160401b0382111561398d57600080fd5b6020019150600581901b36038213156132cd57600080fd5b81835281816020850137506000828201602090810191909152601f909101601f19169091010190565b81835260006020808501808196508560051b810191508460005b878110156136965782840389528135601e19883603018112613a0957600080fd5b870180356001600160401b03811115613a2157600080fd5b803603891315613a3057600080fd5b613a3d86828985016139a5565b9a87019a95505050908401906001016139e8565b838152604060208201526000613a6b6040830184866139ce565b95945050505050565b8183823760009101908152919050565b87815260006020608081840152613a9f60808401898b6139ce565b8381036040850152613ab281888a6139a5565b8481036060860152858152869150820160005b86811015613aed578235613ad88161336d565b60ff1682529183019190830190600101613ac5565b509b9a5050505050505050505050565b604081526000613b116040830186886139a5565b82810360208401526134d88185876139ce565b6001600160a01b0384168152604060208201819052600090613a6b90830184866139ce565b604081526000613b5d6040830185876139a5565b9050826020830152949350505050565b600060208284031215613b7f57600080fd5b5051919050565b602081526000612ac460208301846131fb565b60006020808385031215613bac57600080fd5b82516001600160401b0380821115613bc357600080fd5b818501915085601f830112613bd757600080fd5b8151613be561319382613404565b81815260059190911b83018401908481019088831115613c0457600080fd5b8585015b83811015613c7857805185811115613c205760008081fd5b8601603f81018b13613c325760008081fd5b878101516040613c4461319383613125565b8281528d82848601011115613c595760008081fd5b613c68838c83018487016131cb565b8652505050918601918601613c08565b5098975050505050505050565b6000823561013e19833603018112613c9c57600080fd5b9190910192915050565b6000600019821415613cba57613cba61392f565b5060010190565b600181811c90821680613cd557607f821691505b60208210811415613cf657634e487b7160e01b600052602260045260246000fd5b50919050565b6000808354613d0a81613cc1565b60018281168015613d225760018114613d3357613d62565b60ff19841687528287019450613d62565b8760005260208060002060005b85811015613d595781548a820152908401908201613d40565b50505082870194505b50929695505050505050565b60008219821115613d8157613d8161392f565b500190565b60008085851115613d9657600080fd5b83861115613da357600080fd5b5050820193919092039150565b60008351613dc28184602088016131cb565b835190830190613dd68183602088016131cb565b01949350505050565b5b818110156112485760008155600101613de0565b601f8211156105f157806000526020600020601f840160051c81016020851015613e1b5750805b611153601f850160051c830182613ddf565b6001600160401b03831115613e4457613e446130b7565b613e5883613e528354613cc1565b83613df4565b6000601f841160018114613e8c5760008515613e745750838201355b600019600387901b1c1916600186901b178355611153565b600083815260209020601f19861690835b82811015613ebd5786850135825560209485019460019092019101613e9d565b5086821015613eda5760001960f88860031b161c19848701351681555b505060018560011b0183555050505050565b600160401b831115613f0057613f006130b7565b805483825580841015613f89576000828152602081208581019083015b80821015613f8557613f2f8254613cc1565b8015613f7957601f80821160018114613f4a57858555613f76565b600085815260209020613f6783850160051c820160018301613ddf565b50600085815260208120818755555b50505b50600182019150613f1d565b5050505b5060008181526020812083915b85811015613fc857613fa883866138e9565b613fb3818386613e2d565b50506020929092019160019182019101613f96565b505050505050565b60008135610edb8161336d565b600160401b831115613ff157613ff16130b7565b80548382558084101561404d57816000526020600020601f850160051c8101601f861680156140375761403781600019840180546000198360200360031b1c1681555050565b5061404a601f840160051c830182613ddf565b50505b506000818152602081208391805b868110156140b45761408c61406f85613fd0565b845460ff600386901b81811b801990931693909116901b16178455565b60208401935060018083019250601f8311156140ab5792830192600092505b5060010161405b565b50505050505050565b6140c782836138e9565b6140d2818385613e2d565b5050602082013560018201556140eb604083018361395c565b6140f9818360028601613eec565b5050614108606083018361395c565b614116818360038601613eec565b505061412560808301836138e9565b614133818360048601613e2d565b505061414260a083018361395c565b614150818360058601613fdd565b505061415f60c083018361395c565b61416d818360068601613fdd565b505061417c60e08301836138e9565b61418a818360078601613e2d565b505061419a61010083018361395c565b6141a8818360088601613eec565b50506141b861012083018361395c565b6131f5818360098601613eec56fe3617319a054d772f909f7c479a2cebe5066e836a939412e32403c99029b92effa2646970667358221220b3425c42b1236757194db83e6a4eeba1eeb50af3fe8c5d25e688f1df6fefe3f864736f6c63430008090033",
  "immutableReferences": {},
  "source": "// SPDX-License-Identifier: MIT\npragma solidity 0.8.9;\nimport \"@openzeppelin/contracts/token/ERC20/IERC20.sol\";\nimport \"@openzeppelin/contracts/access/Ownable.sol\";\nimport \"@openzeppelin/contracts/utils/math/SafeMath.sol\";\nimport {RLPDecoder} from \"./RLPDecoder.sol\";\n\ninterface PheasantNetworkDisputeManagerInterface {\n    function verifyBlockHeader(bytes32 blockHash, bytes[] calldata blockHeaderRaw) external pure returns (bool);\n\n    function verifyProof(\n        bytes32 txHash,\n        bytes[] memory proof,\n        bytes memory bytesRoot,\n        uint8[] memory path\n    ) external pure returns (bool);\n\n    function verifyRawTx(bytes memory transaction, bytes[] calldata txRaw) external pure returns (bool);\n\n    function verifyTxSignature(address from, bytes[] calldata txRaw) external pure returns (bool);\n\n    function verifyBlockHash(bytes32 _blockHash, uint256 _blockNumber) external view returns (bool);\n}\n\ncontract PheasantNetworkBridgeChild is Ownable {\n    using SafeMath for uint256;\n\n    constructor(\n        address[] memory _tokenAddressList,\n        uint256 _userDepositThreshold,\n        address _disputeManager\n    ) {\n        tokenAddressL2[ETH_TOKEN_INDEX] = _tokenAddressList[ETH_TOKEN_INDEX];\n        userDepositThreshold = _userDepositThreshold;\n        disputeManager = PheasantNetworkDisputeManagerInterface(_disputeManager);\n    }\n\n    PheasantNetworkDisputeManagerInterface internal disputeManager;\n    mapping(uint8 => address) internal tokenAddressL1;\n    mapping(uint8 => address) internal tokenAddressL2;\n    uint8 constant ETH_TOKEN_INDEX = 0;\n    uint8 constant MATIC_TOKEN_INDEX = 1;\n    uint8 constant STATUS_START = 0;\n    uint8 constant STATUS_BID = 1;\n    uint8 constant STATUS_PAID = 2;\n    uint8 constant STATUS_DISPUTE = 3;\n    uint8 constant STATUS_SLASHED = 4;\n    uint8 constant STATUS_COMPLETE = 5;\n    uint8 constant STATUS_CANCEL = 99;\n    bytes constant TRANSFER_METHOD_ID = bytes(hex\"a9059cbb\");\n    uint256 constant GRACE_PERIOD = 1 hours;\n    uint256 constant DISPUTABLE_PERIOD = 1 hours;\n    uint256 constant BLOCKHEADER_TRANSACTIONROOT_INDEX = 4;\n    uint256 constant TRANSACTION_TO_INDEX = 5;\n    uint256 constant TRANSACTION_VALUE_INDEX = 6;\n    uint256 internal userDepositThreshold;\n    mapping(address => Trade[]) internal trades;\n    mapping(address => mapping(uint256 => Evidence)) internal evidences;\n    mapping(address => uint256) internal relayerBond;\n    mapping(address => uint256) internal userDeposit;\n    //uint constant SUBMIT_LIMIT_BLOCK_INTERVAL = 150; //approximately 30 min.\n\n    event NewTrade(address indexed userAddress, uint8 tokenTypeIndex, uint256 amount);\n    event Bid(address indexed relayer, address indexed userAddress, uint256 index);\n    event Withdraw(address indexed relayer, address indexed userAddress, uint256 index);\n    event Dispute(address indexed userAddress, uint256 index);\n    event Slash(address indexed userAddress, uint256 index, address indexed relayer);\n    event Submit(address indexed relayer, address indexed userAddress, uint256 index);\n\n    struct UserTrade {\n        address userAddress;\n        uint256 index;\n    }\n\n    UserTrade[] internal userTradeList;\n    mapping(address => UserTrade[]) internal disputeList;\n\n    struct Trade {\n        uint256 index;\n        address user;\n        uint8 tokenTypeIndex;\n        uint256 amount;\n        uint256 timestamp;\n        address to;\n        address relayer;\n        uint8 status;\n        uint256 fee;\n        uint256 disputeTimestamp;\n    }\n\n    struct Evidence {\n        bytes blockNumber;\n        bytes32 blockHash;\n        bytes[] txReceiptProof;\n        bytes[] txProof;\n        bytes transaction;\n        uint8[] txDataSpot;\n        uint8[] path;\n        bytes txReceipt;\n        bytes[] rawTx;\n        bytes[] rawBlockHeader;\n    }\n\n    function newTrade(\n        uint256 amount,\n        address to,\n        uint256 fee,\n        uint8 tokenTypeIndex\n    ) external {\n        require(tokenTypeIndex == ETH_TOKEN_INDEX, \"Only ETH Support for now\");\n        trades[msg.sender].push(\n            Trade(\n                trades[msg.sender].length,\n                msg.sender,\n                tokenTypeIndex,\n                amount,\n                block.timestamp,\n                to,\n                address(0x0),\n                STATUS_START,\n                fee,\n                block.timestamp\n            )\n        );\n\n        userTradeList.push(UserTrade(msg.sender, trades[msg.sender].length - 1));\n        emit NewTrade(msg.sender, tokenTypeIndex, amount);\n\n        IERC20 token = IERC20(tokenAddressL2[tokenTypeIndex]);\n        require(token.transferFrom(msg.sender, address(this), amount), \"Transfer Fail\");\n    }\n\n    function setUserDepositThreshold(uint256 threshold) external onlyOwner {\n        userDepositThreshold = threshold;\n    }\n\n    function getTokenAddress(uint8 tokenTypeIndex, bool isL2) external view returns (address) {\n        if (isL2) {\n            return tokenAddressL2[tokenTypeIndex];\n        }\n        return tokenAddressL1[tokenTypeIndex];\n    }\n\n    function cancelTrade(uint256 index) external {\n        Trade memory trade = getTrade(msg.sender, index);\n        require(trade.status == STATUS_START, \"Can't cancel after bidding\");\n        trade.status = STATUS_CANCEL;\n        trades[msg.sender][index] = trade;\n        IERC20 token = IERC20(tokenAddressL2[trade.tokenTypeIndex]);\n        require(token.transfer(msg.sender, trade.amount), \"Transfer Fail\");\n    }\n\n    function dispute(uint256 index) external {\n        Trade memory trade = getTrade(msg.sender, index);\n        require(trade.status == STATUS_PAID, \"Can't dispute before withdraw\");\n        require(trade.timestamp.add(DISPUTABLE_PERIOD) > block.timestamp, \"Disputes must run within one hour of withdrawal\");\n\n        userDeposit[msg.sender] = userDeposit[msg.sender].add(userDepositThreshold);\n\n        trade.status = STATUS_DISPUTE;\n        trade.disputeTimestamp = block.timestamp;\n        trades[msg.sender][index] = trade;\n        disputeList[trade.relayer].push(UserTrade(msg.sender, index));\n\n        emit Dispute(msg.sender, index);\n\n        IERC20 token = IERC20(tokenAddressL2[ETH_TOKEN_INDEX]);\n        require(token.transferFrom(msg.sender, address(this), userDepositThreshold), \"Transfer Fail\");\n    }\n\n    function slash(uint256 index) external {\n        Trade memory trade = getTrade(msg.sender, index);\n        require(trade.status == STATUS_DISPUTE);\n        require(trade.disputeTimestamp.add(GRACE_PERIOD) < block.timestamp);\n\n        uint256 userDepositAmount = userDeposit[msg.sender];\n        userDeposit[msg.sender] = 0;\n\n        uint256 relayerBondAmount = relayerBond[trade.relayer];\n        relayerBond[trade.relayer] = 0;\n\n        trade.status = STATUS_SLASHED;\n        trades[msg.sender][index] = trade;\n\n        emit Slash(msg.sender, index, trade.relayer);\n\n        IERC20 token = IERC20(tokenAddressL2[ETH_TOKEN_INDEX]);\n        require(token.transfer(msg.sender, userDepositAmount.add(relayerBondAmount)), \"Transfer Fail\");\n    }\n\n    function submitEvidence(\n        address user,\n        uint256 index,\n        Evidence calldata evidence\n    ) external {\n        Trade memory trade = getTrade(user, index);\n        require(trade.status == STATUS_DISPUTE, \"Invalid Status\");\n        require(trade.relayer == msg.sender, \"Only Relayer can submit Evidences\");\n\n        require(checkTransferTx(evidence.transaction, trade.to, trade.amount - trade.fee), \"Invalid Tx Data\");\n        require(disputeManager.verifyBlockHeader(evidence.blockHash, evidence.rawBlockHeader), \"Invalid BlockHeader\");\n        require(disputeManager.verifyProof(keccak256(evidence.transaction), evidence.txProof, evidence.rawBlockHeader[BLOCKHEADER_TRANSACTIONROOT_INDEX], evidence.path), \"Invalid Tx Proof\");\n        require(disputeManager.verifyRawTx(evidence.transaction, evidence.rawTx), \"Invalid Tx elements\");\n        require(disputeManager.verifyTxSignature(trade.relayer, evidence.rawTx), \"Invalid Tx elements\");\n        uint256 blockNumber = uint256(RLPDecoder.toUintX(evidence.blockNumber, 0));\n        require(disputeManager.verifyBlockHash(evidence.blockHash, blockNumber), \"Invalid blockHash\");\n\n        trade.status = STATUS_COMPLETE;\n        trades[user][index] = trade;\n\n        IERC20 token = IERC20(tokenAddressL2[ETH_TOKEN_INDEX]);\n        uint256 userDepositAmount = userDeposit[trade.user];\n        userDeposit[trade.user] = 0;\n        require(token.transfer(msg.sender, userDepositAmount), \"Transfer Fail\");\n        emit Submit(msg.sender, user, index);\n    }\n\n    function getDisputeList() external view returns (UserTrade[] memory) {\n        return disputeList[msg.sender];\n    }\n\n    function getTrade(address user, uint256 index) public isTradeExist(user, index) view returns (Trade memory) {\n        return trades[user][index];\n    }\n\n    function getUserTradeList() external view returns (UserTrade[] memory) {\n        return userTradeList;\n    }\n\n    function getUserTradeListByIndex(uint256 _index) external view returns (UserTrade[] memory) {\n        uint256 length = userTradeList.length - _index;\n        UserTrade[] memory result = new UserTrade[](length);\n\n        for (uint256 i = 0; i < length; i++) {\n            result[i] = userTradeList[_index + i];\n        }\n        return result;\n    }\n\n    function getTrades(UserTrade[] memory userTrades) external view returns (Trade[] memory) {\n        uint256 length = userTrades.length;\n        Trade[] memory tradeList = new Trade[](length);\n\n        for (uint256 i = 0; i < length; i++) {\n            tradeList[i] = getTrade(userTrades[i].userAddress, userTrades[i].index);\n        }\n\n        return tradeList;\n    }\n\n    function getTradeList() external view returns (Trade[] memory) {\n        return trades[msg.sender];\n    }\n\n    modifier isTradeExist(address user, uint256 index) {\n        require(trades[user].length >= index + 1, \"No Trade Exists\");\n        _;\n    }\n\n    function getRelayerBondBalance(address account) external view returns (uint256) {\n        return relayerBond[account];\n    }\n\n    function getUserDepositBalance(address account) external view returns (uint256) {\n        return userDeposit[account];\n    }\n\n    function depositBond(uint256 amount) external {\n        relayerBond[msg.sender] = relayerBond[msg.sender].add(amount);\n        IERC20 token = IERC20(tokenAddressL2[ETH_TOKEN_INDEX]);\n        require(token.transferFrom(msg.sender, address(this), amount), \"Transfer Fail\");\n    }\n\n    function withdrawBond() external {\n        uint256 amount = relayerBond[msg.sender];\n        relayerBond[msg.sender] = 0;\n        IERC20 token = IERC20(tokenAddressL2[ETH_TOKEN_INDEX]);\n        require(token.transfer(msg.sender, amount), \"Transfer Fail\");\n    }\n\n    function bid(address user, uint256 index) internal {\n        Trade memory trade = getTrade(user, index);\n        if (trade.status != STATUS_START) return;\n        trade.relayer = msg.sender;\n        trade.status = STATUS_BID;\n        trades[user][index] = trade;\n\n        emit Bid(msg.sender, user, index);\n    }\n\n    function refund(UserTrade[] memory userTrades) external onlyOwner {\n        uint256 length = userTrades.length;\n\n        for (uint256 i = 0; i < length; i++) {\n            Trade memory trade = getTrade(userTrades[i].userAddress, userTrades[i].index);\n\n            if (trade.status == STATUS_PAID || trade.status == STATUS_CANCEL) continue;\n            IERC20 token = IERC20(tokenAddressL2[trade.tokenTypeIndex]);\n            if (!token.transfer(trade.user, trade.amount)) return;\n        }\n    }\n\n    function bulkBid(UserTrade[] calldata userTrades) external onlyOwner {\n        //require(getRelayerBondBalance(msg.sender) >= 100); //TODO\n        for (uint256 i = 0; i < userTrades.length; i++) {\n            bid(userTrades[i].userAddress, userTrades[i].index);\n        }\n    }\n\n    function bulkWithdraw(UserTrade[] calldata _userTrades, Evidence[] calldata _evidences) external onlyOwner {\n        for (uint256 i = 0; i < _userTrades.length; i++) {\n            withdraw(_userTrades[i].userAddress, _userTrades[i].index, _evidences[i]);\n        }\n    }\n\n    function withdraw(\n        address user,\n        uint256 index,\n        Evidence calldata evidence\n    ) internal {\n        //require(block.number >= toUint256(evidence.blockNumber) + SUBMIT_LIMIT_BLOCK_INTERVAL); //TODO\n        Trade memory trade = getTrade(user, index);\n        if (trade.status != STATUS_BID) return;\n        if (trade.relayer != msg.sender) return;\n        if (!checkTransferTx(evidence.transaction, trade.to, trade.amount - trade.fee)) return;\n\n        trade.status = STATUS_PAID;\n        evidences[user][index] = evidence;\n        trades[user][index] = trade;\n\n        emit Withdraw(msg.sender, user, index);\n\n        IERC20 token = IERC20(tokenAddressL2[trade.tokenTypeIndex]);\n        if (!token.transfer(msg.sender, trade.amount)) return;\n\n    }\n\n    function checkTransferTx(\n        bytes calldata transaction,\n        address recipient,\n        uint256 amount\n    ) internal pure returns (bool) {\n        bytes[] memory decodedTx = decodeNode(transaction[1:]);\n        bytes memory value = decodedTx[TRANSACTION_VALUE_INDEX];\n        bytes memory to = decodedTx[TRANSACTION_TO_INDEX];\n        bytes memory prefix = new bytes(32 - value.length);\n        return toAddress(to, 0) == recipient && toUint256(bytes.concat(prefix, value), 0) >= amount;\n    }\n\n    function decodeNode(bytes memory item) public pure returns (bytes[] memory) {\n        return RLPDecoder.decode(item);\n    }\n\n    function getEvidence(address user, uint256 index) public view returns (Evidence memory) {\n        require(keccak256(evidences[user][index].blockNumber) != keccak256(bytes(\"\")), \"No Evidence\");\n        return evidences[user][index];\n    }\n\n    function toUint256(bytes memory _bytes, uint256 _start) internal pure returns (uint256) {\n        require(_bytes.length >= _start + 32, \"toUint256_outOfBounds\");\n        uint256 tempUint;\n\n        assembly {\n            tempUint := mload(add(add(_bytes, 0x20), _start))\n        }\n\n        return tempUint;\n    }\n\n    function toAddress(bytes memory _bytes, uint256 _start) internal pure returns (address) {\n        require(_bytes.length >= _start + 20, \"toAddress_outOfBounds\");\n        address tempAddress;\n\n        assembly {\n            tempAddress := div(mload(add(add(_bytes, 0x20), _start)), 0x1000000000000000000000000)\n        }\n\n        return tempAddress;\n    }\n}\n",
  "sourcePath": "/Users/yukitanaka/Documents/dev/solidity/pheasant-network/v1-contracts/contracts/PheasantNetworkBridgeChild.sol",
  "compiler": {
    "name": "solc",
    "version": "0.8.9+commit.e5eed63a.Emscripten.clang"
  },
  "schemaVersion": "3.4.3",
  "updatedAt": "2022-05-12T12:28:58.492Z",
  "devdoc": {
    "kind": "dev",
    "methods": {
      "owner()": {
        "details": "Returns the address of the current owner."
      },
      "renounceOwnership()": {
        "details": "Leaves the contract without owner. It will not be possible to call `onlyOwner` functions anymore. Can only be called by the current owner. NOTE: Renouncing ownership will leave the contract without an owner, thereby removing any functionality that is only available to the owner."
      },
      "transferOwnership(address)": {
        "details": "Transfers ownership of the contract to a new account (`newOwner`). Can only be called by the current owner."
      }
    },
    "version": 1
  },
  "userdoc": {
    "kind": "user",
    "methods": {},
    "version": 1
  }
}