{
  "contractName": "PolygonCheckPointRootManager",
  "abi": [
    {
      "inputs": [
        {
          "internalType": "address",
          "name": "_checkpointManager",
          "type": "address"
        },
        {
          "internalType": "address",
          "name": "_fxRoot",
          "type": "address"
        }
      ],
      "stateMutability": "nonpayable",
      "type": "constructor"
    },
    {
      "inputs": [],
      "name": "RECEIVE_BLOCK_INFO",
      "outputs": [
        {
          "internalType": "bytes32",
          "name": "",
          "type": "bytes32"
        }
      ],
      "stateMutability": "view",
      "type": "function",
      "constant": true
    },
    {
      "inputs": [],
      "name": "SEND_MESSAGE_EVENT_SIG",
      "outputs": [
        {
          "internalType": "bytes32",
          "name": "",
          "type": "bytes32"
        }
      ],
      "stateMutability": "view",
      "type": "function",
      "constant": true
    },
    {
      "inputs": [],
      "name": "checkpointManager",
      "outputs": [
        {
          "internalType": "contract ICheckpointManager",
          "name": "",
          "type": "address"
        }
      ],
      "stateMutability": "view",
      "type": "function",
      "constant": true
    },
    {
      "inputs": [],
      "name": "fxChildTunnel",
      "outputs": [
        {
          "internalType": "address",
          "name": "",
          "type": "address"
        }
      ],
      "stateMutability": "view",
      "type": "function",
      "constant": true
    },
    {
      "inputs": [],
      "name": "fxRoot",
      "outputs": [
        {
          "internalType": "contract IFxStateSender",
          "name": "",
          "type": "address"
        }
      ],
      "stateMutability": "view",
      "type": "function",
      "constant": true
    },
    {
      "inputs": [
        {
          "internalType": "bytes32",
          "name": "",
          "type": "bytes32"
        }
      ],
      "name": "processedExits",
      "outputs": [
        {
          "internalType": "bool",
          "name": "",
          "type": "bool"
        }
      ],
      "stateMutability": "view",
      "type": "function",
      "constant": true
    },
    {
      "inputs": [
        {
          "internalType": "bytes",
          "name": "inputData",
          "type": "bytes"
        }
      ],
      "name": "receiveMessage",
      "outputs": [],
      "stateMutability": "nonpayable",
      "type": "function"
    },
    {
      "inputs": [
        {
          "internalType": "address",
          "name": "_fxChildTunnel",
          "type": "address"
        }
      ],
      "name": "setFxChildTunnel",
      "outputs": [],
      "stateMutability": "nonpayable",
      "type": "function"
    },
    {
      "inputs": [
        {
          "internalType": "uint256",
          "name": "_blockNumber",
          "type": "uint256"
        }
      ],
      "name": "sendBlockInfo",
      "outputs": [],
      "stateMutability": "nonpayable",
      "type": "function"
    }
  ],
  "bytecode": "0x60806040523480156200001157600080fd5b5060405162001e6038038062001e60833981016040819052620000349162000083565b600180546001600160a01b039384166001600160a01b03199182161790915560008054929093169116179055620000bb565b80516001600160a01b03811681146200007e57600080fd5b919050565b600080604083850312156200009757600080fd5b620000a28362000066565b9150620000b26020840162000066565b90509250929050565b611d9580620000cb6000396000f3fe608060405234801561001057600080fd5b50600436106100935760003560e01c8063c0857ba011610066578063c0857ba014610145578063de9b771f14610158578063e609d56b1461016b578063f76945ef14610192578063f953cec7146101a557600080fd5b80630e387de614610098578063607f2d42146100d2578063972c492814610105578063aea4e49e14610130575b600080fd5b6100bf7f8c5261668696ce22758910d05bab8f186d6eb247ceac2af2e82c7dc17669b03681565b6040519081526020015b60405180910390f35b6100f56100e0366004611871565b60036020526000908152604090205460ff1681565b60405190151581526020016100c9565b600254610118906001600160a01b031681565b6040516001600160a01b0390911681526020016100c9565b61014361013e36600461189f565b6101b8565b005b600154610118906001600160a01b031681565b600054610118906001600160a01b031681565b6100bf7fdd3db88ef167aee800dc88484762420c219550985f37a1a431de6cffa352b9ed81565b6101436101a0366004611871565b61024b565b6101436101b336600461192b565b6102c7565b6002546001600160a01b0316156102295760405162461bcd60e51b815260206004820152602a60248201527f467842617365526f6f7454756e6e656c3a204348494c445f54554e4e454c5f4160448201526913149150511657d4d15560b21b60648201526084015b60405180910390fd5b600280546001600160a01b0319166001600160a01b0392909216919091179055565b60007fdd3db88ef167aee800dc88484762420c219550985f37a1a431de6cffa352b9ed82834060405160200161028b929190918252602082015260400190565b60408051601f19818403018152908290526102a99291602001611a07565b60405160208183030381529060405290506102c3816102d7565b5050565b60006102d282610342565b505050565b60005460025460405163b472047760e01b81526001600160a01b039283169263b47204779261030d929116908590600401611a20565b600060405180830381600087803b15801561032757600080fd5b505af115801561033b573d6000803e3d6000fd5b5050505050565b6060600061034f8361062b565b9050600061035c8261068a565b90506000610369836106b9565b9050600081610377846106e2565b610380866108a0565b60405160200161039293929190611a44565b60408051601f1981840301815291815281516020928301206000818152600390935291205490915060ff16156104165760405162461bcd60e51b8152602060048201526024808201527f4678526f6f7454756e6e656c3a20455849545f414c52454144595f50524f434560448201526314d4d15160e21b6064820152608401610220565b6000818152600360205260408120805460ff19166001179055610438856108bc565b9050600061044582610a06565b905061045081610a96565b6002546001600160a01b039081169116146104bb5760405162461bcd60e51b815260206004820152602560248201527f4678526f6f7454756e6e656c3a20494e56414c49445f46585f4348494c445f54604482015264155393915360da1b6064820152608401610220565b60006104c687610abf565b90506104e66104d6846020015190565b876104e08a610adb565b84610af7565b61053e5760405162461bcd60e51b815260206004820152602360248201527f4678526f6f7454756e6e656c3a20494e56414c49445f524543454950545f505260448201526227a7a360e91b6064820152608401610220565b61056c8561054b89610dae565b6105548a610dca565b8461055e8c610de6565b6105678d610e02565b610e1e565b50600061057883610f53565b90507f8c5261668696ce22758910d05bab8f186d6eb247ceac2af2e82c7dc17669b0366105ae6105a9836000610f8f565b610fc7565b146105fb5760405162461bcd60e51b815260206004820152601f60248201527f4678526f6f7454756e6e656c3a20494e56414c49445f5349474e4154555245006044820152606401610220565b600061060684611042565b8060200190518101906106199190611a71565b9b9a5050505050505050505050565b50565b60408051602081019091526060815260006106756106708460408051808201825260008082526020918201528151808301909252825182529182019181019190915290565b61105e565b60408051602081019091529081529392505050565b60606106b382600001516008815181106106a6576106a6611ae8565b6020026020010151611174565b92915050565b60006106b382600001516002815181106106d5576106d5611ae8565b6020026020010151610fc7565b604080516020810190915260008152815160609190156106b35760008061070a600086611211565b60f81c9050600181148061072157508060ff166003145b156107c9576001855160026107369190611b14565b6107409190611b33565b67ffffffffffffffff811115610758576107586118bc565b6040519080825280601f01601f191660200182016040528015610782576020820181803683370190505b5092506000610792600187611211565b905080846000815181106107a8576107a8611ae8565b60200101906001600160f81b031916908160001a905350600192505061082d565b6002855160026107d99190611b14565b6107e39190611b33565b67ffffffffffffffff8111156107fb576107fb6118bc565b6040519080825280601f01601f191660200182016040528015610825576020820181803683370190505b509250600091505b60ff82165b83518110156108975761085c61084b60ff851683611b33565b610856906002611b4a565b87611211565b84828151811061086e5761086e611ae8565b60200101906001600160f81b031916908160001a9053508061088f81611b62565b915050610832565b50505092915050565b60006106b382600001516009815181106106d5576106d5611ae8565b6108e060405180606001604052806060815260200160608152602001600081525090565b6108fa82600001516006815181106106a6576106a6611ae8565b60208281018290526040805180820182526000808252908301528051808201909152825181529181019082015261093081611292565b156109455761093e8161105e565b82526109f2565b6020820151805160009061095b90600190611b33565b67ffffffffffffffff811115610973576109736118bc565b6040519080825280601f01601f19166020018201604052801561099d576020820181803683370190505b5090506000808360210191508260200190506109bb828285516112cb565b6040805180820182526000808252602091820152815180830190925284518252808501908201526109eb9061105e565b8652505050505b6109fb836108a0565b604083015250919050565b604080516080810182526000918101828152606080830193909352815260208101919091526000610a548360000151600381518110610a4757610a47611ae8565b602002602001015161105e565b836040015181518110610a6957610a69611ae8565b602002602001015190506040518060400160405280828152602001610a8d8361105e565b90529392505050565b60006106b38260200151600081518110610ab257610ab2611ae8565b6020026020010151611346565b60006106b382600001516005815181106106d5576106d5611ae8565b60606106b382600001516007815181106106a6576106a6611ae8565b600080610b2b8460408051808201825260008082526020918201528151808301909252825182529182019181019190915290565b90506000610b388261105e565b905060608085600080610b4a8b6106e2565b9050805160001415610b66576000975050505050505050610da6565b60005b8651811015610d9d578151831115610b8c57600098505050505050505050610da6565b610bae878281518110610ba157610ba1611ae8565b6020026020010151611360565b955085805190602001208414610bcf57600098505050505050505050610da6565b610be4878281518110610a4757610a47611ae8565b9450845160111415610cb9578151831415610c46578c80519060200120610c17866010815181106106a6576106a6611ae8565b805190602001201415610c3557600198505050505050505050610da6565b600098505050505050505050610da6565b6000828481518110610c5a57610c5a611ae8565b016020015160f81c90506010811115610c7f5760009950505050505050505050610da6565b610ca4868260ff1681518110610c9757610c97611ae8565b60200260200101516113e0565b9450610cb1600185611b4a565b935050610d8b565b845160021415610c35576000610ce5610cde876000815181106106a6576106a6611ae8565b848661140e565b8351909150610cf48286611b4a565b1415610d49578d80519060200120610d18876001815181106106a6576106a6611ae8565b805190602001201415610d375760019950505050505050505050610da6565b60009950505050505050505050610da6565b80610d605760009950505050505050505050610da6565b610d6a8185611b4a565b9350610d8286600181518110610c9757610c97611ae8565b9450610d8b9050565b80610d9581611b62565b915050610b69565b50505050505050505b949350505050565b60006106b382600001516003815181106106d5576106d5611ae8565b60006106b382600001516004815181106106d5576106d5611ae8565b60006106b382600001516000815181106106d5576106d5611ae8565b60606106b382600001516001815181106106a6576106a6611ae8565b6001546040516320a9cea560e11b8152600481018490526000918291829182916001600160a01b03909116906341539d4a9060240160a06040518083038186803b158015610e6b57600080fd5b505afa158015610e7f573d6000803e3d6000fd5b505050506040513d601f19601f82011682018060405250810190610ea39190611b7d565b5093505092509250610efa828b610eba9190611b33565b6040805160208082018f90528183018e9052606082018d905260808083018d90528351808403909101815260a09092019092528051910120908588611517565b610f465760405162461bcd60e51b815260206004820152601c60248201527f4678526f6f7454756e6e656c3a20494e56414c49445f484541444552000000006044820152606401610220565b9998505050505050505050565b6040805160208101909152606081526040518060200160405280610f878460200151600181518110610a4757610a47611ae8565b905292915050565b60408051808201909152600080825260208201528251805183908110610fb757610fb7611ae8565b6020026020010151905092915050565b805160009015801590610fdc57508151602110155b610fe557600080fd5b6000610ff4836020015161167c565b905060008184600001516110089190611b33565b905060008083866020015161101d9190611b4a565b905080519150602083101561103957826020036101000a820491505b50949350505050565b60606106b382602001516002815181106106a6576106a6611ae8565b606061106982611292565b61107257600080fd5b600061107d836116fe565b905060008167ffffffffffffffff81111561109a5761109a6118bc565b6040519080825280602002602001820160405280156110df57816020015b60408051808201909152600080825260208201528152602001906001900390816110b85790505b50905060006110f1856020015161167c565b85602001516111009190611b4a565b90506000805b848110156111695761111783611781565b915060405180604001604052808381526020018481525084828151811061114057611140611ae8565b60209081029190910101526111558284611b4a565b92508061116181611b62565b915050611106565b509195945050505050565b805160609061118257600080fd5b6000611191836020015161167c565b905060008184600001516111a59190611b33565b905060008167ffffffffffffffff8111156111c2576111c26118bc565b6040519080825280601f01601f1916602001820160405280156111ec576020820181803683370190505b509050600081602001905061103984876020015161120a9190611b4a565b8285611825565b600061121e600284611be0565b1561125857601082611231600286611bf4565b8151811061124157611241611ae8565b0160200151611253919060f81c611c08565b611288565b601082611266600286611bf4565b8151811061127657611276611ae8565b0160200151611288919060f81c611c2a565b60f81b9392505050565b80516000906112a357506000919050565b6020820151805160001a9060c08210156112c1575060009392505050565b5060019392505050565b806112d557505050565b6020811061130d57825182526112ec602084611b4a565b92506112f9602083611b4a565b9150611306602082611b33565b90506112d5565b6000600161131c836020611b33565b61132890610100611d30565b6113329190611b33565b935183518516941916939093179091525050565b805160009060151461135757600080fd5b6106b382610fc7565b60606000826000015167ffffffffffffffff811115611381576113816118bc565b6040519080825280601f01601f1916602001820160405280156113ab576020820181803683370190505b5090508051600014156113be5792915050565b60008160200190506113d98460200151828660000151611825565b5092915050565b80516000906021146113f157600080fd5b600080836020015160016114059190611b4a565b51949350505050565b6000808061141b866106e2565b90506000815167ffffffffffffffff811115611439576114396118bc565b6040519080825280601f01601f191660200182016040528015611463576020820181803683370190505b509050845b82516114749087611b4a565b8110156114e757600087828151811061148f5761148f611ae8565b01602001516001600160f81b031916905080836114ac8985611b33565b815181106114bc576114bc611ae8565b60200101906001600160f81b031916908160001a9053505080806114df90611b62565b915050611468565b50808051906020012082805190602001201415611507578151925061150c565b600092505b509095945050505050565b6000602082516115279190611be0565b1561156b5760405162461bcd60e51b8152602060048201526014602482015273092dcecc2d8d2c840e0e4dedecc40d8cadccee8d60631b6044820152606401610220565b60006020835161157b9190611bf4565b9050611588816002611d30565b85106115ce5760405162461bcd60e51b81526020600482015260156024820152744c65616620696e64657820697320746f6f2062696760581b6044820152606401610220565b60008660205b8551811161166e578581015192506115ed600289611be0565b61162257604080516020810184905290810184905260600160405160208183030381529060405280519060200120915061164f565b60408051602081018590529081018390526060016040516020818303038152906040528051906020012091505b61165a600289611bf4565b9750611667602082611b4a565b90506115d4565b509094149695505050505050565b8051600090811a60808110156116955750600092915050565b60b88110806116b0575060c081108015906116b0575060f881105b156116be5750600192915050565b60c08110156116f2576116d3600160b8611d3c565b6116e09060ff1682611b33565b6116eb906001611b4a565b9392505050565b6116d3600160f8611d3c565b805160009061170f57506000919050565b60008061171f846020015161167c565b846020015161172e9190611b4a565b90506000846000015185602001516117469190611b4a565b90505b808210156117785761175a82611781565b6117649083611b4a565b91508261177081611b62565b935050611749565b50909392505050565b80516000908190811a608081101561179c57600191506113d9565b60b88110156117c2576117b0608082611b33565b6117bb906001611b4a565b91506113d9565b60c08110156117ef5760b78103600185019450806020036101000a855104600182018101935050506113d9565b60f8811015611803576117b060c082611b33565b60019390930151602084900360f7016101000a900490920160f5190192915050565b8061182f57505050565b602081106118675782518252611846602084611b4a565b9250611853602083611b4a565b9150611860602082611b33565b905061182f565b8061130d57505050565b60006020828403121561188357600080fd5b5035919050565b6001600160a01b038116811461062857600080fd5b6000602082840312156118b157600080fd5b81356116eb8161188a565b634e487b7160e01b600052604160045260246000fd5b604051601f8201601f1916810167ffffffffffffffff811182821017156118fb576118fb6118bc565b604052919050565b600067ffffffffffffffff82111561191d5761191d6118bc565b50601f01601f191660200190565b60006020828403121561193d57600080fd5b813567ffffffffffffffff81111561195457600080fd5b8201601f8101841361196557600080fd5b803561197861197382611903565b6118d2565b81815285602083850101111561198d57600080fd5b81602084016020830137600091810160200191909152949350505050565b60005b838110156119c65781810151838201526020016119ae565b838111156119d5576000848401525b50505050565b600081518084526119f38160208601602086016119ab565b601f01601f19169290920160200192915050565b828152604060208201526000610da660408301846119db565b6001600160a01b0383168152604060208201819052600090610da6908301846119db565b83815260008351611a5c8160208501602088016119ab565b60209201918201929092526040019392505050565b600060208284031215611a8357600080fd5b815167ffffffffffffffff811115611a9a57600080fd5b8201601f81018413611aab57600080fd5b8051611ab961197382611903565b818152856020838501011115611ace57600080fd5b611adf8260208301602086016119ab565b95945050505050565b634e487b7160e01b600052603260045260246000fd5b634e487b7160e01b600052601160045260246000fd5b6000816000190483118215151615611b2e57611b2e611afe565b500290565b600082821015611b4557611b45611afe565b500390565b60008219821115611b5d57611b5d611afe565b500190565b6000600019821415611b7657611b76611afe565b5060010190565b600080600080600060a08688031215611b9557600080fd5b855194506020860151935060408601519250606086015191506080860151611bbc8161188a565b809150509295509295909350565b634e487b7160e01b600052601260045260246000fd5b600082611bef57611bef611bca565b500690565b600082611c0357611c03611bca565b500490565b600060ff831680611c1b57611c1b611bca565b8060ff84160691505092915050565b600060ff831680611c3d57611c3d611bca565b8060ff84160491505092915050565b600181815b80851115611c87578160001904821115611c6d57611c6d611afe565b80851615611c7a57918102915b93841c9390800290611c51565b509250929050565b600082611c9e575060016106b3565b81611cab575060006106b3565b8160018114611cc15760028114611ccb57611ce7565b60019150506106b3565b60ff841115611cdc57611cdc611afe565b50506001821b6106b3565b5060208310610133831016604e8410600b8410161715611d0a575081810a6106b3565b611d148383611c4c565b8060001904821115611d2857611d28611afe565b029392505050565b60006116eb8383611c8f565b600060ff821660ff841680821015611d5657611d56611afe565b9003939250505056fea2646970667358221220a4ae81053b5098119c623db21a4acbcda77838ab4a1e76c70892e3b72c83d11e64736f6c63430008090033",
  "immutableReferences": {},
  "source": "// SPDX-License-Identifier: MIT\npragma solidity 0.8.9;\nimport { FxBaseRootTunnel } from \"../../fx-portal/contracts/tunnel/FxBaseRootTunnel.sol\";\n\ncontract PolygonCheckPointRootManager is FxBaseRootTunnel{\n  constructor(address _checkpointManager, address _fxRoot) FxBaseRootTunnel(_checkpointManager, _fxRoot) {\n  }\n\n  bytes32 public constant RECEIVE_BLOCK_INFO = keccak256(\"ReceiveBlockInfo\");\n  /*bytes32 public constant CHILD_BLOCK_INFO = keccak256(\"ChildBlockInfo\");\n  mapping(uint => bytes32) public blockHashs;\n  uint public preBlockNumber;\n  bytes32 public preBlockHash;\n  bytes public latestData;*/\n\n\n  function sendBlockInfo(uint _blockNumber) public {\n    bytes memory message = abi.encode(RECEIVE_BLOCK_INFO, abi.encode(_blockNumber, blockhash(_blockNumber)));\n    //bytes memory message = abi.encode(RECEIVE_BLOCK_INFO, abi.encode(1, blockhash(5937892)));\n    _sendMessageToChild(message);\n\n  }\n  function _processMessageFromChild(bytes memory _data) internal override {\n  // latestData = _data;\n  }\n\n\n}\n",
  "sourcePath": "/Users/yukitanaka/Documents/dev/solidity/pheasant-network/v1-contracts/contracts/tunnel/PolygonCheckPointRootManager.sol",
  "compiler": {
    "name": "solc",
    "version": "0.8.9+commit.e5eed63a.Emscripten.clang"
  },
  "schemaVersion": "3.4.3",
  "updatedAt": "2022-03-05T03:18:43.114Z",
  "networkType": "ethereum",
  "devdoc": {
    "kind": "dev",
    "methods": {
      "receiveMessage(bytes)": {
        "details": "This function verifies if the transaction actually happened on child chain",
        "params": {
          "inputData": "RLP encoded data of the reference tx containing following list of fields  0 - headerNumber - Checkpoint header block number containing the reference tx  1 - blockProof - Proof that the block header (in the child chain) is a leaf in the submitted merkle root  2 - blockNumber - Block number containing the reference tx on child chain  3 - blockTime - Reference tx block time  4 - txRoot - Transactions root of block  5 - receiptRoot - Receipts root of block  6 - receipt - Receipt of the reference transaction  7 - receiptProof - Merkle proof of the reference receipt  8 - branchMask - 32 bits denoting the path of receipt in merkle tree  9 - receiptLogIndex - Log Index to read from the receipt"
        }
      }
    },
    "version": 1
  },
  "userdoc": {
    "kind": "user",
    "methods": {
      "receiveMessage(bytes)": {
        "notice": "receive message from  L2 to L1, validated by proof"
      }
    },
    "version": 1
  }
}