{
  "contractName": "PolygonRootCheckPointManager",
  "abi": [
    {
      "inputs": [
        {
          "internalType": "address",
          "name": "_checkpointManager",
          "type": "address"
        },
        {
          "internalType": "address",
          "name": "_fxRoot",
          "type": "address"
        }
      ],
      "stateMutability": "nonpayable",
      "type": "constructor"
    },
    {
      "inputs": [],
      "name": "SEND_MESSAGE_EVENT_SIG",
      "outputs": [
        {
          "internalType": "bytes32",
          "name": "",
          "type": "bytes32"
        }
      ],
      "stateMutability": "view",
      "type": "function"
    },
    {
      "inputs": [],
      "name": "checkpointManager",
      "outputs": [
        {
          "internalType": "contract ICheckpointManager",
          "name": "",
          "type": "address"
        }
      ],
      "stateMutability": "view",
      "type": "function"
    },
    {
      "inputs": [],
      "name": "fxChildTunnel",
      "outputs": [
        {
          "internalType": "address",
          "name": "",
          "type": "address"
        }
      ],
      "stateMutability": "view",
      "type": "function"
    },
    {
      "inputs": [],
      "name": "fxRoot",
      "outputs": [
        {
          "internalType": "contract IFxStateSender",
          "name": "",
          "type": "address"
        }
      ],
      "stateMutability": "view",
      "type": "function"
    },
    {
      "inputs": [
        {
          "internalType": "bytes32",
          "name": "",
          "type": "bytes32"
        }
      ],
      "name": "processedExits",
      "outputs": [
        {
          "internalType": "bool",
          "name": "",
          "type": "bool"
        }
      ],
      "stateMutability": "view",
      "type": "function"
    },
    {
      "inputs": [
        {
          "internalType": "bytes",
          "name": "inputData",
          "type": "bytes"
        }
      ],
      "name": "receiveMessage",
      "outputs": [],
      "stateMutability": "nonpayable",
      "type": "function"
    },
    {
      "inputs": [
        {
          "internalType": "address",
          "name": "_fxChildTunnel",
          "type": "address"
        }
      ],
      "name": "setFxChildTunnel",
      "outputs": [],
      "stateMutability": "nonpayable",
      "type": "function"
    },
    {
      "inputs": [
        {
          "internalType": "uint256",
          "name": "_blockNumber",
          "type": "uint256"
        }
      ],
      "name": "sendBlockInfo",
      "outputs": [],
      "stateMutability": "nonpayable",
      "type": "function"
    }
  ],
  "bytecode": "0x60806040523480156200001157600080fd5b5060405162001e2e38038062001e2e833981016040819052620000349162000083565b600180546001600160a01b039384166001600160a01b03199182161790915560008054929093169116179055620000bb565b80516001600160a01b03811681146200007e57600080fd5b919050565b600080604083850312156200009757600080fd5b620000a28362000066565b9150620000b26020840162000066565b90509250929050565b611d6380620000cb6000396000f3fe608060405234801561001057600080fd5b50600436106100885760003560e01c8063c0857ba01161005b578063c0857ba01461013a578063de9b771f1461014d578063f76945ef14610160578063f953cec71461017357600080fd5b80630e387de61461008d578063607f2d42146100c7578063972c4928146100fa578063aea4e49e14610125575b600080fd5b6100b47f8c5261668696ce22758910d05bab8f186d6eb247ceac2af2e82c7dc17669b03681565b6040519081526020015b60405180910390f35b6100ea6100d536600461183f565b60036020526000908152604090205460ff1681565b60405190151581526020016100be565b60025461010d906001600160a01b031681565b6040516001600160a01b0390911681526020016100be565b61013861013336600461186d565b610186565b005b60015461010d906001600160a01b031681565b60005461010d906001600160a01b031681565b61013861016e36600461183f565b610219565b6101386101813660046118f9565b610295565b6002546001600160a01b0316156101f75760405162461bcd60e51b815260206004820152602a60248201527f467842617365526f6f7454756e6e656c3a204348494c445f54554e4e454c5f4160448201526913149150511657d4d15560b21b60648201526084015b60405180910390fd5b600280546001600160a01b0319166001600160a01b0392909216919091179055565b60007fdd3db88ef167aee800dc88484762420c219550985f37a1a431de6cffa352b9ed828340604051602001610259929190918252602082015260400190565b60408051601f198184030181529082905261027792916020016119d5565b6040516020818303038152906040529050610291816102a5565b5050565b60006102a082610310565b505050565b60005460025460405163b472047760e01b81526001600160a01b039283169263b4720477926102db9291169085906004016119ee565b600060405180830381600087803b1580156102f557600080fd5b505af1158015610309573d6000803e3d6000fd5b5050505050565b6060600061031d836105f9565b9050600061032a82610658565b9050600061033783610687565b9050600081610345846106b0565b61034e8661086e565b60405160200161036093929190611a12565b60408051601f1981840301815291815281516020928301206000818152600390935291205490915060ff16156103e45760405162461bcd60e51b8152602060048201526024808201527f4678526f6f7454756e6e656c3a20455849545f414c52454144595f50524f434560448201526314d4d15160e21b60648201526084016101ee565b6000818152600360205260408120805460ff191660011790556104068561088a565b90506000610413826109d4565b905061041e81610a64565b6002546001600160a01b039081169116146104895760405162461bcd60e51b815260206004820152602560248201527f4678526f6f7454756e6e656c3a20494e56414c49445f46585f4348494c445f54604482015264155393915360da1b60648201526084016101ee565b600061049487610a8d565b90506104b46104a4846020015190565b876104ae8a610aa9565b84610ac5565b61050c5760405162461bcd60e51b815260206004820152602360248201527f4678526f6f7454756e6e656c3a20494e56414c49445f524543454950545f505260448201526227a7a360e91b60648201526084016101ee565b61053a8561051989610d7c565b6105228a610d98565b8461052c8c610db4565b6105358d610dd0565b610dec565b50600061054683610f21565b90507f8c5261668696ce22758910d05bab8f186d6eb247ceac2af2e82c7dc17669b03661057c610577836000610f5d565b610f95565b146105c95760405162461bcd60e51b815260206004820152601f60248201527f4678526f6f7454756e6e656c3a20494e56414c49445f5349474e41545552450060448201526064016101ee565b60006105d484611010565b8060200190518101906105e79190611a3f565b9b9a5050505050505050505050565b50565b604080516020810190915260608152600061064361063e8460408051808201825260008082526020918201528151808301909252825182529182019181019190915290565b61102c565b60408051602081019091529081529392505050565b6060610681826000015160088151811061067457610674611ab6565b6020026020010151611142565b92915050565b600061068182600001516002815181106106a3576106a3611ab6565b6020026020010151610f95565b60408051602081019091526000815281516060919015610681576000806106d86000866111df565b60f81c905060018114806106ef57508060ff166003145b15610797576001855160026107049190611ae2565b61070e9190611b01565b67ffffffffffffffff8111156107265761072661188a565b6040519080825280601f01601f191660200182016040528015610750576020820181803683370190505b50925060006107606001876111df565b9050808460008151811061077657610776611ab6565b60200101906001600160f81b031916908160001a90535060019250506107fb565b6002855160026107a79190611ae2565b6107b19190611b01565b67ffffffffffffffff8111156107c9576107c961188a565b6040519080825280601f01601f1916602001820160405280156107f3576020820181803683370190505b509250600091505b60ff82165b83518110156108655761082a61081960ff851683611b01565b610824906002611b18565b876111df565b84828151811061083c5761083c611ab6565b60200101906001600160f81b031916908160001a9053508061085d81611b30565b915050610800565b50505092915050565b600061068182600001516009815181106106a3576106a3611ab6565b6108ae60405180606001604052806060815260200160608152602001600081525090565b6108c8826000015160068151811061067457610674611ab6565b6020828101829052604080518082018252600080825290830152805180820190915282518152918101908201526108fe81611260565b156109135761090c8161102c565b82526109c0565b6020820151805160009061092990600190611b01565b67ffffffffffffffff8111156109415761094161188a565b6040519080825280601f01601f19166020018201604052801561096b576020820181803683370190505b50905060008083602101915082602001905061098982828551611299565b6040805180820182526000808252602091820152815180830190925284518252808501908201526109b99061102c565b8652505050505b6109c98361086e565b604083015250919050565b604080516080810182526000918101828152606080830193909352815260208101919091526000610a228360000151600381518110610a1557610a15611ab6565b602002602001015161102c565b836040015181518110610a3757610a37611ab6565b602002602001015190506040518060400160405280828152602001610a5b8361102c565b90529392505050565b60006106818260200151600081518110610a8057610a80611ab6565b6020026020010151611314565b600061068182600001516005815181106106a3576106a3611ab6565b6060610681826000015160078151811061067457610674611ab6565b600080610af98460408051808201825260008082526020918201528151808301909252825182529182019181019190915290565b90506000610b068261102c565b905060608085600080610b188b6106b0565b9050805160001415610b34576000975050505050505050610d74565b60005b8651811015610d6b578151831115610b5a57600098505050505050505050610d74565b610b7c878281518110610b6f57610b6f611ab6565b602002602001015161132e565b955085805190602001208414610b9d57600098505050505050505050610d74565b610bb2878281518110610a1557610a15611ab6565b9450845160111415610c87578151831415610c14578c80519060200120610be58660108151811061067457610674611ab6565b805190602001201415610c0357600198505050505050505050610d74565b600098505050505050505050610d74565b6000828481518110610c2857610c28611ab6565b016020015160f81c90506010811115610c4d5760009950505050505050505050610d74565b610c72868260ff1681518110610c6557610c65611ab6565b60200260200101516113ae565b9450610c7f600185611b18565b935050610d59565b845160021415610c03576000610cb3610cac8760008151811061067457610674611ab6565b84866113dc565b8351909150610cc28286611b18565b1415610d17578d80519060200120610ce68760018151811061067457610674611ab6565b805190602001201415610d055760019950505050505050505050610d74565b60009950505050505050505050610d74565b80610d2e5760009950505050505050505050610d74565b610d388185611b18565b9350610d5086600181518110610c6557610c65611ab6565b9450610d599050565b80610d6381611b30565b915050610b37565b50505050505050505b949350505050565b600061068182600001516003815181106106a3576106a3611ab6565b600061068182600001516004815181106106a3576106a3611ab6565b600061068182600001516000815181106106a3576106a3611ab6565b6060610681826000015160018151811061067457610674611ab6565b6001546040516320a9cea560e11b8152600481018490526000918291829182916001600160a01b03909116906341539d4a9060240160a06040518083038186803b158015610e3957600080fd5b505afa158015610e4d573d6000803e3d6000fd5b505050506040513d601f19601f82011682018060405250810190610e719190611b4b565b5093505092509250610ec8828b610e889190611b01565b6040805160208082018f90528183018e9052606082018d905260808083018d90528351808403909101815260a090920190925280519101209085886114e5565b610f145760405162461bcd60e51b815260206004820152601c60248201527f4678526f6f7454756e6e656c3a20494e56414c49445f4845414445520000000060448201526064016101ee565b9998505050505050505050565b6040805160208101909152606081526040518060200160405280610f558460200151600181518110610a1557610a15611ab6565b905292915050565b60408051808201909152600080825260208201528251805183908110610f8557610f85611ab6565b6020026020010151905092915050565b805160009015801590610faa57508151602110155b610fb357600080fd5b6000610fc2836020015161164a565b90506000818460000151610fd69190611b01565b9050600080838660200151610feb9190611b18565b905080519150602083101561100757826020036101000a820491505b50949350505050565b6060610681826020015160028151811061067457610674611ab6565b606061103782611260565b61104057600080fd5b600061104b836116cc565b905060008167ffffffffffffffff8111156110685761106861188a565b6040519080825280602002602001820160405280156110ad57816020015b60408051808201909152600080825260208201528152602001906001900390816110865790505b50905060006110bf856020015161164a565b85602001516110ce9190611b18565b90506000805b84811015611137576110e58361174f565b915060405180604001604052808381526020018481525084828151811061110e5761110e611ab6565b60209081029190910101526111238284611b18565b92508061112f81611b30565b9150506110d4565b509195945050505050565b805160609061115057600080fd5b600061115f836020015161164a565b905060008184600001516111739190611b01565b905060008167ffffffffffffffff8111156111905761119061188a565b6040519080825280601f01601f1916602001820160405280156111ba576020820181803683370190505b50905060008160200190506110078487602001516111d89190611b18565b82856117f3565b60006111ec600284611bae565b15611226576010826111ff600286611bc2565b8151811061120f5761120f611ab6565b0160200151611221919060f81c611bd6565b611256565b601082611234600286611bc2565b8151811061124457611244611ab6565b0160200151611256919060f81c611bf8565b60f81b9392505050565b805160009061127157506000919050565b6020820151805160001a9060c082101561128f575060009392505050565b5060019392505050565b806112a357505050565b602081106112db57825182526112ba602084611b18565b92506112c7602083611b18565b91506112d4602082611b01565b90506112a3565b600060016112ea836020611b01565b6112f690610100611cfe565b6113009190611b01565b935183518516941916939093179091525050565b805160009060151461132557600080fd5b61068182610f95565b60606000826000015167ffffffffffffffff81111561134f5761134f61188a565b6040519080825280601f01601f191660200182016040528015611379576020820181803683370190505b50905080516000141561138c5792915050565b60008160200190506113a784602001518286600001516117f3565b5092915050565b80516000906021146113bf57600080fd5b600080836020015160016113d39190611b18565b51949350505050565b600080806113e9866106b0565b90506000815167ffffffffffffffff8111156114075761140761188a565b6040519080825280601f01601f191660200182016040528015611431576020820181803683370190505b509050845b82516114429087611b18565b8110156114b557600087828151811061145d5761145d611ab6565b01602001516001600160f81b0319169050808361147a8985611b01565b8151811061148a5761148a611ab6565b60200101906001600160f81b031916908160001a9053505080806114ad90611b30565b915050611436565b508080519060200120828051906020012014156114d557815192506114da565b600092505b509095945050505050565b6000602082516114f59190611bae565b156115395760405162461bcd60e51b8152602060048201526014602482015273092dcecc2d8d2c840e0e4dedecc40d8cadccee8d60631b60448201526064016101ee565b6000602083516115499190611bc2565b9050611556816002611cfe565b851061159c5760405162461bcd60e51b81526020600482015260156024820152744c65616620696e64657820697320746f6f2062696760581b60448201526064016101ee565b60008660205b8551811161163c578581015192506115bb600289611bae565b6115f057604080516020810184905290810184905260600160405160208183030381529060405280519060200120915061161d565b60408051602081018590529081018390526060016040516020818303038152906040528051906020012091505b611628600289611bc2565b9750611635602082611b18565b90506115a2565b509094149695505050505050565b8051600090811a60808110156116635750600092915050565b60b881108061167e575060c0811080159061167e575060f881105b1561168c5750600192915050565b60c08110156116c0576116a1600160b8611d0a565b6116ae9060ff1682611b01565b6116b9906001611b18565b9392505050565b6116a1600160f8611d0a565b80516000906116dd57506000919050565b6000806116ed846020015161164a565b84602001516116fc9190611b18565b90506000846000015185602001516117149190611b18565b90505b80821015611746576117288261174f565b6117329083611b18565b91508261173e81611b30565b935050611717565b50909392505050565b80516000908190811a608081101561176a57600191506113a7565b60b88110156117905761177e608082611b01565b611789906001611b18565b91506113a7565b60c08110156117bd5760b78103600185019450806020036101000a855104600182018101935050506113a7565b60f88110156117d15761177e60c082611b01565b60019390930151602084900360f7016101000a900490920160f5190192915050565b806117fd57505050565b602081106118355782518252611814602084611b18565b9250611821602083611b18565b915061182e602082611b01565b90506117fd565b806112db57505050565b60006020828403121561185157600080fd5b5035919050565b6001600160a01b03811681146105f657600080fd5b60006020828403121561187f57600080fd5b81356116b981611858565b634e487b7160e01b600052604160045260246000fd5b604051601f8201601f1916810167ffffffffffffffff811182821017156118c9576118c961188a565b604052919050565b600067ffffffffffffffff8211156118eb576118eb61188a565b50601f01601f191660200190565b60006020828403121561190b57600080fd5b813567ffffffffffffffff81111561192257600080fd5b8201601f8101841361193357600080fd5b8035611946611941826118d1565b6118a0565b81815285602083850101111561195b57600080fd5b81602084016020830137600091810160200191909152949350505050565b60005b8381101561199457818101518382015260200161197c565b838111156119a3576000848401525b50505050565b600081518084526119c1816020860160208601611979565b601f01601f19169290920160200192915050565b828152604060208201526000610d7460408301846119a9565b6001600160a01b0383168152604060208201819052600090610d74908301846119a9565b83815260008351611a2a816020850160208801611979565b60209201918201929092526040019392505050565b600060208284031215611a5157600080fd5b815167ffffffffffffffff811115611a6857600080fd5b8201601f81018413611a7957600080fd5b8051611a87611941826118d1565b818152856020838501011115611a9c57600080fd5b611aad826020830160208601611979565b95945050505050565b634e487b7160e01b600052603260045260246000fd5b634e487b7160e01b600052601160045260246000fd5b6000816000190483118215151615611afc57611afc611acc565b500290565b600082821015611b1357611b13611acc565b500390565b60008219821115611b2b57611b2b611acc565b500190565b6000600019821415611b4457611b44611acc565b5060010190565b600080600080600060a08688031215611b6357600080fd5b855194506020860151935060408601519250606086015191506080860151611b8a81611858565b809150509295509295909350565b634e487b7160e01b600052601260045260246000fd5b600082611bbd57611bbd611b98565b500690565b600082611bd157611bd1611b98565b500490565b600060ff831680611be957611be9611b98565b8060ff84160691505092915050565b600060ff831680611c0b57611c0b611b98565b8060ff84160491505092915050565b600181815b80851115611c55578160001904821115611c3b57611c3b611acc565b80851615611c4857918102915b93841c9390800290611c1f565b509250929050565b600082611c6c57506001610681565b81611c7957506000610681565b8160018114611c8f5760028114611c9957611cb5565b6001915050610681565b60ff841115611caa57611caa611acc565b50506001821b610681565b5060208310610133831016604e8410600b8410161715611cd8575081810a610681565b611ce28383611c1a565b8060001904821115611cf657611cf6611acc565b029392505050565b60006116b98383611c5d565b600060ff821660ff841680821015611d2457611d24611acc565b9003939250505056fea264697066735822122034f21f14f71119c367d90c6bf995a40919201658f4822ffbab5f678c77ebdfa864736f6c63430008090033",
  "immutableReferences": {},
  "source": "// SPDX-License-Identifier: MIT\npragma solidity 0.8.9;\nimport {FxBaseRootTunnel} from \"../../fx-portal/contracts/tunnel/FxBaseRootTunnel.sol\";\n\ncontract PolygonRootCheckPointManager is FxBaseRootTunnel {\n    constructor(address _checkpointManager, address _fxRoot) FxBaseRootTunnel(_checkpointManager, _fxRoot) {}\n\n    bytes32 constant RECEIVE_BLOCK_INFO = keccak256(\"ReceiveBlockInfo\");\n\n    function sendBlockInfo(uint256 _blockNumber) external {\n        bytes memory message = abi.encode(RECEIVE_BLOCK_INFO, abi.encode(_blockNumber, blockhash(_blockNumber)));\n        _sendMessageToChild(message);\n    }\n\n    function _processMessageFromChild(bytes memory _data) internal override {\n        // latestData = _data;\n    }\n}\n",
  "sourcePath": "/Users/yukitanaka/Documents/dev/solidity/pheasant-network/v1-contracts/contracts/tunnel/PolygonRootCheckPointManager.sol",
  "compiler": {
    "name": "solc",
    "version": "0.8.9+commit.e5eed63a.Emscripten.clang"
  },
  "schemaVersion": "3.4.3",
  "updatedAt": "2022-05-06T06:30:06.182Z",
  "networkType": "ethereum",
  "devdoc": {
    "kind": "dev",
    "methods": {
      "receiveMessage(bytes)": {
        "details": "This function verifies if the transaction actually happened on child chain",
        "params": {
          "inputData": "RLP encoded data of the reference tx containing following list of fields  0 - headerNumber - Checkpoint header block number containing the reference tx  1 - blockProof - Proof that the block header (in the child chain) is a leaf in the submitted merkle root  2 - blockNumber - Block number containing the reference tx on child chain  3 - blockTime - Reference tx block time  4 - txRoot - Transactions root of block  5 - receiptRoot - Receipts root of block  6 - receipt - Receipt of the reference transaction  7 - receiptProof - Merkle proof of the reference receipt  8 - branchMask - 32 bits denoting the path of receipt in merkle tree  9 - receiptLogIndex - Log Index to read from the receipt"
        }
      }
    },
    "version": 1
  },
  "userdoc": {
    "kind": "user",
    "methods": {
      "receiveMessage(bytes)": {
        "notice": "receive message from  L2 to L1, validated by proof"
      }
    },
    "version": 1
  }
}