{
  "contractName": "PolygonChildCheckPointManager",
  "abi": [
    {
      "inputs": [
        {
          "internalType": "address",
          "name": "_fxChild",
          "type": "address"
        }
      ],
      "stateMutability": "nonpayable",
      "type": "constructor"
    },
    {
      "anonymous": false,
      "inputs": [
        {
          "indexed": false,
          "internalType": "bytes",
          "name": "message",
          "type": "bytes"
        }
      ],
      "name": "MessageSent",
      "type": "event"
    },
    {
      "inputs": [],
      "name": "fxChild",
      "outputs": [
        {
          "internalType": "address",
          "name": "",
          "type": "address"
        }
      ],
      "stateMutability": "view",
      "type": "function"
    },
    {
      "inputs": [],
      "name": "fxRootTunnel",
      "outputs": [
        {
          "internalType": "address",
          "name": "",
          "type": "address"
        }
      ],
      "stateMutability": "view",
      "type": "function"
    },
    {
      "inputs": [
        {
          "internalType": "uint256",
          "name": "stateId",
          "type": "uint256"
        },
        {
          "internalType": "address",
          "name": "rootMessageSender",
          "type": "address"
        },
        {
          "internalType": "bytes",
          "name": "data",
          "type": "bytes"
        }
      ],
      "name": "processMessageFromRoot",
      "outputs": [],
      "stateMutability": "nonpayable",
      "type": "function"
    },
    {
      "inputs": [
        {
          "internalType": "address",
          "name": "_fxRootTunnel",
          "type": "address"
        }
      ],
      "name": "setFxRootTunnel",
      "outputs": [],
      "stateMutability": "nonpayable",
      "type": "function"
    },
    {
      "inputs": [
        {
          "internalType": "uint256",
          "name": "_blockNumber",
          "type": "uint256"
        }
      ],
      "name": "getBlockHash",
      "outputs": [
        {
          "internalType": "bytes32",
          "name": "",
          "type": "bytes32"
        }
      ],
      "stateMutability": "view",
      "type": "function"
    }
  ],
  "bytecode": "0x608060405234801561001057600080fd5b5060405161063138038061063183398101604081905261002f91610054565b600080546001600160a01b0319166001600160a01b0392909216919091179055610084565b60006020828403121561006657600080fd5b81516001600160a01b038116811461007d57600080fd5b9392505050565b61059e806100936000396000f3fe608060405234801561001057600080fd5b50600436106100575760003560e01c8063450d11f01461005c5780637f1e9cb01461008c578063888370941461009f5780639a7c4b71146100b4578063ee82ac5e146100c7575b600080fd5b60005461006f906001600160a01b031681565b6040516001600160a01b0390911681526020015b60405180910390f35b60015461006f906001600160a01b031681565b6100b26100ad366004610390565b6100f5565b005b6100b26100c23660046103b2565b610188565b6100e76100d5366004610439565b60009081526002602052604090205490565b604051908152602001610083565b6001546001600160a01b0316156101665760405162461bcd60e51b815260206004820152602a60248201527f4678426173654368696c6454756e6e656c3a20524f4f545f54554e4e454c5f4160448201526913149150511657d4d15560b21b60648201526084015b60405180910390fd5b600180546001600160a01b0319166001600160a01b0392909216919091179055565b6000546001600160a01b031633146101ec5760405162461bcd60e51b815260206004820152602160248201527f4678426173654368696c6454756e6e656c3a20494e56414c49445f53454e44456044820152602960f91b606482015260840161015d565b61022d848484848080601f01602080910402602001604051908101604052809392919081815260200183838082843760009201919091525061023392505050565b50505050565b60015482906001600160a01b038083169116146102a65760405162461bcd60e51b815260206004820152602b60248201527f4678426173654368696c6454756e6e656c3a20494e56414c49445f53454e444560448201526a1497d19493d357d493d3d560aa1b606482015260840161015d565b600080838060200190518101906102bd9190610468565b915091507fdd3db88ef167aee800dc88484762420c219550985f37a1a431de6cffa352b9ed82141561031857600080828060200190518101906103009190610544565b600091825260026020526040909120555061036c9050565b60405162461bcd60e51b8152602060048201526024808201527f4678426173654368696c6454756e6e656c3a20494e56414c49445f53594e435f6044820152635459504560e01b606482015260840161015d565b505050505050565b80356001600160a01b038116811461038b57600080fd5b919050565b6000602082840312156103a257600080fd5b6103ab82610374565b9392505050565b600080600080606085870312156103c857600080fd5b843593506103d860208601610374565b9250604085013567ffffffffffffffff808211156103f557600080fd5b818701915087601f83011261040957600080fd5b81358181111561041857600080fd5b88602082850101111561042a57600080fd5b95989497505060200194505050565b60006020828403121561044b57600080fd5b5035919050565b634e487b7160e01b600052604160045260246000fd5b6000806040838503121561047b57600080fd5b8251915060208084015167ffffffffffffffff8082111561049b57600080fd5b818601915086601f8301126104af57600080fd5b8151818111156104c1576104c1610452565b604051601f8201601f19908116603f011681019083821181831017156104e9576104e9610452565b81604052828152898684870101111561050157600080fd5b600093505b828410156105235784840186015181850187015292850192610506565b828411156105345760008684830101525b8096505050505050509250929050565b6000806040838503121561055757600080fd5b50508051602090910151909290915056fea26469706673582212203181fb00994e6aa224e4e57f63025e80229b1af8a2f447600404ac5a1ff9dfe264736f6c63430008090033",
  "immutableReferences": {},
  "source": "// SPDX-License-Identifier: MIT\npragma solidity 0.8.9;\nimport {FxBaseChildTunnel} from \"../../fx-portal/contracts/tunnel/FxBaseChildTunnel.sol\";\n\ncontract PolygonChildCheckPointManager is FxBaseChildTunnel {\n    bytes32 constant RECEIVE_BLOCK_INFO = keccak256(\"ReceiveBlockInfo\");\n    mapping(uint256 => bytes32) internal blockHashs;\n\n    constructor(address _fxChild) FxBaseChildTunnel(_fxChild) {}\n\n    function _processMessageFromRoot(\n        uint256, /* stateId */\n        address sender,\n        bytes memory data\n    ) internal override validateSender(sender) {\n        // decode incoming data\n        (bytes32 syncType, bytes memory syncData) = abi.decode(data, (bytes32, bytes));\n\n        if (syncType == RECEIVE_BLOCK_INFO) {\n            (uint256 blockNumber, bytes32 blockHash) = abi.decode(syncData, (uint256, bytes32));\n            blockHashs[blockNumber] = blockHash;\n        } else {\n            revert(\"FxBaseChildTunnel: INVALID_SYNC_TYPE\");\n        }\n    }\n\n    function getBlockHash(uint256 _blockNumber) external view returns (bytes32) {\n        return blockHashs[_blockNumber];\n    }\n}\n",
  "sourcePath": "/Users/yukitanaka/Documents/dev/solidity/pheasant-network/v1-contracts/contracts/tunnel/PolygonChildCheckPointManager.sol",
  "compiler": {
    "name": "solc",
    "version": "0.8.9+commit.e5eed63a.Emscripten.clang"
  },
  "schemaVersion": "3.4.3",
  "updatedAt": "2022-05-06T06:30:06.824Z",
  "networkType": "ethereum",
  "devdoc": {
    "kind": "dev",
    "methods": {},
    "version": 1
  },
  "userdoc": {
    "kind": "user",
    "methods": {},
    "version": 1
  }
}