{
  "contractName": "RLPDecoder",
  "abi": [
    {
      "inputs": [
        {
          "internalType": "bytes",
          "name": "input",
          "type": "bytes"
        }
      ],
      "name": "decode",
      "outputs": [
        {
          "internalType": "bytes[]",
          "name": "",
          "type": "bytes[]"
        }
      ],
      "stateMutability": "pure",
      "type": "function",
      "constant": true
    },
    {
      "inputs": [
        {
          "internalType": "bytes",
          "name": "_bytes",
          "type": "bytes"
        },
        {
          "internalType": "uint256",
          "name": "_start",
          "type": "uint256"
        }
      ],
      "name": "toUintX",
      "outputs": [
        {
          "internalType": "uint256",
          "name": "",
          "type": "uint256"
        }
      ],
      "stateMutability": "pure",
      "type": "function",
      "constant": true
    }
  ],
  "bytecode": "0x610ed861003a600b82828239805160001a60731461002d57634e487b7160e01b600052600060045260246000fd5b30600052607381538281f3fe73000000000000000000000000000000000000000030146080604052600436106100405760003560e01c8063414928da14610045578063e5c5e9a31461006b575b600080fd5b610058610053366004610c47565b61008b565b6040519081526020015b60405180910390f35b61007e610079366004610cfc565b6101d1565b6040516100629190610d6e565b600080835111801561009f57506008835111155b6100a857600080fd5b8251600114156100c6576100bc83836102b0565b60ff1690506101cb565b8251600214156100e5576100da8383610311565b61ffff1690506101cb565b825160031415610105576100f9838361036e565b62ffffff1690506101cb565b8251600414156101265761011983836103cb565b63ffffffff1690506101cb565b8251600514156101485761013a8383610428565b64ffffffffff1690506101cb565b82516006141561016b5761015c8383610485565b65ffffffffffff1690506101cb565b82516007141561018f5761017f83836104e2565b66ffffffffffffff1690506101cb565b8251600814156101b4576101a3838361053f565b67ffffffffffffffff1690506101cb565b6101be838361053f565b67ffffffffffffffff1690505b92915050565b60606000838360008181106101e8576101e8610e09565b909101356001600160f81b03191691505060bf60f81b8111156102175761020f848461059c565b9150506101cb565b604080516001808252818301909252600091816020015b606081526020019060019003908161022e57905050905061028485858080601f01602080910402602001604051908101604052809392919081815260200183838082843760009201919091525061090292505050565b600001518160008151811061029b5761029b610e09565b602002602001018190525080925050506101cb565b60006102bd826001610e35565b835110156103085760405162461bcd60e51b8152602060048201526013602482015272746f55696e74385f6f75744f66426f756e647360681b60448201526064015b60405180910390fd5b50016001015190565b600061031e826002610e35565b835110156103655760405162461bcd60e51b8152602060048201526014602482015273746f55696e7431365f6f75744f66426f756e647360601b60448201526064016102ff565b50016002015190565b600061037b826003610e35565b835110156103c25760405162461bcd60e51b8152602060048201526014602482015273746f55696e7432345f6f75744f66426f756e647360601b60448201526064016102ff565b50016003015190565b60006103d8826004610e35565b8351101561041f5760405162461bcd60e51b8152602060048201526014602482015273746f55696e7433325f6f75744f66426f756e647360601b60448201526064016102ff565b50016004015190565b6000610435826005610e35565b8351101561047c5760405162461bcd60e51b8152602060048201526014602482015273746f55696e7434305f6f75744f66426f756e647360601b60448201526064016102ff565b50016005015190565b6000610492826006610e35565b835110156104d95760405162461bcd60e51b8152602060048201526014602482015273746f55696e7434385f6f75744f66426f756e647360601b60448201526064016102ff565b50016006015190565b60006104ef826007610e35565b835110156105365760405162461bcd60e51b8152602060048201526014602482015273746f55696e7435365f6f75744f66426f756e647360601b60448201526064016102ff565b50016007015190565b600061054c826008610e35565b835110156105935760405162461bcd60e51b8152602060048201526014602482015273746f55696e7436345f6f75744f66426f756e647360601b60448201526064016102ff565b50016008015190565b60606000838360008181106105b3576105b3610e09565b909101356001600160f81b031916915060609050600060f760f81b8311610633576105e360c060f885901c610e4d565b60ff16905061062c86868080601f01602080910402602001604051908101604052809392919081815260200183838082843760009201919091525060019250859150610b249050565b91506106f9565b600061064460f760f886901c610e4d565b60ff16905061069761069088888080601f01602080910402602001604051908101604052809392919081815260200183838082843760009201919091525060019250869150610b249050565b600061008b565b91506106e687878080601f0160208091040260200160405190810160405280939291908181526020018383808284376000920191909152506106e0925085915060019050610e35565b84610b24565b92508251600014156106f757600080fd5b505b60006060600061071c604051806040016040528060608152602001600081525090565b85511561084d5782518214156107ec5782610738601486610e35565b94508467ffffffffffffffff81111561075357610753610c31565b60405190808252806020026020018201604052801561078657816020015b60608152602001906001900390816107715790505b50935080516000146107ea5760005b81518110156107e8578181815181106107b0576107b0610e09565b60200260200101518582815181106107ca576107ca610e09565b602002602001018190525080806107e090610e70565b915050610795565b505b505b6107f586610902565b9050610816868260200151836020015189516108119190610e8b565b610b24565b9550806000015183838151811061082f5761082f610e09565b6020026020010181905250818061084590610e70565b92505061071c565b60008267ffffffffffffffff81111561086857610868610c31565b60405190808252806020026020018201604052801561089b57816020015b60608152602001906001900390816108865790505b50905060005b838110156108f3578481815181106108bb576108bb610e09565b60200260200101518282815181106108d5576108d5610e09565b602002602001018190525080806108eb90610e70565b9150506108a1565b509a9950505050505050505050565b60408051808201909152606081526000602082015260008260008151811061092c5761092c610e09565b01602001516001600160f81b0319169050607f60f81b81116109715760405180604001604052806109608560006001610b24565b815260016020909101529392505050565b60b760f81b6001600160f81b0319821611610a4c576000610997607f60f884901c610e4d565b60ff1690506060600160ff1b6001600160f81b0319841614156109dd57506040805160208082018352600082528251808401909352818352600190830152909350610a07565b6109ed8560016108118186610e8b565b905060405180604001604052808281526020018381525093505b816002141580610a3b5750600160ff1b81600081518110610a2a57610a2a610e09565b01602001516001600160f81b031916115b610a4457600080fd5b505050919050565b60bf60f81b6001600160f81b0319821611610ae1576000610a7260b760f884901c610e4d565b60ff16905080845111610a8457600080fd5b6000610a9561069086600185610b24565b905060378111610aa457600080fd5b6040518060400160405280610ac687856001610ac09190610e35565b85610b24565b8152602001610ad6836002610e35565b905295945050505050565b600360fe1b6001600160f81b031982161415610b1e5750506040805160208082018352600082528251808401909352908252600290820152919050565b50919050565b606081610b3281601f610e35565b1015610b715760405162461bcd60e51b815260206004820152600e60248201526d736c6963655f6f766572666c6f7760901b60448201526064016102ff565b610b7b8284610e35565b84511015610bbf5760405162461bcd60e51b8152602060048201526011602482015270736c6963655f6f75744f66426f756e647360781b60448201526064016102ff565b606082158015610bde5760405191506000825260208201604052610c28565b6040519150601f8416801560200281840101858101878315602002848b0101015b81831015610c17578051835260209283019201610bff565b5050858452601f01601f1916604052505b50949350505050565b634e487b7160e01b600052604160045260246000fd5b60008060408385031215610c5a57600080fd5b823567ffffffffffffffff80821115610c7257600080fd5b818501915085601f830112610c8657600080fd5b813581811115610c9857610c98610c31565b604051601f8201601f19908116603f01168101908382118183101715610cc057610cc0610c31565b81604052828152886020848701011115610cd957600080fd5b826020860160208301376000602093820184015298969091013596505050505050565b60008060208385031215610d0f57600080fd5b823567ffffffffffffffff80821115610d2757600080fd5b818501915085601f830112610d3b57600080fd5b813581811115610d4a57600080fd5b866020828501011115610d5c57600080fd5b60209290920196919550909350505050565b6000602080830181845280855180835260408601915060408160051b87010192508387016000805b83811015610dfb57888603603f1901855282518051808852835b81811015610dcb578281018a01518982018b01528901610db0565b81811115610ddb57848a838b0101525b50601f01601f191696909601870195509386019391860191600101610d96565b509398975050505050505050565b634e487b7160e01b600052603260045260246000fd5b634e487b7160e01b600052601160045260246000fd5b60008219821115610e4857610e48610e1f565b500190565b600060ff821660ff841680821015610e6757610e67610e1f565b90039392505050565b6000600019821415610e8457610e84610e1f565b5060010190565b600082821015610e9d57610e9d610e1f565b50039056fea264697066735822122099ff176628284b4d6a78a24670697793f0cd46fbb7556d591783c1632811c37d64736f6c63430008090033",
  "immutableReferences": {},
  "source": "// SPDX-License-Identifier: MIT\npragma solidity 0.8.9;\n\n//import \"solidity-bytes-utils/contracts/BytesLib.sol\";\n\nlibrary RLPDecoder {\n    struct RLPItem {\n        bytes data;\n        uint256 length;\n    }\n\n    uint256 constant LIST_LENGTH = 20;\n\n    //Nested Lists are not supported.\n    function decodeList(bytes calldata input) internal pure returns (bytes[] memory) {\n        bytes1 firstByte = input[0];\n        bytes memory innerRemainder;\n        uint256 length = 0;\n        if (firstByte <= hex\"f7\") {\n            length = uint8(firstByte) - uint8(bytes1(hex\"c0\"));\n            innerRemainder = slice(input, 1, length);\n        } else {\n            // a list  over 55 bytes long\n            uint256 llength = uint8(firstByte) - uint8(bytes1(hex\"f7\"));\n            length = toUintX(slice(input, 1, llength), 0);\n            innerRemainder = slice(input, llength + 1, length);\n            require(innerRemainder.length != 0);\n        }\n        uint256 listLength = 0;\n        bytes[] memory decoded;\n        uint256 index = 0;\n        RLPItem memory result;\n        while (innerRemainder.length > 0) {\n            if (index == decoded.length) {\n                bytes[] memory tmp = decoded;\n                listLength += LIST_LENGTH;\n                decoded = new bytes[](listLength);\n                if (tmp.length != 0) {\n                    for (uint256 i = 0; i < tmp.length; i++) {\n                        decoded[i] = tmp[i];\n                    }\n                }\n            }\n\n            result = decodeBytes(innerRemainder);\n            innerRemainder = slice(innerRemainder, result.length, innerRemainder.length - result.length);\n            decoded[index] = result.data;\n            index++;\n        }\n\n        bytes[] memory decodedList = new bytes[](index);\n        for (uint256 i = 0; i < index; i++) {\n            decodedList[i] = decoded[i];\n        }\n\n        return decodedList;\n    }\n\n    function decodeBytes(bytes memory input) internal pure returns (RLPItem memory item) {\n        bytes1 firstByte = input[0];\n        if (firstByte <= hex\"7f\") {\n            return RLPItem(bytes(slice(input, 0, 1)), 1);\n        } else if (firstByte <= hex\"b7\") {\n            uint256 length = uint8(firstByte) - uint8(bytes1(hex\"7f\"));\n            bytes memory data;\n            if (firstByte == hex\"80\") {\n                data = bytes(\"\");\n                item = RLPItem(data, 1);\n            } else {\n                data = bytes(slice(input, 1, length - 1));\n                item = RLPItem(data, length);\n            }\n            require(length != 2 || data[0] > hex\"80\");\n            return item;\n        } else if (firstByte <= hex\"bf\") {\n            // string is greater than 55 bytes long. A single byte with the value (0xb7 plus the length of the length),\n            // followed by the length, followed by the string\n            uint256 llength = uint8(firstByte) - uint8(bytes1(hex\"b7\"));\n            require(input.length > llength);\n            uint256 length = toUintX(slice(input, 1, llength), 0);\n            require(length > 55);\n            item = RLPItem(slice(input, llength + 1, length), length + 2);\n            return item;\n        } else if (firstByte == hex\"c0\") {\n            //accesslist not support\n            bytes memory data;\n            data = bytes(\"\");\n            item = RLPItem(data, 2);\n            return item;\n        }\n    }\n\n    function decode(bytes calldata input) public pure returns (bytes[] memory) {\n        bytes1 firstByte = input[0];\n        if (firstByte > hex\"bf\") {\n            return decodeList(input);\n        } else {\n            bytes[] memory data = new bytes[](1);\n            data[0] = decodeBytes(input).data;\n            return data;\n        }\n    }\n\n    function toUintX(bytes memory _bytes, uint256 _start) public pure returns (uint256) {\n        require(_bytes.length > 0 && _bytes.length <= 8);\n        if (_bytes.length == 1) {\n            return toUint8(_bytes, _start);\n        } else if (_bytes.length == 2) {\n            return toUint16(_bytes, _start);\n        } else if (_bytes.length == 3) {\n            return toUint24(_bytes, _start);\n        } else if (_bytes.length == 4) {\n            return toUint32(_bytes, _start);\n        } else if (_bytes.length == 5) {\n            return toUint40(_bytes, _start);\n        } else if (_bytes.length == 6) {\n            return toUint48(_bytes, _start);\n        } else if (_bytes.length == 7) {\n            return toUint56(_bytes, _start);\n        } else if (_bytes.length == 8) {\n            return toUint64(_bytes, _start);\n        }\n\n        return toUint64(_bytes, _start);\n    }\n\n    function toUint24(bytes memory _bytes, uint256 _start) internal pure returns (uint24) {\n        require(_bytes.length >= _start + 3, \"toUint24_outOfBounds\");\n        uint24 tempUint;\n\n        assembly {\n            tempUint := mload(add(add(_bytes, 0x3), _start))\n        }\n\n        return tempUint;\n    }\n\n    function toUint40(bytes memory _bytes, uint256 _start) internal pure returns (uint40) {\n        require(_bytes.length >= _start + 5, \"toUint40_outOfBounds\");\n        uint40 tempUint;\n\n        assembly {\n            tempUint := mload(add(add(_bytes, 0x5), _start))\n        }\n\n        return tempUint;\n    }\n\n    function toUint48(bytes memory _bytes, uint256 _start) internal pure returns (uint48) {\n        require(_bytes.length >= _start + 6, \"toUint48_outOfBounds\");\n        uint48 tempUint;\n\n        assembly {\n            tempUint := mload(add(add(_bytes, 0x6), _start))\n        }\n\n        return tempUint;\n    }\n\n    function toUint56(bytes memory _bytes, uint256 _start) internal pure returns (uint56) {\n        require(_bytes.length >= _start + 7, \"toUint56_outOfBounds\");\n        uint56 tempUint;\n\n        assembly {\n            tempUint := mload(add(add(_bytes, 0x7), _start))\n        }\n\n        return tempUint;\n    }\n\n    function toUint8(bytes memory _bytes, uint256 _start) internal pure returns (uint8) {\n        require(_bytes.length >= _start + 1, \"toUint8_outOfBounds\");\n        uint8 tempUint;\n\n        assembly {\n            tempUint := mload(add(add(_bytes, 0x1), _start))\n        }\n\n        return tempUint;\n    }\n\n    function toUint16(bytes memory _bytes, uint256 _start) internal pure returns (uint16) {\n        require(_bytes.length >= _start + 2, \"toUint16_outOfBounds\");\n        uint16 tempUint;\n\n        assembly {\n            tempUint := mload(add(add(_bytes, 0x2), _start))\n        }\n\n        return tempUint;\n    }\n\n    function toUint32(bytes memory _bytes, uint256 _start) internal pure returns (uint32) {\n        require(_bytes.length >= _start + 4, \"toUint32_outOfBounds\");\n        uint32 tempUint;\n\n        assembly {\n            tempUint := mload(add(add(_bytes, 0x4), _start))\n        }\n\n        return tempUint;\n    }\n\n    function toUint64(bytes memory _bytes, uint256 _start) internal pure returns (uint64) {\n        require(_bytes.length >= _start + 8, \"toUint64_outOfBounds\");\n        uint64 tempUint;\n\n        assembly {\n            tempUint := mload(add(add(_bytes, 0x8), _start))\n        }\n\n        return tempUint;\n    }\n\n    function slice(\n        bytes memory _bytes,\n        uint256 _start,\n        uint256 _length\n    ) internal pure returns (bytes memory) {\n        require(_length + 31 >= _length, \"slice_overflow\");\n        require(_bytes.length >= _start + _length, \"slice_outOfBounds\");\n\n        bytes memory tempBytes;\n\n        assembly {\n            switch iszero(_length)\n            case 0 {\n                // Get a location of some free memory and store it in tempBytes as\n                // Solidity does for memory variables.\n                tempBytes := mload(0x40)\n\n                // The first word of the slice result is potentially a partial\n                // word read from the original array. To read it, we calculate\n                // the length of that partial word and start copying that many\n                // bytes into the array. The first word we copy will start with\n                // data we don't care about, but the last `lengthmod` bytes will\n                // land at the beginning of the contents of the new array. When\n                // we're done copying, we overwrite the full first word with\n                // the actual length of the slice.\n                let lengthmod := and(_length, 31)\n\n                // The multiplication in the next line is necessary\n                // because when slicing multiples of 32 bytes (lengthmod == 0)\n                // the following copy loop was copying the origin's length\n                // and then ending prematurely not copying everything it should.\n                let mc := add(add(tempBytes, lengthmod), mul(0x20, iszero(lengthmod)))\n                let end := add(mc, _length)\n\n                for {\n                    // The multiplication in the next line has the same exact purpose\n                    // as the one above.\n                    let cc := add(add(add(_bytes, lengthmod), mul(0x20, iszero(lengthmod))), _start)\n                } lt(mc, end) {\n                    mc := add(mc, 0x20)\n                    cc := add(cc, 0x20)\n                } {\n                    mstore(mc, mload(cc))\n                }\n\n                mstore(tempBytes, _length)\n\n                //update free-memory pointer\n                //allocating the array padded to 32 bytes like the compiler does now\n                mstore(0x40, and(add(mc, 31), not(31)))\n            }\n            //if we want a zero-length slice let's just return a zero-length array\n            default {\n                tempBytes := mload(0x40)\n                //zero out the 32 bytes slice we are about to return\n                //we need to do it because Solidity does not garbage collect\n                mstore(tempBytes, 0)\n\n                mstore(0x40, add(tempBytes, 0x20))\n            }\n        }\n\n        return tempBytes;\n    }\n}\n",
  "sourcePath": "/Users/yukitanaka/Documents/dev/solidity/pheasant-network/v1-contracts/contracts/RLPDecoder.sol",
  "compiler": {
    "name": "solc",
    "version": "0.8.9+commit.e5eed63a.Emscripten.clang"
  },
  "schemaVersion": "3.4.3",
  "updatedAt": "2022-05-06T06:30:05.787Z",
  "networkType": "ethereum",
  "devdoc": {
    "kind": "dev",
    "methods": {},
    "version": 1
  },
  "userdoc": {
    "kind": "user",
    "methods": {},
    "version": 1
  }
}