{
  "contractName": "TestDisputeManager",
  "abi": [
    {
      "inputs": [
        {
          "internalType": "bytes32",
          "name": "blockHash",
          "type": "bytes32"
        },
        {
          "internalType": "bytes[]",
          "name": "blockHeaderRaw",
          "type": "bytes[]"
        }
      ],
      "name": "verifyBlockHeader",
      "outputs": [
        {
          "internalType": "bool",
          "name": "",
          "type": "bool"
        }
      ],
      "stateMutability": "pure",
      "type": "function"
    },
    {
      "inputs": [
        {
          "internalType": "bytes32",
          "name": "txHash",
          "type": "bytes32"
        },
        {
          "internalType": "bytes[]",
          "name": "proof",
          "type": "bytes[]"
        },
        {
          "internalType": "bytes",
          "name": "bytesRoot",
          "type": "bytes"
        },
        {
          "internalType": "uint8[]",
          "name": "path",
          "type": "uint8[]"
        }
      ],
      "name": "verifyProof",
      "outputs": [
        {
          "internalType": "bool",
          "name": "",
          "type": "bool"
        }
      ],
      "stateMutability": "pure",
      "type": "function"
    },
    {
      "inputs": [
        {
          "internalType": "bytes",
          "name": "transaction",
          "type": "bytes"
        },
        {
          "internalType": "bytes[]",
          "name": "txRaw",
          "type": "bytes[]"
        }
      ],
      "name": "verifyRawTx",
      "outputs": [
        {
          "internalType": "bool",
          "name": "",
          "type": "bool"
        }
      ],
      "stateMutability": "pure",
      "type": "function"
    },
    {
      "inputs": [
        {
          "internalType": "address",
          "name": "from",
          "type": "address"
        },
        {
          "internalType": "bytes[]",
          "name": "txRaw",
          "type": "bytes[]"
        }
      ],
      "name": "verifyTxSignature",
      "outputs": [
        {
          "internalType": "bool",
          "name": "",
          "type": "bool"
        }
      ],
      "stateMutability": "pure",
      "type": "function"
    },
    {
      "inputs": [
        {
          "internalType": "bytes32",
          "name": "_blockHash",
          "type": "bytes32"
        },
        {
          "internalType": "uint256",
          "name": "_blockNumber",
          "type": "uint256"
        }
      ],
      "name": "verifyBlockHash",
      "outputs": [
        {
          "internalType": "bool",
          "name": "",
          "type": "bool"
        }
      ],
      "stateMutability": "view",
      "type": "function"
    }
  ],
  "bytecode": "0x608060405234801561001057600080fd5b506104bf806100206000396000f3fe608060405234801561001057600080fd5b50600436106100575760003560e01c80632c5762551461005c5780633a161a461461008657806350328bf91461009d5780638c6ffffe146100ab578063a47615c7146100c3575b600080fd5b61007261006a3660046100d1565b600192915050565b604051901515815260200160405180910390f35b61007261009436600461013f565b60019392505050565b610072610094366004610242565b6100726100b936600461033d565b6001949350505050565b610072610094366004610441565b600080604083850312156100e457600080fd5b50508035926020909101359150565b60008083601f84011261010557600080fd5b50813567ffffffffffffffff81111561011d57600080fd5b6020830191508360208260051b850101111561013857600080fd5b9250929050565b60008060006040848603121561015457600080fd5b83359250602084013567ffffffffffffffff81111561017257600080fd5b61017e868287016100f3565b9497909650939450505050565b634e487b7160e01b600052604160045260246000fd5b604051601f8201601f1916810167ffffffffffffffff811182821017156101ca576101ca61018b565b604052919050565b600082601f8301126101e357600080fd5b813567ffffffffffffffff8111156101fd576101fd61018b565b610210601f8201601f19166020016101a1565b81815284602083860101111561022557600080fd5b816020850160208301376000918101602001919091529392505050565b60008060006040848603121561025757600080fd5b833567ffffffffffffffff8082111561026f57600080fd5b61027b878388016101d2565b9450602086013591508082111561029157600080fd5b5061017e868287016100f3565b600067ffffffffffffffff8211156102b8576102b861018b565b5060051b60200190565b600082601f8301126102d357600080fd5b813560206102e86102e38361029e565b6101a1565b82815260059290921b8401810191818101908684111561030757600080fd5b8286015b8481101561033257803560ff811681146103255760008081fd5b835291830191830161030b565b509695505050505050565b6000806000806080858703121561035357600080fd5b8435935060208086013567ffffffffffffffff8082111561037357600080fd5b818801915088601f83011261038757600080fd5b81356103956102e38261029e565b81815260059190911b8301840190848101908b8311156103b457600080fd5b8585015b838110156103ec578035858111156103d05760008081fd5b6103de8e89838a01016101d2565b8452509186019186016103b8565b5097505050604088013592508083111561040557600080fd5b61041189848a016101d2565b9450606088013592508083111561042757600080fd5b5050610435878288016102c2565b91505092959194509250565b60008060006040848603121561045657600080fd5b83356001600160a01b038116811461046d57600080fd5b9250602084013567ffffffffffffffff81111561017257600080fdfea26469706673582212205594530cc1347d652c0bb70a05aa10d011340a1228f7c148f900072cd9e2128d64736f6c63430008090033",
  "immutableReferences": {},
  "source": "// SPDX-License-Identifier: MIT\npragma solidity 0.8.9;\n\ncontract TestDisputeManager {\n    function verifyBlockHeader(bytes32 blockHash, bytes[] calldata blockHeaderRaw) external pure returns (bool){\n        return true;\n    }\n\n    function verifyProof(\n        bytes32 txHash,\n        bytes[] memory proof,\n        bytes memory bytesRoot,\n        uint8[] memory path\n    ) external pure returns (bool) {\n        return true;\n    }\n\n    function verifyRawTx(bytes memory transaction, bytes[] calldata txRaw) external pure returns (bool) {\n        return true;\n    }\n\n    function verifyTxSignature(address from, bytes[] calldata txRaw) external pure returns (bool) {\n        return true;\n    }\n\n    function verifyBlockHash(bytes32 _blockHash, uint256 _blockNumber) external view returns (bool) {\n        return true;\n    }\n}\n",
  "sourcePath": "/Users/yukitanaka/Documents/dev/solidity/pheasant-network/v1-contracts/contracts/TestDisputeManager.sol",
  "compiler": {
    "name": "solc",
    "version": "0.8.9+commit.e5eed63a.Emscripten.clang"
  },
  "schemaVersion": "3.4.3",
  "updatedAt": "2022-05-07T15:13:53.234Z",
  "devdoc": {
    "kind": "dev",
    "methods": {},
    "version": 1
  },
  "userdoc": {
    "kind": "user",
    "methods": {},
    "version": 1
  }
}