{
  "contractName": "TestCheckPointManager",
  "abi": [
    {
      "inputs": [
        {
          "internalType": "uint256",
          "name": "",
          "type": "uint256"
        }
      ],
      "name": "blockHashs",
      "outputs": [
        {
          "internalType": "bytes32",
          "name": "",
          "type": "bytes32"
        }
      ],
      "stateMutability": "view",
      "type": "function"
    },
    {
      "inputs": [
        {
          "internalType": "uint256",
          "name": "_blockNumber",
          "type": "uint256"
        }
      ],
      "name": "getBlockHash",
      "outputs": [
        {
          "internalType": "bytes32",
          "name": "",
          "type": "bytes32"
        }
      ],
      "stateMutability": "view",
      "type": "function"
    },
    {
      "inputs": [
        {
          "internalType": "uint256",
          "name": "_blockNumber",
          "type": "uint256"
        },
        {
          "internalType": "bytes32",
          "name": "_blockHash",
          "type": "bytes32"
        }
      ],
      "name": "setBlockHash",
      "outputs": [],
      "stateMutability": "nonpayable",
      "type": "function"
    }
  ],
  "bytecode": "0x608060405234801561001057600080fd5b5061011b806100206000396000f3fe6080604052348015600f57600080fd5b5060043610603c5760003560e01c806345db756c1460415780637260e722146060578063ee82ac5e14608f575b600080fd5b605e604c36600460ac565b60009182526020829052604090912055565b005b607d606b36600460cd565b60006020819052908152604090205481565b60405190815260200160405180910390f35b607d609a36600460cd565b60009081526020819052604090205490565b6000806040838503121560be57600080fd5b50508035926020909101359150565b60006020828403121560de57600080fd5b503591905056fea26469706673582212204ed77c1616a95978f68240fc83d98547d8811d7b496ab344634c82bc320db31464736f6c63430008090033",
  "immutableReferences": {},
  "source": "// SPDX-License-Identifier: MIT\npragma solidity 0.8.9;\n\ncontract TestCheckPointManager {\n    mapping(uint256 => bytes32) public blockHashs;\n\n    function getBlockHash(uint256 _blockNumber) external view returns (bytes32) {\n        return blockHashs[_blockNumber];\n    }\n\n    function setBlockHash(uint256 _blockNumber, bytes32 _blockHash) public {\n        blockHashs[_blockNumber] = _blockHash;\n    }\n}\n",
  "sourcePath": "/Users/yukitanaka/Documents/dev/solidity/pheasant-network/v1-contracts/contracts/TestCheckPointManager.sol",
  "compiler": {
    "name": "solc",
    "version": "0.8.9+commit.e5eed63a.Emscripten.clang"
  },
  "schemaVersion": "3.4.3",
  "updatedAt": "2022-05-06T06:30:05.625Z",
  "networkType": "ethereum",
  "devdoc": {
    "kind": "dev",
    "methods": {},
    "version": 1
  },
  "userdoc": {
    "kind": "user",
    "methods": {},
    "version": 1
  }
}